:020000040000fa
:08000000020c040000000000e6
:020000040000fa
:100008001210000012100000121000001210000060
:100018001210000012100000121000001210000050
:10002800121000001210000012100000560f0000fd
:100038001210000012100000121000001210000030
:10004800fe0f00001210000012100000e20c000069
:10005800a20d0000b20f00001210000012100000e4
:100068001210000012100000121000001210000000
:1000780012100000121000001210000012100000f0
:1000880012100000121000001210000012100000e0
:100098001210000012100000200e0000e00e0000f8
:1000a80012100000121000001210000012100000c0
:1000b80012100000121000001210000012100000b0
:1000c80012100000121000001210000012100000a0
:1000d8001210000012100000121000001210000090
:1000e8001210000012100000121000001210000080
:1000f8001210000012100000121000001210000070
:10010800121000001210000012100000121000005f
:10011800121000001210000012100000121000004f
:10012800121000001210000012100000121000003f
:10013800121000001210000012100000121000002f
:10014800121000001210000012100000121000001f
:10015800121000001210000012100000121000000f
:1001680012100000121000001210000012100000ff
:1001780012100000121000001210000012100000ef
:1001880012100000121000001210000012100000df
:1001980012100000121000001210000012100000cf
:1001a80012100000121000001210000012100000bf
:1001b80012100000121000001210000012100000af
:1001c800121000001210000012100000121000009f
:1001d800121000001210000012100000121000008f
:1001e800121000001210000012100000121000007f
:0801f8001210000012100000bb
:020000040000fa
:10020800121000001210000012100000121000005e
:10021800121000001210000012100000121000004e
:10022800121000001210000012100000560f0000fb
:10023800121000001210000012100000121000002e
:10024800fe0f00001210000012100000e20c000067
:10025800a20d0000b20f00001210000012100000e2
:1002680012100000121000001210000012100000fe
:1002780012100000121000001210000012100000ee
:1002880012100000121000001210000012100000de
:100298001210000012100000200e0000e00e0000f6
:1002a80012100000121000001210000012100000be
:1002b80012100000121000001210000012100000ae
:1002c800121000001210000012100000121000009e
:1002d800121000001210000012100000121000008e
:1002e800121000001210000012100000121000007e
:1002f800121000001210000012100000121000006e
:10030800121000001210000012100000121000005d
:10031800121000001210000012100000121000004d
:10032800121000001210000012100000121000003d
:10033800121000001210000012100000121000002d
:10034800121000001210000012100000121000001d
:10035800121000001210000012100000121000000d
:1003680012100000121000001210000012100000fd
:1003780012100000121000001210000012100000ed
:1003880012100000121000001210000012100000dd
:1003980012100000121000001210000012100000cd
:1003a80012100000121000001210000012100000bd
:1003b80012100000121000001210000012100000ad
:1003c800121000001210000012100000121000009d
:1003d800121000001210000012100000121000008d
:1003e800121000001210000012100000121000007d
:0803f8001210000012100000b9
:020000040000fa
:1018000001000000efad21000e7f22000e018800d4
:1018100000000000000020000000e0000200320094
:10182000000120002002880014000700ff010700cb
:101830000000e00003003a0040a224000100200064
:10184000020037000000200001002000810f70001e
:101850000100320014000700000020000000e0003a
:101860000200320000000200000000000c2f020005
:10187000000000000040da000000fe004440a90023
:10188000a03b20000000e000030032000000200028
:10189000a00188004440a800000006008a1f7800cc
:1018a0008b1f7800000006009101880080047800fa
:1018b0000000eb001a003700e284440032a0b400bc
:1018c0009905ba00e284440032a0b4009906ba0037
:1018d000e284440032a0b4000006eb00476fde0053
:1018e000fd07b200636ce10003003a00ebff070064
:1018f0000000eb000a003700606ce10004003a00d1
:10190000005deb008b05e900fdff3e0004003700a1
:101910006168e100010032000086eb000b00070067
:1019200019c7ba001905ba000e04e00003003a0016
:101930000a00e000e0ff3a0000000600fe07b200e7
:101940009e0188008a047800f5ff3700395dba00ef
:101950008b05e9000c003200295dba008b05e90017
:10196000080032000c00e00003003a00e28444006a
:1019700032a0b400f5ff370019ddba008b05e9008d
:10198000faff3a008904e800e184440032a0b40080
:101990000000060000000000000000000000000041
:1019a0000000000000000000000000000000000037
:1019b0000000000000000000000000000000000027
:1019c000000000003600f800809fbe00829fbe002d
:1019d000849fbe00869fbe003400f80000002000f7
:1019e000a00188000400fa008560a900308320006f
:1019f00011c0b300014878003011800080407800a9
:101a00002083200001487800100280004500de009d
:101a1000674060000080fb00000f7800110280002a
:101a2000000e20000100700010028800000000007d
:101a300020832000104078008040780040872000fc
:101a40006c1d07001e0078000040780067406000b1
:101a50000080fb00670060004500dd00120280008e
:101a6000f1f12f0081006100010070001002880078
:101a700000000000100280004500de0067406000aa
:101a80000080fb001007980011028000000e20006b
:101a900001007000100288000000000072998000b0
:101aa0002083200090407800e02a210000004100bf
:101ab00001487800709980000000e8007099880063
:101ac00071998000f0072000808f500002003600de
:101ad0000000eb007099880091998000f0072000c9
:101ae000808f500003003e00909980000000e800c5
:101af000909988001e0090000040780067406000c8
:101b00000080fb00670060004500dd0012028000dd
:101b1000f1f12f00810061000100700010028800c7
:101b2000000000000080fa003400f9004f03be00fe
:101b30004f02be004f01be004f00be003600f9004c
:101b4000004006003600f800809fbe00829fbe0065
:101b5000849fbe00869fbe003400f8000000200075
:101b6000a00188000400fa008580a90010882000e8
:101b700011c0b30001487800100280004500de006b
:101b8000674060000080fb00000f780011028000b9
:101b9000000e20000100700010028800000000000c
:101ba000630047008000780040a820003f1d070028
:101bb000204798001e0078000040780067406000d1
:101bc0000080fb00670060004500dd00120280001d
:101bd000f1f12f0081006100010070001002880007
:101be000000000002e4090000004e00008003200d9
:101bf000be40900000882000014878000088200046
:101c0000104078000080fb0020118800040037009d
:101c10009580a9002088200011c0b30001487800f9
:101c20000080fa003400f9004f03be004f02be00ee
:101c30004f01be004f00be003600f9000040060014
:101c40003600f800809fbe00829fbe00849fbe00c9
:101c5000869fbe003400f80000002000a00188002c
:101c60000400fa0087c0a90010a9200011c0b30029
:101c700001487800b01180008040780000a9200061
:101c800001487800100280004500de0067406000d7
:101c90000080fb00000f780011028000000e200081
:101ca00001007000100288000000000000a9200060
:101cb000104078008040780020e92000cd1c07000b
:101cc0001e00780000407800674060000080fb0044
:101cd000670060004500dd0012028000f1f12f0076
:101ce0008100610001007000100288000000000007
:101cf000100280004500de00674060000080fb00ad
:101d00001007980011028000000e200001007000f2
:101d10001002880000000000a2b9800000a9200085
:101d200090407800403321000000410001487800d5
:101d3000a0b980000000e800a0b98800a1b9800027
:101d4000f03f2000808f5000020036000000eb00c2
:101d5000a0b98800c1b98000f03f2000808f5000fa
:101d600003003e00c0b980000000e800c0b9880050
:101d70001e00900000407800674060000080fb007b
:101d8000670060004500dd0012028000f1f12f00c5
:101d90008100610001007000100288000000000056
:101da0000080fa003400f9004f03be004f02be006d
:101db0004f01be004f00be003600f9000040060093
:101dc0003600f800809fbe00829fbe00849fbe0048
:101dd000869fbe003400f80000002000a0018800ab
:101de0000400fa0087e0a900f0e9200011c0b30068
:101df00001487800100280004500de006740600066
:101e00000080fb00000f780011028000000e20000f
:101e1000010070001002880000000000630047000d
:101e200080007800202a2100a01c0700204798008d
:101e30001e00780000407800674060000080fb00d2
:101e4000670060004500dd0012028000f1f12f0004
:101e50008100610001007000100288000000000095
:101e60002e4090000004e000040032003e4090004c
:101e70000080fb00a01188000400370097e0a90053
:101e800000ea200011c0b300014878000080fa0089
:101e90003400f9004f03be004f02be004f01be00e8
:101ea0004f00be003600f900004006003600f80082
:101eb000809fbe00829fbe00849fbe00869fbe00a2
:101ec0003400f80000002000a00188000000fa00a3
:101ed0008460a9001000200010c4880000c48000a5
:101ee0000000e80000c4880020c4800031c48000e5
:101ef00061004000e080480020c4880031c48800b0
:101f000040c480000000e80040c4880090c4800005
:101f10000000e0000b00320001c48000804080001f
:101f200000017800110009008280d8008000fd00c7
:101f30000000e00003003a0091c480000088210006
:101f4000010001000080fa003400f9004f03be00d8
:101f50004f02be004f01be004f00be003600f90028
:101f600000400600809fbe003400f8000000200002
:101f7000a00188000000fa0085a0a900808120004f
:101f80009000780000188000008040008000d100a0
:101f9000808120000108780080812000900090005e
:101fa00010188000008040008000d1008081200057
:101fb0001100980080812000a0009000201880006f
:101fc000008040008000d100808120002100980026
:101fd00080812000b0009000301880000080400018
:101fe0008000d10080812000310098000080fa003c
:101ff0003400f9004f00be00004006003400f80035
:10200000881f780008002000a80188004f0478008d
:102010000000fa008500a9000080fa003400f900f1
:10202000004006000040da000000fe00000005004d
:1020300003f0a200889fbe008a9fbe008c1f78001c
:10204000f5000700fc0033006450e1004f0032004f
:102050006420e1005200320003826c0007003b0064
:102060000905d0000306d000820f54000c065d0065
:10207000020039000200320089017800030678006e
:102080008582550004003d000003fd008103fd0032
:102090008502ea008b854200840f720002003b003b
:1020a00060001000e08018006011b8000005eb002f
:1020b0007a28e1000a00390006007800c75ddd00db
:1020c000f707b200878075002d003700828171000c
:1020d0000a017800610560008180d1000080d30092
:1020e0008502e900f9ff3b000604400087844800b0
:1020f00002003b0060041400e0841c000988a30077
:10210000070032008a8171008281710061016400e0
:102110008904d1000884d3008b05e800170037003c
:102120000978a30013003a000b00e000130034000c
:102130008b05e9000804440089844c000a447400bb
:102140000978a3000d003a000b00e00007003400fe
:102150008b05e9000804440089844c0001003a0022
:102160000b0020000978a300f7ff32000001eb000c
:1021700002003700828171000a0178006b000700bd
:102180000cf0a70001f0a000b40037006420e100cb
:1021900002003a00838f6c00b40033000801be00d7
:1021a0000200be00ad003700889fbe008a9fbe00bf
:1021b0008c1f7800980007009f00330003866c0096
:1021c0006450e1002e0032006420e1003300320050
:1021d0006150e1002f0032006120e1003100320047
:1021e00085855500eb07b000090020000804200099
:1021f000050037000804440089844c000a003100bf
:102200000603430087834b000001530081815b007c
:10221000f8ff33000203be000800a00008044400d9
:1022200089844c00f6ff3900c639dd008301730054
:1022300001003200130020008904d1000884d3007b
:102240000998a300050032000800a7000300a000c1
:102250008904d1000884d3008b05e8008904d100eb
:102260000884d3000001eb000281d2002f00070098
:1022700001f0a1000cf0a70001f0a00077003700ea
:102280006420e100790032000801be000200be00b7
:10229000f7ff37006120e100740032006000b800f1
:1022a000f3ff37000000200001f82700f0ff37009f
:1022b00014002000a40037000001be004100070008
:1022c0000470a70003f0a10003f8a30013003a0074
:1022d0006509b10010003200090035006928e100ed
:1022e0000200350001002800000005000000400049
:1022f000818048008502e900fcff3a0000000600ea
:10230000f88f4200050035008100d1000080d30025
:102310008502e800fcff3a00000006008000eb00a8
:10232000000005006011b800a20037008100200005
:10233000618055000b003d000b00200061fe2f0066
:102340000100e1001d003400828171006101640020
:102350008904d1000884d3000000e800faff3a00a5
:102360007100200061006400030070000200600042
:102370000900320061044400e0844c000988a50093
:10238000050032008b05e8006808e10002003a0011
:102390008904d1000884d300f20f20000258e10024
:1023a00005003d00c75ddd00f907b20089807500ba
:1023b00008007800000006000bf827008b0078006a
:1023c00000000500c70ade00f107b200f50fb200f9
:1023d00008003200e1cf4200020032000170a0008c
:1023e00024000500810f7000010032000408050080
:1023f00044000500810f700002003a00140005003f
:102400008502e9000000400081c04800fcff3b005d
:102410000170a000240005000004be00e9ff0700d1
:102420000003be000405be000200be00e5ff070079
:10243000844f7500000006000200be006450e100f9
:10244000050036006420e100020036000968a300a0
:1024500001003a000800be000160a0004f067800ad
:102460004f05be004f04be0000000600f0ff2f0025
:10247000f1ff2700f9ff3700889fbe008a9fbe004a
:102480008c1f7800e4ff0700ebff330003866c002d
:102490006450e100240032006420e1002700320093
:1024a0006150e100220032006120e1002100320091
:1024b0008b854200eb07b1000134b800003ab80048
:1024c0000804420089844a00013ab8000030b8008c
:1024d0008880400009014a000400330000004000e9
:1024e00081804800020149008b05e900c909dd002f
:1024f000830170000100320013002000c814de00c8
:102500004814dd004709de001200b200c808de00f2
:102510000884700085ff070001f0a1000cf0a700ff
:1025200001f0a000cdff37006120e100cfff3200b5
:102530000801be000200be00f7ff37006150e10055
:10254000fcff3a00c9ff3700889fbe008a9fbe008b
:10255000841f7800b0ff07004f007800110033009f
:10256000f0ff2f00838f6c0006003b000405650020
:102570000a00a7000800370009f0a600100020009c
:1025800008003700820f5400838f5c00030039007d
:102590001000200001003e000000200009f0a7000c
:1025a0000000ea004f05be004f04be000000e0003e
:1025b00000000600889fbe008a9fbe000082700057
:1025c0000402710004827100260032000004be0083
:1025d0000200be006011b8006b09200095022000c7
:1025e0000182cf000a0039000541b1000082cf000e
:1025f000070039000541b1000982cf00040039000d
:102600000541b1000882cf00010039000541b10049
:1026100005425200120032000a003b008281710024
:10262000610164008100d1000080d3008984d3005f
:102630000884d3008b05e8000442e800f7ff3a0065
:10264000070037000804440089844c00000048005b
:10265000818048008b05e9000442e900f9ff3a0057
:1026600032ff07004f05be004f04be000000060009
:1026700080007800010178003104e000fdff3a009d
:102680000000510000000600889fbe008104780011
:10269000194478000804e0000e00320006003700fc
:1026a000d24178000304e0000a003200d1cf1100cb
:1026b000fbff32000000e8008800fb000700070075
:1026c0000000e0000300320009017800800078007b
:1026d000f3ff37004f04be00000006000001eb00ce
:1026e000030037000201e8000404e00007003200a4
:1026f0006103b8006112b8008601420066427a00a8
:10270000814f5200f7ff3a00010037008001eb00d3
:102710000300780000000600881f7800020478009b
:1027200008017800d6010700080040004f04780037
:10273000000006000000fa00881f780000047800fe
:10274000ea8157003fb9970088007800c03821001f
:10275000070007000000e000020035008040eb00a9
:10276000017478004f0478000080fa000000060031
:102770006200fa00889fbe008a1f7800000578007a
:1027800081047800020478008300780080f92f002b
:102790000f004000ac0307009a979f00a9979f0085
:1027a0000000eb00b09f9f001885fb008a04fb002f
:1027b0000a05ea004f55de0050022000808f5400c9
:1027c0000d003200e10f55000b003a000a017800bd
:1027d000880078002f9097009f91970003000100d8
:1027e000a0979f000000e0008e0032003f98970005
:1027f0000000e800b09f9f000a044400500220003f
:10280000808f5400040032000900e000e6ff3a0027
:102810003f989700840037000000eb00909f9f00d6
:10282000809f9f00f0979f00e0979f00d0979f00a8
:10283000c0979f000700370061ad210001005000e4
:1028400000004000a1ac210061007800df989700f3
:1028500001007000d09f9f00880478000904780070
:10286000384578008a00fb0060ad21009bff07001f
:102870000000e000f0ff3a00a1c2b300814f550014
:102880000e003a00cf8897000180e900c08f9f00ba
:1028900010007800c09f9f000000e00005003d0090
:1028a0000000ea00c09f9f005f9897000020a000f2
:1028b000d09f9f000904e8000f003700c09f9f00d1
:1028c0000000eb0005003700f2ff2700820f5000e8
:1028d000020032006a01b900028040000904780059
:1028e00088047800b900fb000103b100e98f5000b3
:1028f000f5ff3600c09f9f00e0c2b300984f100064
:10290000020032000080eb0019003700a0c2b300c3
:10291000d84f100007003a00cf8897000180e900e7
:10292000c08f9f0010007800a09f9f000804e8005f
:10293000100037000000eb00a09f9f008800780087
:1029400005003700f3ff2700830f5000020032001c
:102950006a02b90004004100010478008800780090
:102960003101fb000203b100e90f5100f5ff360011
:10297000a09f9f00984478008900fb0020ac2100b4
:1029800056ff07000000e000020032000804e800e3
:10299000010037008044eb00c97f9f0080c6b30070
:1029a00080cf540004003a0098cf14000a003a0087
:1029b0006640500006003700c0c6b30080cf540008
:1029c00005003a0098cf140003003a00654040002b
:1029d000c07f9f000804e8001801fb00e3fb2f0004
:1029e0008f81410081f92f008f804000a0f92f00d6
:1029f0000f004000100007000000e00009003a004e
:102a0000e1fb2f008f804000a0f92f000f00400055
:102a1000510207000000e000020035000804e80051
:102a200061ff37000080eb004f0578004f04be00c7
:102a30000080fa0000000600889fbe008a9fbe004a
:102a4000e4c6b300844f5100be00320010003c00c9
:102a50006b425200844f51001800320005003c00c8
:102a600054c2b300844f5100f600320084c5b30055
:102a70000f00370044c6b300844f510014003200e9
:102a800065424200844f5100f1003a0010003700c7
:102a900004c7b300844f5100dd00320056003500fa
:102aa00065424200844f51005300320063424200ad
:102ab000844f5100e6003a004f0037001181e900d1
:102ac00082087800f000900012417800de003700a4
:102ad00020629000c5c6b300854f520007003a003f
:102ae0009102780064825200840878001402be00cb
:102af0004fabde00860378001400370015c7b30023
:102b0000854f520003003a00110478006802540017
:102b100005003700a5c6b300854f520006003a00f5
:102b20009104780068825400840878005403be0041
:102b30004402be00050037001182e90084087800d5
:102b400014027800cfa2de00612bb9000498be0009
:102b50000690be00a060900088c6b30088cf5000e9
:102b60000d00320028c6b30088cf500004003a00a0
:102b70000402fb00cfa2de00612bb9000800370081
:102b800048c7b30088cf50000300320066444400b9
:102b900088cf500004003a00cfa2de00612bb900bc
:102ba0000498be000690be003002be002003be00a6
:102bb000f0009000e00f5200e08f5a00e00f5b0041
:102bc000e08f5b0002003d00d4c2b3000800370074
:102bd000001290000418a30002003200b4c2b30037
:102be000030037000408a3005100320004c2b30000
:102bf00084f178004c00370020629000c5c6b30015
:102c0000854f520008003a00110578006402550013
:102c1000840878001404be006055b8000802be00a5
:102c20000a03be001400370015c7b300854f5200d9
:102c300003003a00910478006882540005003700d0
:102c4000a5c6b300854f520006003a001105780072
:102c500068025500840878005403be004402be0098
:102c6000050037001182e90084087800140278001a
:102c70008002eb006033b8000498be000690be00ee
:102c8000a060900088c6b30088cf50000d003200cd
:102c900028c6b30088cf500004003a000482fb002d
:102ca0008002eb006033b8000800370048c7b3006b
:102cb00088cf5000030032006644440088cf5000a3
:102cc00004003a008002eb006033b8000498be00b4
:102cd0000690be00801090000138a300140032005e
:102ce0003002be002003be00e00f5200e08f5a0009
:102cf000e00f5b00e08f5b000d00320081c7b30086
:102d0000814f51000300320081c5b300814f510053
:102d100007003a00f000900004c3b30084f178008b
:102d20008100e80082f178008100e80071009800dd
:102d3000f00090008181410063009800824078009b
:102d40003e003700a0619000c4c6b3001181e900c5
:102d500084cf5100220032000a003c00644252003d
:102d600084cf51002500320004c2e80084cf510016
:102d7000130032006842520084cf51001e003a0016
:102d80000a00370044c7b30084cf51001b00320053
:102d90006642420084cf510018003200694252005e
:102da00084cf510014003a000500370082087800f3
:102db0009200780040589000804878002c0037003e
:102dc0008208780092007800600a9000cfa2de00ae
:102dd000612bb9008498be008690be0024003700a5
:102de000820878009200780060099000cf91de00a0
:102df0008288be001e0037001181e9008208780039
:102e00009200780060089000800878001800370071
:102e10001181e9008208780012027800cfa2de005a
:102e2000612bb9000498be000690be00f00090002f
:102e3000818141006300980081c7b300170007003b
:102e40000b003700f000900082f178000600370098
:102e5000f0009000818141000204e00001003a008e
:102e600052c2b300824978008100e80071009800e6
:102e70000000eb004f05be004f04be00000006003e
:102e80008001780002003700b15978000201e900a2
:102e90000200e000fcff3a0000000600fc8747004b
:102ea000889fbe008a9fbe008c9fbe008e1f780048
:102eb0000006780080c5b30080cf50000a003200c1
:102ec0007740400080cf50000a0032006940400047
:102ed00080cf50000b00320010ab210080bf9f005c
:102ee000ae0020000a00370002aa210082bf9f0026
:102ef0000600370013ab210083bf9f008e00200027
:102f00000300370014ab210084bf9f000e01200096
:102f10003c02be002c03be000605be000404be0039
:102f200040c6b30080cf500003003200654040002f
:102f300080cf50000b003a00e00f5200e08f5a00a3
:102f4000e00f5b00e08f5b0006003d006000b80012
:102f50006011b8000404500085845800060559002b
:102f600087855900e80f5700040032004000200018
:102f7000f00f570038003a00010037003000200001
:102f8000e00f5400e08f5c00e00f5d00e08f5d001b
:102f900004003a00dc0890008d0120000100e000f0
:102fa000060032008e00e900888060008fba97002a
:102fb000e5c07800f1ef9f007d01200080007800df
:102fc0008100e900050033008b05d1000a85d3009c
:102fd0008984d3000884d300f9ff3700089ebe001f
:102fe0000a96be00120037008d06e9008e00e90047
:102ff000848060000fb99700e2c1780082fd2f0045
:103000000f01410003f17e00800078008100e9009b
:10301000050033008783d1000683d3008582d30067
:103020000482d300f9ff3700049ebe000696be005e
:103030003c02be002c03be00e00f5200e08f5a009d
:10304000e00f5b00e08f5b008b0034000d00e000c0
:10305000e5ff3c00880037002c60900081c6b3007b
:10306000814f50000b00320006003c000004e000dd
:1030700008003200e6c05000814f50004e003a0078
:1030800004003700c1c6b300814f50004a003a0027
:10309000210037000800e00004003a005c089000be
:1030a0008d0120000000e000060032001100090040
:1030b0000e84d8000fb99700e2c07800f1ef9f00ae
:1030c0007d012000110009000e84d8000a0037009d
:1030d000110009000e04d8008d06e9000e81b90028
:1030e000020454008fb8970061417c0081fd2f00dd
:1030f0008f80400082f07e00000478000800e0002d
:10310000020032000d00e000f1ff3c00cfc4de0001
:10311000614db90025003700e00f5400e08f5c00de
:1031200004003a005c0890008d0120000000e000df
:10313000070032006171b9000800be00630107009a
:103140008fb99700e3417800f3ef9f007d012000e5
:103150006171b9000800be004c0107000b00370088
:103160006171b9000800be00390107008d06e90051
:1031700000f1b900020454000fba9700e4427c0049
:1031800084fd2f000f02420005f27e000004be0005
:10319000e00f5000e08f5800020032000d00e00008
:1031a000efff3c004fcdde008a057800089ebe0090
:1031b0000a96be0030003700e00f5400e08f5c003c
:1031c000e00f5d00e08f5d0004003a005c089000b5
:1031d0008d0120000000e000090032006172b9009a
:1031e000612bb9000800be000a01be00da01070029
:1031f0000fba970064427800f4ef9f007d01200031
:103200006172b900612bb9000800be000a01be005e
:10321000ca0107000d0037006172b900612bb900c7
:103220000800be000a01be00cf0107008d06e900bc
:1032300000f2b900040454008fba970065427c0084
:1032400085fd2f008f82420084f27e00009ebe002a
:103250000296be003c04be002c05be00e00f5400e8
:10326000e08f5c00e00f5d00e08f5d000200340045
:103270000d00e000e8ff3c00e80f570010003a00a6
:103280000c1090000038a3000d003200f78f56009c
:1032900006003e0085fd2f008f824200e5c07e00c3
:1032a00000c3b30080cf5000050032008d06e90056
:1032b00002c3b30081fd2f008f80400082f07e00aa
:1032c00078811600120e98006c00900083fd2f008c
:1032d0008f8141008d804100e9fe07001c089000ad
:1032e000dc089000810f500006003d000080500077
:1032f000000e98000c1090000040a10000169800ed
:103300000f0037000100e0000d003d008c10900020
:10331000f4806000f08f500009003a007c099000b2
:10332000fc009000810051000c0990008280500048
:10333000008050004240a90001003400000e9800b7
:103340004f0778004f06be004f05be004f04be0079
:10335000cf01b100000006000400fa00889fbe0003
:103360008a9fbe008c1f7800000478000106780058
:10337000f80d9000780090008085550008089000b6
:103380008085550018089000808555002808900019
:1033900080855500380890008085550048089000c9
:1033a000808555000002220090bf9f00000323008b
:1033b000a0bf9f00081090000028a30015003a004d
:1033c0000b00e000130034000b0578008a0478003d
:1033d000e20f55000100360029002000c8019000ce
:1033e00009017800ee8057005800900003000100aa
:1033f000500498000000e0008c0032006808900043
:1034000009004000600c9800090555004240a900e1
:10341000eeff3c00780190000200e0000c00340058
:10342000c80190008c007800580090000300010053
:10343000500498008080eb000000e0007c00320027
:10344000e80890007800900000804000600c980030
:10345000880c90000900e000110034000905780094
:10346000e28f5400010036002a002000c8019000bd
:103470000a017800ec80570058009000030001001a
:10348000500498000000e0006800320068089000d6
:103490000a004000600c98008a845400edff370059
:1034a000180990000200e0000c003400c8019000f0
:1034b000e8009000580090000300010050049800bc
:1034c0008080eb000000e00059003200e808900026
:1034d0001808900000804000600c9800a80c900034
:1034e0000900e0001100340009057800e28f540063
:1034f000010036002a002000c80190000a0178006f
:10350000ec80570058009000030001005004980020
:103510000000e00045003200680890000a0040000a
:10352000600c98008a845400edff37003809900041
:103530000200e0000e003400e8009000180890003f
:1035400080804000c80190005800900003000100f6
:10355000500498008080eb000000e000340032004e
:10356000e80890003808900000804000600c980047
:10357000c80c90000900e000110034000905780033
:10358000e28f5400010036002a002000c80190009c
:103590000a017800ec8057005800900003000100f9
:1035a000500498000000e0002000320068089000fd
:1035b0000a004000600c98008a845400edff370038
:1035c000081090008000eb000028a30018003200d3
:1035d0000b00e000160034008b0478000905780029
:1035e000e28f5400010036002a002000c80190003c
:1035f0000a017800ee805700580090000300010097
:10360000500498000000e0000800320068089000b4
:103610000a004000600c98008a8454004240a900cf
:10362000eeff3c008000eb00010037008080eb00e3
:10363000010078004f0678004f05be004f04be0021
:103640000080fa0000000600010878000000060073
:10365000839f68000100e00002003d006000100050
:10366000e08018000300e00002003d00600111004e
:10367000e0811900050007004f00e00002003b0058
:1036800060001000e0801800000006006022b80012
:10369000060220000000d0008180d2000482d20007
:1036a0008582d2000000a0000202520083825a00ec
:1036b000030031000202420083824a000000a100a0
:1036c0000603e900f3ff3a0000000600efff0700e1
:1036d0000400be0000000600889fbe008a9fbe0056
:1036e00030044200b0844a0030054b0090854b0006
:1036f0006000b1000898be000a90be000440e100de
:1037000005c8e10006d0e10007d8e1000200310061
:10371000680040001008e8004f05be004f04be00de
:1037200000000600889fbe008a9fbe003004be00d5
:103730002005be000418540005985c0006185d00c2
:1037400007985d00110020000440e10005c8e10079
:1037500006d0e10007d8e100010039008000eb004d
:10376000108810004f05be004f04be000000060088
:103770001200fa00889fbe008a9fbe008c9fbe0088
:10378000e0b79f00f1b79f0082bf9f0093bf9f00eb
:103790000605be000404be000000eb00d0b79f0089
:1037a000c0b79f00b0b79f00a0b79f0090b79f0021
:1037b0000006eb005fb19700cfb097008201410097
:1037c0003fb097000200e00004003d003700070012
:1037d0007e805700c0ff070003003700330007005a
:1037e0007e805700cfff0700dfb697000d00e00096
:1037f0000c0035006fb29700ffb297000fbb970027
:103800009fbb970010002000010020006011b8004d
:1038100000027200818272000203730083837300ce
:103820001b0007000c06e80001042000810f560071
:10383000e0ff3a000d00e00004003d000802be0079
:103840000a03be007e805700a3ff07005fa8970011
:103850000000e00005003a001fb29700afb29700e9
:103860003fb39700cfb39700090007006fb09700f0
:10387000ffb097000fb997009fb997004f06be00a1
:103880004f05be004f04be000080fa000000060095
:103890000100070000000600a4b79f00b5b79f0015
:1038a000c6b79f00d7b79f00000006004f09de0093
:1038b00082817100b3b79f004f01de00818040001c
:1038c00082807000a1b79f008fb097004f09de0083
:1038d000000040000200700090b79f007fa8970092
:1038e0004f01de00818040008280700081b79f0020
:1038f0000d0007004f3ade00000040000400700099
:10390000f0af9f00080007000402420085824a00d1
:1039100006034b0087834b00dfff07000802be0051
:103920000a03be00000006002fb29700bfb2970046
:103930004fb39700dfb3970000000600881f7800a0
:1039400018002000881f780089ff07008f87e90092
:103950004f04780000000600801feb0084ff070082
:103960008f87e90000000600889fbe008a9fbe0086
:10397000e00f5000e08f5800e00f5900e08f590031
:103980000c003d006044b8006055b80000005400d1
:1039900081805c0002015d0083815d0018002000d1
:1039a0001500070008003d00180007000004eb00a8
:1039b000050037000004eb000f00070002003d0087
:1039c0001200070018002000dcff07000800e000dc
:1039d000060032006022b8006033b80000005200d8
:1039e00081805a0002015b0083815b004f05be00ad
:1039f0004f04be0000000600e00f5200e08f5a00a6
:103a0000e00f5b00e08f5b00000006006044b80040
:103a10006055b8000402540085825c0006035d0016
:103a200087835d0000000600889fbe008a9fbe005d
:103a30008c1f7800e00f5000e08f5800e00f590015
:103a4000e08f59000d003d006044b8006055b8009b
:103a50000000540081805c0002015d0083815d00f4
:103a60001c0020000820e10009a8e1000ab0e100e4
:103a70000bb8e1000d003d00080037000006eb0028
:103a8000e00f5200e08f5a00e00f5b00e08f5b0018
:103a900006003d006044b8006055b80004025400c0
:103aa00085825c0006035d0087835d00aaff070036
:103ab0000c00e000060032006022b8006033b8005d
:103ac0000000520081805a0002015b0083815b008c
:103ad0004f0678004f05be004f04be0000000600f0
:020000040000fa
:103ae000415400002b4300004950000053450000a2
:103af0004e4400003d3000002c250000640d000005
:103b00000a00000045630000634c00006162000091
:103b1000004c000069670000687400002f4100003d
:103b200044430000313a000020250000640d0000ed
:103b30000a0000004f4b00000d0a00000043000087
:103b40006f6d00006d6100006e6400002065000074
:103b5000786500006375000074650000640d000066
:103b60000a00000045520000524f0000520d0000b4
:103b70000a0000003e3e00002000000072650000c8
:103b800061640000790d00000a0000005769000020
:103b90004669000020520000656100006479000061
:103ba0000d0a00000057000069460000692000006f
:103bb00045530000505f0000535400004154000082
:103bc000555300005f410000545f00004357000060
:103bd0004d4f0000444500000d0a00000057000052
:103be000694600006920000045530000505f000056
:103bf0005354000041540000555300005f41000041
:103c0000545f000043490000504d0000555800002b
:103c10000d0a00000057000049460000492000003e
:103c200044490000534300004f4e00004e45000041
:103c3000435400000d0a00000057000069460000d0
:103c40006920000044690000736300006f6e00008b
:103c50006e65000063740000656400000d0a0000da
:103c6000005700004946000049200000434f000073
:103c70004e4e00004543000054450000440d000036
:103c80000a00000057690000466900002043000058
:103c90006f6e00006e6500006374000065640000d4
:103ca0000d0a0000005700004946000049200000ae
:103cb000474f000054200000495000000d0a00004a
:103cc000005700006946000069200000476f0000af
:103cd000742000004950000020410000646400008e
:103ce00072650000737300000d0a000000300000d0
:103cf0002c4300004f4e00004e450000435400008e
:103d00000d0a0000004100004c5200004541000037
:103d100044590000204300004f4e00004e45000073
:103d200043540000454400000d0a00000043000019
:103d30006f6e00006e650000637400006564000033
:103d4000207400006f2000004d510000545400000a
:103d5000207300006572000076650000720d00009f
:103d60000a0000004d51000054540000202d0000b6
:103d70002d3e00002044000041540000410d000091
:103d80000a000000534500004e440000204f000090
:103d90004b0d00000a00000053770000697400001a
:103da0006368000065640000207400006f2000005c
:103db0004d5100005454000020500000726f00006c
:103dc000746f0000636f00006c0d00000a000000bb
:103dd0004d71000074740000506900006e670000af
:103de000002b000049500000442c0000004500005a
:103df00063630000006c000065640000302d00006b
:103e00006f6e0000006c000065640000302d000043
:103e10006f660000660000006c6500006431000001
:103e20002d6f00006e0000006c6500006431000022
:103e30002d6f000066660000006c000065640000e5
:103e4000322d00006f6e0000006c00006564000001
:103e5000322d00006f660000660000006c650000f7
:103e6000643300002d6f00006e0000006c650000e0
:103e7000643300002d6f00006666000000620000e1
:103e800065650000700000004154000020500000f3
:103e9000726f00006365000073730000696e0000bc
:103ea000672e00002e2e00000d0a000000410000c9
:103eb00054200000546900006d6500006f7500001b
:103ec000742100002e0d00000a0000005265000061
:103ed0007374000061720000746900006e67000076
:103ee0002057000069460000692e00002e2e0000b9
:103ef0000d0a000000410000542b00005253000046
:103f0000540d00000a0000005365000074740000a6
:103f1000696e0000672000005769000046690000d4
:103f2000202d00003e200000435700004d4f0000b0
:103f3000444500003d3300002e2e00002e0d0000f1
:103f40000a000000415400002b430000574d0000c0
:103f50004f440000453d0000330d00000a00000002
:103f60005365000074740000696e00006720000053
:103f70005769000046690000202d00003e20000027
:103f800043490000504d0000555800003d310000ed
:103f90002e2e00002e0d00000a00000041540000eb
:103fa0002b430000495000004d550000583d0000d3
:103fb000310d00000a000000546800006520000078
:103fc0005769000046690000206d00006f64000022
:103fd000756c000065200000697300002066000019
:103fe000756c00006c790000206900006e690000ab
:103ff00074690000616c0000697300006564000072
:10400000210d00000a0000005761000069740000e3
:10401000696e000067200000666f000072200000db
:10402000415000002e2e00002e0d00000a0000005e
:10403000546f00006f2000006c6f00006e6700007e
:104040002077000061690000746900006e6700005d
:10405000206600006f72000020410000502c00001c
:10406000205200006573000074610000727400004b
:104070000d0a00000057000061690000746900002b
:104080006e670000206600006f720000204900008b
:10409000502000006164000064720000657300003d
:1040a000732e00002e2e00000d0a000000540000a8
:1040b0006f6f0000206c00006f6e00006720000032
:1040c0007761000069740000696e000067200000dd
:1040d0004950000020610000646400007265000027
:1040e000737300002c200000526500007374000000
:1040f00061720000740d00000a000000436f0000b0
:104100006e6e000065630000746900006e67000059
:10411000207400006f2000004d5100005454000036
:10412000207300006572000076650000722e0000aa
:104130002e2e00000d0a000000410000542b00004c
:104140004349000050530000544100005254000005
:104150003d3000002c22000054430000502200009b
:104160002c22000031390000382e000034310000cc
:104170002e330000302e00003234000031220000c7
:104180002c31000038380000330d00000a00000018
:104190004d51000054540000206300006f6e000079
:1041a0006e65000063740000696e0000672e0000f9
:1041b0002e2e00000d0a0000004d0000515400009a
:1041c00054200000436f00006e6e00006563000025
:1041d00074650000642e00002e2e00000d0a000001
:1041e000000d00000a4d0000515400005420000052
:1041f000436c0000696500006e74000020520000ee
:10420000756e00006e6900006e6700002e2e0000c3
:104210002e0d00000a0000005769000046690000ea
:10422000205700006f7200006b65000072000000f4
:1042300070750000626c0000697300006865000022
:10424000720000002b490000504400002c000000c8
:04425000000000006a
:020000040000fa
:104254000200fa00000f7800909980000000e0004e
:104264001400320081998000e02a2100008040007f
:10427400904078001e007800014878008099800002
:104284000000e8008099880081998000f0072000f0
:10429400808f5000020036000000eb0080998800f7
:1042a400909980000000e900909988001000200097
:1042b400010037000000eb000080fa000000060057
:1042c4000200fa00000f7800c0b980000000e0008e
:1042d40014003200b1b98000403321000080400056
:1042e400904078001e00780001487800b0b9800042
:1042f4000000e800b0b98800b1b98000f03f2000a8
:10430400808f5000020036000000eb00b0b9880036
:10431400c0b980000000e900c0b988001000200086
:10432400010037000000eb000080fa0000000600e6
:104334000200fa000000eb00000f780005003700cf
:10434400e02a21001e0040008040eb000148780074
:104354001e0fe800f00720009e007800808f5000b8
:10436400f7ff34000000eb00809988000000eb00a8
:10437400709988000000eb00909988000080fa0092
:10438400000006000200fa000000eb00000f7800b5
:1043940005003700403321001e0040008040eb0040
:1043a400014878001e0fe800f03f20009e007800ce
:1043b400808f5000f7ff34000000eb00b0b9880094
:1043c4000000eb00a0b988000000eb00c0b9880031
:1043d4000080fa00000006000800fa002007980098
:1043e4003107980014c0b3002e019000be01900064
:1043f4000058220001002000800f5100818f5900d5
:1044040001003e000042eb00044f78005f140700f7
:104414002135800000fe2f0000806000c000b30042
:1044240020358800c982a80061368000f00f2e0074
:104434008080600000302000010070006036880039
:10444400c9a2a9005a14070021e2a80021a2a900c8
:104454002182a9002162a90001118000f0cf2f0060
:10446400008060000011880020e2a90020c2a90099
:1044740020a2a9002082a9009e40780061c06000ab
:104484000080fb00610060004300dd00011180003a
:104494000130a100010070000011880001118000aa
:1044a40090ff2f0000806000001188002002a90006
:1044b4001e4078000004e000110032002e0190003c
:1044c400be0190004218dd00ce10de0081007000b5
:1044d4004210dd0092f707000001be0000402200f8
:1044e40041b724002ff707000200200003f823003f
:1044f400cef607006ff707000000780010003700c1
:104504002e019000be0190004418dd00cc10de00a6
:10451400810070004410dd0081f707000001be0037
:104524000040220041b724001ef7070002002000cb
:1045340003f82300bdf607005ef7070000007800cb
:10454400401188002342a8002362a90023e2a900a5
:1045540023a2a90022e2a90022c2a9009560a80012
:104564009580a9002342a800100280004500de00c7
:10457400674060000080fb00100798001102800073
:10458400000e2000010070001002880000000000ee
:104594000204200041832000408720007c12070091
:1045a400022020003188200040a820007812070053
:1045b4001e00900000407800674060000080fb000f
:1045c400670060004500dd0012028000f1f12f0059
:1045d40081006100010070001002880000000000ea
:1045e4000080fa00000006000800fa002007980086
:1045f4003107980014c0b3002e019000be01900052
:104604000058220001002000800f5100818f5900c2
:1046140001003e000042eb00044f7800db1307006a
:104624003135800000fe2f0000806000e000b30000
:1046340030358800c9c2a80071368000f00f2e0002
:1046440080806000005020000100700070368800f7
:10465400c9e2a900d613070031e2a80031a2a900db
:104664003182a9003162a90081118000f0cf2f00ae
:10467400008060008011880030e2a90030c2a900e7
:1046840030a2a9003082a9009e40780061c0600079
:104694000080fb00610060004300dd0081118000a8
:1046a4000130a10001007000801188008111800098
:1046b40090ff2f0000806000801188003002a90064
:1046c4001e4078000004e000110032002e0190002a
:1046d400be0190004218dd00ce10de0081007000a3
:1046e4004210dd000ef707000001be00004022006a
:1046f40041b72400abf607000200200003f82300b2
:104704004af60700ebf607000000780010003700b7
:104714002e019000be0190004418dd00cc10de0094
:10472400810070004410dd00fdf607000001be00aa
:104734000040220041b724009af60700020020003e
:1047440003f8230039f60700daf6070000007800c2
:10475400c01188003342a8003362a90033e2a900e3
:1047640033a2a90032e2a90032c2a90097c0a8006e
:1047740097e0a9003342a800100280004500de0043
:10478400674060000080fb00100798001102800061
:10479400000e2000010070001002880000000000dc
:1047a4000240200021a9200020e92000f811070080
:1047b4000240200011ea2000202a2100f411070001
:1047c4001e00900000407800674060000080fb00fd
:1047d400670060004500dd0012028000f1f12f0047
:1047e40081006100010070001002880000000000d8
:1047f4000080fa00000006000800fa003007980064
:104804000000eb00000f7800be0090001107980034
:10481400040037001e0fe8001e0090000000e800ae
:10482400100798001e009000104078000004e0007b
:10483400f8ff3a005054800001202000008050000e
:104844009e0f500002003e000000eb002d003700d8
:10485400be009000110798001e003700100280006f
:104864004500de00674060000080fb0020079800e0
:1048740011028000000e2000010070001002880068
:10488400000000001e009000104078009e00900080
:104894008100e800110798008040780040a82000bb
:1048a400d31107002e00900000407800674060009c
:1048b4000080fb00670060004500dd0012028000fc
:1048c400f1f12f00810061000100700010028800e6
:1048d400000000001e009000104078000004e0007a
:1048e400deff3a00a1048000000021000080600087
:1048f4000000e00002003a008580a8009580a8002e
:104904001e0078000080fa00000006000800fa008b
:10491400300798000000eb00000f7800be00900004
:1049240011079800040037001e0fe8001e009000d5
:104934000000e800100798001e0090001040780066
:104944000004e000f8ff3a005054800001202000e9
:10495400008050009e0f500021003e000000eb003c
:104964002c003700100280004500de006740600024
:104974000080fb002007980011028000000e200038
:104984000100700010028800000000003e0090004a
:1049940010407800be0090008100e80031079800c4
:1049a40080407800202a2100911107002e009000f9
:1049b40000407800674060000080fb0067006000f2
:1049c4004500dd0012028000f1f12f00810061003a
:1049d4000100700010028800000000000100370090
:1049e400000000003e009000104078000004e00049
:1049f400dcff3a00b1048000000028000080600061
:104a04000000e00002003a0087e0a80097e0a80058
:104a14001e0078000080fa00000006000800fa007a
:104a2400200798003107980050548000012020008e
:104a3400808050003e009000808f500002003e00b5
:104a44000000eb002d0037000000eb00000f7800a1
:104a54001e003700100280004500de006740600041
:104a64000080fb001007980011028000000e200057
:104a74000100700010028800000000001e00780091
:104a8400ae00900000804000104078008040780024
:104a940040a82000561107001e0090000040780036
:104aa400674060000080fb00670060004500dd0097
:104ab40012028000f1f12f008100610001007000fa
:104ac40010028800000000001e0fe8009e0078001d
:104ad4003e009000808f5000deff3900a10480006a
:104ae40000002100008060000000e00002003a00a5
:104af4008580a8009580a8003e0090000080fa0000
:104b0400000006000800fa00300798003e009000fc
:104b140090009000505480000220200000005100ba
:104b2400808f5000020039000000eb003300370092
:104b34003e00900090007800110798000000eb0000
:104b4400000f78001f003700100280004500de00cf
:104b5400674060000080fb0020079800110280007d
:104b6400000e200001007000100288000000000008
:104b74001e009000104078009e0090008100e80024
:104b8400110798008040780040a820001811070001
:104b94002e00900000407800674060000080fb0019
:104ba400670060004500dd0012028000f1f12f0073
:104bb4008100610001007000100288000000000004
:104bc4001e0fe8009e0078003e0090001000900048
:104bd400808f5000dcff3900a10480000000210018
:104be400008060000000e00002003a008580a80018
:104bf4009580a8003e009000100090000080fa000c
:104c0400000006000400fa00204798005154800078
:104c1400f01f2000808f5000020036000000eb00df
:104c240021003700100280004500de00674060006c
:104c34000080fb00000f780011028000000e2000ad
:104c4400010070001002880000000000ae409000d7
:104c540040a82000e61007001e00780000407800fd
:104c6400674060000080fb00670060004500dd00d5
:104c740012028000f1f12f00810061000100700038
:104c84001002880000000000a10480000000210040
:104c9400008060000000e00002003a008580a80067
:104ca4009580a800100020000080fa000000060093
:104cb4000800fa002007980031079800409580000a
:104cc40001402000808050003e009000808f500002
:104cd40002003e000000eb002d0037000000eb0056
:104ce400000f78001e003700100280004500de002f
:104cf400674060000080fb001007980011028000ec
:104d0400000e200001007000100288000000000066
:104d14001e007800ae009000008040001040780033
:104d240080407800202a2100b11007001e00900066
:104d340000407800674060000080fb00670060006e
:104d44004500dd0012028000f1f12f0081006100b6
:104d54000100700010028800000000001e0fe8002f
:104d64009e0078003e009000808f5000deff3900e6
:104d7400b104800000002800008060000000e00012
:104d840002003a0087e0a80097e0a8003e009000e7
:104d94000080fa00000006000800fa0030079800be
:104da4003e0090009000900040958000024020005a
:104db40000005100808f5000020039000000eb0019
:104dc400330037003e0090009000780011079800ef
:104dd4000000eb00000f78001f0037001002800075
:104de4004500de00674060000080fb00200798005b
:104df40011028000000e20000100700010028800e3
:104e0400000000001e009000104078009e009000fa
:104e14008100e8001107980080407800202a2100d2
:104e2400731007002e009000004078006740600077
:104e34000080fb00670060004500dd001202800076
:104e4400f1f12f0081006100010070001002880060
:104e5400000000001e0fe8009e0078003e00900055
:104e640010009000808f5000dcff3900b1048000f6
:104e740000002800008060000000e00002003a000a
:104e840087e0a80097e0a8003e0090001000900082
:104e94000080fa00000006000400fa002047980091
:104ea40041958000f03f2000808f500002003600c2
:104eb4000000eb0021003700100280004500de00f6
:104ec400674060000080fb00000f78001102800042
:104ed400000e200001007000100288000000000095
:104ee400ae409000202a2100411007001e007800e7
:104ef40000407800674060000080fb0067006000ad
:104f04004500dd0012028000f1f12f0081006100f4
:104f1400010070001002880000000000b10480004d
:104f240000002800008060000000e00002003a0059
:104f340087e0a80097e0a800100020000080fa0095
:104f4400000006000000fa00000000005054800039
:104f54000000e000fdff3a00111180000020200055
:104f6400008060000000e000f8ff3a000080fa00d2
:104f7400000006000000fa000000000040958000d8
:104f84000000e000fdff3a009111800000202000a5
:104f9400008060000000e000f8ff3a000080fa00a2
:104fa400000006000200fa00000f7800e5ff070089
:104fb4000b003700000000001111800000202000c9
:104fc400008060000000e000fbff3a001e00780053
:104fd400104078000000fb00201188001e0fe8003c
:104fe4001e007800104078000004e000f1ff3a0051
:104ff4000080fa00000006000200fa00000f7800aa
:10500400dcff07000b003700000000009111800056
:1050140000202000008060000000e000fbff3a0058
:105024001e007800104078000000fb00a0118800ea
:105034001e0fe8001e007800104078000004e00015
:10504400f1ff3a000080fa00000006000200fa00b6
:10505400004f7800bbff07001e80fb002011880072
:105064000080fa00000006000200fa00004f7800f9
:10507400c0ff07001e80fb00a01188000080fa001a
:10508400000006000600fa001007980021079800a7
:10509400acff07000000eb00000f78000d003700a4
:1050a400000000001111800000202000008060003a
:1050b4000000e000fbff3a001e0078009e00900014
:1050c40000804000104078000080fb002011880020
:1050d4001e0fe8009e0078002e009000808f500084
:1050e400efff39000080fa00000006000600fa0015
:1050f40010079800210798009eff07000000eb00ae
:10510400000f78000d0037000000000091118000ae
:1051140000202000008060000000e000fbff3a0057
:105124001e0078009e00900000804000104078002f
:105134000080fb00a01188001e0fe8009e0078008c
:105144002e009000808f5000efff39000080fa009d
:10515400000006000000fa001011800062006000e8
:105164000000e000020032002222a9000100370002
:105174000000000010118000610060000000e000e9
:10518400fcff320030118000004078000080fa00fb
:10519400000006000000fa00901180006200600028
:1051a4000000e000020032003222a90001003700b2
:1051b4000000000090118000610060000000e00029
:1051c400fcff3200b0118000004078000080fa003b
:1051d400000006000400fa00100798002016800062
:1051e4006400600000f0a7000000ea000000e9008d
:1051f4004f00de00004078000080fb00610060008a
:105204004200dd0022168000b1ff2f008100610002
:1052140001007000201688000080fa0000000600db
:105224006400fa0020e798000040eb00004f78008b
:105234001e80fb000000470001c1b300114098002c
:105244001e4fe8001e80fb00000047008040eb007a
:10525400114098001e4fe8001e80fb00000047002c
:105264008040eb00114098001e4fe8001e80fb00b8
:105274000000470041c0b300114098001e4fe800f1
:105284001e80fb0000004700d1c4b3001140980009
:105294001e4fe8001e80fb000000470011c5b3004c
:1052a400114098001e4fe8001e80fb0000004700dc
:1052b40041c5b300114098001e4fe8001e80fb005a
:1052c4000000470041c5b300114098001e4fe8009c
:1052d4001e80fb000000470041c0b300114098004d
:1052e4001e4fe8001e80fb000000470021c0b300f1
:1052f400114098001e4fe8001e80fb00000047008c
:105304008040eb00114098001e4fe8001e80fb0017
:1053140000004700a1c0b300114098001e4fe800f0
:105324001e80fb00000047008040eb001140980005
:105334001e4fe8001e80fb000000470061c0b30060
:10534400114098001e4fe8001e80fb00000047003b
:1053540051c4b300114098001e4fe8001e80fb00aa
:105364000000470031c6b300114098001e4fe8000a
:105374001e80fb000000470031c6b30011409800b6
:105384001e4fe8001e80fb0000004700c1c4b300ac
:10539400114098001e4fe8001e80fb0000004700eb
:1053a40011c6b300114098001e4fe8001e80fb0098
:1053b4000000470021c6b300114098001e4fe800ca
:1053c4001ec0e900204798002ee090000004e00091
:1053d4000c003a009e80fb00100420000e004000e8
:1053e400811f780001d72900811f7800d0f40700bd
:1053f400e4875700100420000e00400043fd07001e
:10540400030037009e80fb000e00e80028fe070022
:105414000080fa00000006006200fa000040eb0081
:10542400004f78001e80fb000000470021c8b30035
:10543400114098001e4fe8001e80fb00000047004a
:105444008040eb00114098001e4fe8001e80fb00d6
:1054540000004700a1cab300114098001e4fe800a5
:105464001e80fb0000004700b1cbb3001140980040
:105474001e4fe8001e80fb00000047008040eb0048
:10548400114098001e4fe8001e80fb0000004700fa
:1054940031c0b300114098001e4fe8001e80fb008d
:1054a4000000470051c4b300114098001e4fe800ab
:1054b4001e80fb000000470031c6b3001140980075
:1054c4001e4fe8001e80fb000000470031c6b300f9
:1054d400114098001e4fe8001e80fb0000004700aa
:1054e4008040eb00114098001e4fe8001ec0e90008
:1054f400204798009e80fb00100420000e0040000e
:10550400811f780001d72900811f780088f40700e3
:10551400e4875700100420000e004000fbfc070045
:1055240000402d0001032000381007009e80fb007e
:105534000e00e800defd07000080fa00000006000f
:105544008600fa00881f7800c0ad21001040780062
:10555400e14f5000040032004101200030c0b3008c
:1055640072080700630037000040eb00004f78002a
:1055740020d8290010079800808120009000900016
:10558400600420000e004000811f780091d829009b
:10559400811f780066f40700e48757006004200048
:1055a4000e004000200798001e80fb00000047000a
:1055b40001c3b300614098001e4fe8001e80fb0049
:1055c4000000470080c0eb00614098001e4fe800d7
:1055d4001e80fb00000047008040eb006140980003
:1055e4001e4fe8001e84fb001e0090001ff40700fd
:1055f4008040780008004700614098001e4fe80092
:105604000040eb00104798000c0037001e80fb00a0
:105614009e4090008180fb001e01900081004100ab
:105624009140780000004700614098001e4fe80058
:105634001e4090000040e800104798001e40900073
:105644000084fb001e00900008f40700800f540043
:10565400eeff39000040eb00104798000c003700c3
:105664001e80fb009e4090008180fb002e01900074
:10567400810041009140780000004700614098009b
:105684001e4fe8001e4090000040e80010479800bc
:105694001e4090000084fb002e009000f3f30700ee
:1056a400800f5400eeff39001ec0e90070479800d7
:1056b4009e80fb00600620000e004000811f7800e1
:1056c40001d72900811f780019f40700e4875700e7
:1056d400600620000e0040008cfc070000402d00f6
:1056e40001032000c90f07009e80fb0066004700ed
:1056f4006ffd07004f0478000080fa0000000600e8
:105704000200fa00000f78008dff07000080fa0005
:10571400000006000400fa00100798009e009000a4
:10572400010f78001e80e800f6fc07000080fa00f4
:10573400000006000e00fa0060079800ee009000da
:10574400110798001e009000900090002107980017
:105754001e009000a0009000310798000040eb006c
:10576400004f780002c8bf00e14f50001a003a0011
:10577400be0090002e009000a2d929003005070039
:10578400e10f4000060032000268ef0010c0b300d1
:10579400004f7800f0d9290017fc07000e003700ed
:1057a400be0090002e00900022db29002405070093
:1057b400e10f4000040032000268ef002e00900068
:1057c4000dfc070004003700a0db29000afc0700d9
:1057d4002e00900008fc070006c8bf000004e0008b
:1057e4000b003a00be0090002e009000e2db29007e
:1057f40013050700e10f40001a00320010c0b30087
:1058040006e8b70060dc2900fbfb07001500370041
:105814001e4078000004e0000800320006c8bf0003
:10582400e14f500005003a0020c0b30006e8b7007d
:1058340030dd2900f0fb07000a0037001e40780025
:105844000004e0000700320006c8bf00e24f500029
:1058540004003a0030c0b30006e8b700f0de2900c7
:10586400e5fb0700be0090002e009000b2e0290086
:10587400f3040700e10f4000040032000868ef0061
:10588400d0e12900dcfb070015003700be009000c2
:105894002e00900012e32900e9040700e10f400004
:1058a4000500320010c0b30008e8b70020e4290066
:1058b400d1fb07000a003700be0090002e009000c4
:1058c40032e52900de040700e10f40000400320045
:1058d40020c0b30008e8b70010e62900c6fb0700a3
:1058e40000c8bf000004e00010003a00be009000b1
:1058f4002e00900072e72900d1040700e10f400058
:1059040006003a00be0090002e00900032e8290004
:10591400cb040700e10f40000400320010c0b300c4
:1059240000e8b70070e92900b3fb0700c0ad21000f
:10593400104078000004e00024003a00d0ad2100bb
:10594400104078000004e0000b003a001e4078008c
:105954000004e0001d003200d0ad210011c0b300ee
:105964000148780020eb2900a3fb070010c0b30016
:105974002bfe070015003700d0ad21001040780041
:10598400e14f500011003a00be0090002e0090003c
:1059940022ec2900aa040700e10f40000b003200aa
:1059a400c0ad210011c0b30001487800c0ec29004b
:1059b40091fb070098fe0700c18e220080ee2900ab
:1059c40026090700c0b822005101070000c8bf0023
:1059d400e14f500051003a00be0090002e009000ac
:1059e40012ef290096040700e10f40004b0032003b
:1059f400be0090002e00900072ef29009004070072
:105a0400400798004e009000e10f40004300320030
:105a1400ae0090004e0090000080400050079800b7
:105a2400b1ef29005e00900016f307000000e000cb
:105a340002003200c442a9003800370031f02900c6
:105a44005e0090000ff307000000e0000200320047
:105a5400c442a80031003700c1f029005e00900064
:105a640008f307000000e00002003200c482a9002d
:105a74002a00370041f129005e00900001f307007d
:105a84000000e00002003200c482a80023003700b6
:105a9400d1f129005e009000faf207000000e00056
:105aa40002003200cc42a9001c00370051f2290048
:105ab4005e009000f3f207000000e00002003200f4
:105ac400cc42a80015003700e1f229005e009000e6
:105ad400ecf207000000e00002003200cc62a900f2
:105ae4000e00370061f329005e009000e5f2070024
:105af4000000e00002003200cc62a800070037007a
:105b0400f1f329005e009000def207000000e000df
:105b14000200320040062000e80c07000080fa0072
:105b2400000006000600fa0020079800ae0090006e
:105b3400010f78001e0078001000900010079800f4
:105b440002c8bf00e14f500024003a0040f429008d
:105b540029fb07005140800010c0b300f48f5000af
:105b640001003c000040eb008100e8005140880047
:105b74000004e000060032000a28ef000268ef008b
:105b840070f529001cfb0700800c2000cb0c0700db
:105b9400810c20001e0090002e0907006016800072
:105ba4006800600000f0a7000000ea000000e900bf
:105bb4004f00de00004078000080fb0061006000c0
:105bc4004300dd006216800071ff2f008100610038
:105bd40001007000601688008c00370006c8bf0002
:105be4000004e0000a003a0060f6290002fb070006
:105bf40010c0b30002e8b700b0f7290043fb070068
:105c0400017d20001e009000120907007f0037006c
:105c140006c8bf00e14f50000a003a0040f82900ce
:105c2400f5fa070010c0b30002e8b70020fa290013
:105c340036fb0700411f20001e00900005090700e5
:105c44007200370006c8bf00e24f50000a003a0055
:105c540000fb2900e8fa070010c0b30002e8b7000f
:105c6400e0fc290029fb0700411f20001e009000d2
:105c7400f80807006500370006c8bf00e34f50006e
:105c840004003a0040c0b30006e8b700c0fd290094
:105c9400d9fa070008c8bf000004e00014003a0065
:105ca40040002a00d4fa07006140800010c0b3000d
:105cb400ea8f500001003c000040eb008100e80046
:105cc400614088000004e0000500320080012a00e1
:105cd400c9fa07000c28ef000668ef000868ef0017
:105ce400411f20001e009000da080700470037001b
:105cf40008c8bf00e14f500014003a00b0032a0066
:105d0400bdfa07006140800010c0b300ea8f500064
:105d140001003c000040eb008100e8006140880085
:105d24000004e0000500320070052a00b2fa070002
:105d34000c28ef000668ef000868ef00411f200000
:105d44001e009000c30807003000370008c8bf00d9
:105d5400e24f500004003200411f20001e0090005a
:105d6400bc0807002900370000c8bf00e14f5000fd
:105d74000a00320010c0b30002e8b700e0072a00ae
:105d84009dfa0700d0092a00e0fa0700411f20000d
:105d94001e009000af0807001c003700c0ad2100b2
:105da400104078000004e0000d003a00800c2a0046
:105db40091fa070010c0b30002e8b700d0ad21008b
:105dc4008040eb00014878000040eb0014fd070020
:105dd400813e20001e0090009e0807000b00370043
:105de400c0ad210010407800e14f500004003a009b
:105df400d00d2a0080fa07001e009000500807000a
:105e0400813e20001e009000920807000080fa00e6
:105e1400000006000000fa00ee0d0700004022001a
:105e2400410f2000f90d070000202c001100200074
:105e340069f9070000202c0011002000eaf907008e
:105e440000070700460d07004b090700bf0b0700ba
:105e5400e0000700100f2a0067fa0700c0b922000b
:105e64003100070041d92200c0102a00fb070700b7
:105e740023b8220012002000017d200080112a0096
:105e8400a80a07006066260061f62300f50b0700e8
:105e940040062000090c0700cd010700080d07008b
:105ea400fdff37000400fa00000f78001107980086
:105eb4009e007800814088009e00900091c4880074
:105ec4000080fa00000006000200fa00000f7800cb
:105ed4009e00780051c488000080fa00000006008b
:105ee4000200fa00000f78009e007800a1c4880028
:105ef4000080fa00000006000200fa00000f78009b
:105f04009e00780061c488000080fa00000006004a
:105f14000200fa00000f78009e00780071c4880027
:105f24000080fa00000006000200fa00000f78006a
:105f34009e007800b1c488000080fa0000000600ca
:105f44000200fa00000f78009e00780081c48800e7
:105f54000080fa00000006000200fa00000f78003a
:105f64009e007800c1c488000080fa00000006008a
:105f74000000fa00e0c480000000e800e0c48800eb
:105f8400e1c48000703e2000808f50001c00360069
:105f94000000eb00e0c48800f0c480000000e800ca
:105fa400f0c48800f1c48000b0032000808f50004a
:105fb400130036000000eb00f0c4880000c5800028
:105fc4000000e80000c5880001c58000b00320007f
:105fd400808f50000a0036000000eb0000c58800e6
:105fe40010c580000000e80010c5880010c58000be
:105ff400f70f5000020036000000eb0010c58800c7
:106004000080fa00000006000000fa000001780099
:10601400a089210082007800b0187800a0107800d0
:10602400e480400064004000b0187800a0107800bc
:10603400e480400064004000900878008180e8001b
:106044000080e800020078000080fa0000000600ea
:106054000400fa00004f7800114798002247980086
:106064001e80fb0010c588001e4090000080fb00cd
:1060740000c588002e4090000080fb00f0c488001a
:106084000000eb00e0c488000000eb00d0c48800ee
:106094000080fa00000006000000fa00889fbe009d
:1060a4008a9fbe0020c4800031c480009cf0070099
:1060b4000004be00000880008000eb0098f0070098
:1060c4000005be00100880008000eb0094f007007b
:1060d4000001be000a00be0032f007000001be004d
:1060e4000800be00d2ef07004f05be004f04be00fb
:1060f4000080fa00000006000000fa0020c48000be
:1061040031c48000823e20000289b9000201780077
:106114006002b9008401780003014100833e20003d
:106124000300b800010141008200780002088000e9
:106134000201d1008001eb00000041008180490090
:106144000080fa00000006000000fa0020c480006d
:1061540031c480000080fa00000006000200fa004a
:1061640010c48000000f78000000eb0010c4880009
:106174001e007800004078000080fa00000006004d
:106184000000fa0004c1a9000421a900210880002c
:10619400f0fc2f00008060000040a0002008880070
:1061a400007d2000100888000021ef009460a80002
:1061b40005e1a8000080fa00000006000200fa00d1
:1061c400000f78009e007800714088000080fa007b
:1061d400000006000000fa000000eb0060c4880024
:1061e4000000eb0050c488000000eb0080c488006d
:1061f4000000eb0070c48800e1ff07000080fa0093
:10620400000006000a00fa00604798004107980061
:1062140020122a002007980013c8bf000004e000e1
:1062240005003d001368ef001468ef001568ef00e7
:106234001668ef001768ef0017c8bf000080fb0066
:10624400e10f500027003200e10f500003003c0032
:106254000000e00006003200a9003700e20f500001
:1062640030003200e30f50006d003200a40037000c
:1062740014c8bf000080fb00ae0090000080400006
:10628400904078006e40900080cf500012003a0099
:1062940013c8bf008080fb00ee41900042922100b1
:1062a40003f178000040e80013e8b70014c8bf0009
:1062b4000040e80014e8b70014c8bf00e44f5000e1
:1062c400880036001468ef0017c8bf000040e800db
:1062d40017e8b7008a0037001368ef001468ef006e
:1062e4008700370013c8bf008080fb00ee41900098
:1062f4004292210003f178000040e80013e8b7005f
:10630400ee409000c0c2b30080cf500077003a0046
:106314001568ef0017c8bf000040e80017e8b70091
:106324007700370013c8bf008080fb00ee41900067
:106334004292210003f178000040e80013e8b7001e
:1063440015c8bf008080fb00ee419000429a2100f6
:1063540003f178000040e80015e8b700ee40900033
:10636400a0c3b30080cf500062003a0015c8bf003c
:106374000040e90015e8b70015c8bf000080fb0025
:10638400419a21000041eb00827078001668ef000a
:1063940010002000000f78001400370015c8bf005b
:1063a4000080fb00419a2100614078000080fb00de
:1063b4000003b100004078009e007800814078001e
:1063c4008180fb000088b9000000780080407800dc
:1063d40016c8bf0000c0400016e8b7001e007800d1
:1063e4006a00b90000007800000f780015c8bf00eb
:1063f4008080fb008100ea00cf08de008140780045
:106404000040e90015e8b7000104e000e3ff3a00aa
:1064140017c8bf000040e80017e8b700380037008d
:1064240013c8bf008080fb00ee419000429221001f
:1064340003f178000040e80013e8b70016c8bf0075
:106444000040e90016e8b70016c8bf000004e000e9
:106454002a003a000000eb00100798000c003700f7
:106464004e009000900078001e00900000804000d4
:10647400429221009e0090008100410091407800ea
:10648400014878001e0090000000e8001007980002
:1064940013c8bf008080fb001e009000808f500056
:1064a400efff3d004e009000900078001e00900029
:1064b400008040008040eb00014878001e009000fe
:1064c4000000e900800078004e0090001100980060
:1064d4001768ef001368ef001468ef001000200045
:1064e400080037000000000005003700000000002d
:1064f4000300370000000000010037000000000026
:106504000000eb000080fa00000006000600fa001c
:10651400204798002107980012c8bf000004e0003b
:1065240001003d001268ef0012c8bf008080fb002c
:10653400ae419000428a210003f178000040e80057
:1065440012e8b7002e409000ea4f50001d003a00b8
:106554000000eb00000f7800090037002e009000c7
:10656400900078001e00780000804000418a2100dd
:106574009e80400091407800014878001e0fe8009a
:1065840012c8bf000080fb009e0f5000f3ff3c00c8
:106594002e009000900078001e00780000804000db
:1065a4008040eb000148780012c8bf008080fb00e7
:1065b4002e009000110098001268ef0010002000d7
:1065c400010037000000eb000080fa000000060024
:1065d400b600fa0050c480000000e000270032003a
:1065e400100280004500de00674060000080fb0070
:1065f400000f780011028000000e200001007000de
:1066040010028800000000006a00470010f707002d
:10661400100798001e007800004078006740600072
:106624000080fb00670060004500dd00120280006e
:10663400f1f12f0081006100010070001002880058
:10664400000000001e0090000000e0000b0032007b
:1066540010c0b300504f98000040eb00404f98002a
:106664006a0047007007980010002000000f98008f
:1066740051c480006c0047000100010070c4800018
:106684000000e00027003200100280004500de0018
:10669400674060000080fb00200798001102800022
:1066a400000e2000010070001002880000000000ad
:1066b4006a00470002f70700100798002e009000b8
:1066c40000407800674060000080fb0067006000c5
:1066d4004500dd0012028000f1f12f00810061000d
:1066e4000100700010028800000000001e009000ed
:1066f4000000e0000b00320020c0b30030579800c7
:1067040010c0b300205798006a004700200f98007b
:1067140010002000300f980071c480007200470000
:106724000100010060c480000000e000120032009b
:1067340020882000104078000004e0000e003200a1
:1067440010c0b300105f980020c0b300005f980031
:106754000000eb00500f98000000eb00600f980061
:1067640061c48000780047000100010020882000f7
:106774008040eb000148780080c480000000e00005
:106784001200320000ea2000104078000004e0000b
:106794000e00320020c0b300705f980030c0b30018
:1067a400605f98000000eb00001798000000eb0009
:1067b4001017980081c480007e004700010001008a
:1067c40000ea20008040eb000148780010028000bd
:1067d4004500de00674060000080fb003007980041
:1067e40011028000000e20000100700010028800d9
:1067f400000000006a004700800078004087200005
:10680400290a0700100798003e0090000040780015
:10681400674060000080fb00670060004500dd0009
:1068240012028000f1f12f0081006100010070006c
:106834001002880000000000a0c480000000e000f6
:10684400170032001e0090000000e0001400320027
:1068540010c0b3005067980040c0b3004067980070
:10686400600320000e004000301798000000eb0089
:10687400401798002e489000410220008e8040006e
:106884008180e80021ff07000000e00004003200de
:10689400a1c48000400220000e004000010001005d
:1068a400100280004500de00674060000080fb00ad
:1068b4004007980011028000000e200001007000c3
:1068c40010028800000000006a0047008000780081
:1068d40020e92000f4090700100798004e009000fa
:1068e40000407800674060000080fb0067006000a3
:1068f4004500dd0012028000f1f12f0081006100eb
:10690400010070001002880000000000b0c4800084
:106914000000e000170032001e0090000000e000bc
:106924001400320020c0b300306f980050c0b30090
:10693400206f9800600320000e004000601798004c
:106944000000eb00701798002e489000a102200070
:106954008e8040008180e800ecfe07000000e0002b
:1069640004003200b1c48000a00220000e004000e8
:1069740001000100c0c480000000e00017003200e4
:106984001e0090000000e0001400320020c0b3009c
:106994001077980060c0b30000779800600320006f
:1069a4000e004000101f98000000eb00201f98000c
:1069b4002e489000010320008e8040008180e80072
:1069c40010fe07000000e00004003200c1c4800093
:1069d400000320000e0040000100010040c48000bc
:1069e4000000e0001000320061fd0700f10507001f
:1069f40070080700e3020700180707003b0a0700b6
:106a04004c09070040c480000000e90040c488002d
:106a1400704080000000e0000300320070408000fd
:106a24000000e900704088000080fa0000000600c1
:106a34000400fa00100798000000eb00000f780033
:106a4400000000001e0078009e00900000804000be
:106a5400104078000080fb000000ea004f00de00d8
:106a6400004078001e0fe8000004e000f5ff3a0043
:106a74001e00e9000080fa00000006000600fa008b
:106a840010079800210798000000eb00000f780021
:106a9400090037001e007800ae009000008040001e
:106aa4009e0078001e019000810041009140780012
:106ab400014878001e0fe8001e0078009e00900038
:106ac40000804000104078000004e000f1ff3a002c
:106ad4001e007800ae009000008040008040eb0073
:106ae400014878002e0090000080fa0000000600a3
:106af4000800fa0010079800210798003207980050
:106b04000000eb00000f78000000eb00000f78009d
:106b14000a0037001e007800be009000008040008c
:106b24009e0078001e019000810041009140780091
:106b3400014878001e0fe8001e0fe8002e009000a8
:106b44009e007800808f5000f2ff35001e00780010
:106b5400be009000008040008040eb0001487800b7
:106b64003e0090000080fa00000006000c00fa00cd
:106b740040079800510798005e009000acff0700a2
:106b8400200798004e009000a9ff070030079800e6
:106b9400be0090002e009000808f500002003d0047
:106ba4000080eb00240037000000eb00000f7800a9
:106bb4000000eb00100798000000eb00000f7800c5
:106bc400180037001e007800ce00900000804000be
:106bd400904078001e0090005e019000000041008b
:106be4001040780080cf50000b003a001e00900047
:106bf4000000e800100798009e0090002e0090000e
:106c0400808f5000060035009e00e8002e009000a2
:106c140000805000080037000000eb0010079800c7
:106c24001e0fe8003e0090009e007800808f500008
:106c3400e4ff35000080eb000080fa00000006004d
:106c44000e00fa0040079800510798006207980068
:106c54006e00900076ff070020079800de00900089
:106c640031079800be0090002e009000808f5000e5
:106c740002003d000080eb00240037000000eb0020
:106c8400000f78000000eb00100798000000eb00f4
:106c9400000f7800180037001e007800ce00900026
:106ca40000804000904078001e0090006e0190002b
:106cb400000041001040780080cf50000b003a00e3
:106cc4001e0090000000e800100798009e0090004d
:106cd4002e009000808f5000060035009e00e800d2
:106ce4002e00900000805000080037000000eb00e8
:106cf400100798001e0fe8003e0090009e007800e8
:106d0400808f5000e4ff35000080eb000080fa0023
:106d1400000006000e00fa00500798006107980072
:106d24006e00900042ff0700300798005e0090005c
:106d34003fff070040079800ce0090003e009000ff
:106d4400808f500002003d000080eb0027003700d8
:106d54000000eb00000f78003e0090000000e90006
:106d6400100798000000eb00200798004e009000e8
:106d7400000fe900190037001e007800de009000c3
:106d840000804000904078001e0090006e0190004a
:106d9400000041001040780080cf50000c003a0001
:106da4001e0090000000e900100798002e009000db
:106db4000000e80020079800ae0090003e0090001c
:106dc400808f5000040035001e0078000700370053
:106dd4000000eb00200798001e0fe9001e00780059
:106de4000000e000e4ff3d000080eb000080fa00ba
:106df400000006000600fa0010079800210798001a
:106e04000000eb00000f78000000eb00000f78009a
:106e1400100037001e0078009e00900000804000a3
:106e24009040780000c2b30080cf500008003200c8
:106e34001e0078009e009000008040009040780082
:106e44002e009000014878001e00780008003700ea
:106e54001e0fe8001e0078009e0090000080400095
:106e6400104078000004e000eaff3a000000eb0064
:106e74000080fa00000006000600fa0010079800df
:106e8400414798000000eb00000f78000000eb0081
:106e9400000f78000a0037001e0078009e00900062
:106ea40000804000904078004e40900080cf500019
:106eb40002003a001e007800080037001e0fe800a8
