:020000040000fa
:08000000020c040000000000e6
:020000040000fa
:10000800fa0f0000fa0f0000fa0f0000fa0f0000c4
:10001800fa0f0000fa0f0000fa0f0000fa0f0000b4
:10002800fa0f0000fa0f0000fa0f00003e0f000060
:10003800fa0f0000fa0f0000fa0f0000fa0f000094
:10004800e60f0000fa0f0000fa0f0000ca0c0000cb
:100058008a0d00009a0f0000fa0f0000fa0f000046
:10006800fa0f0000fa0f0000fa0f0000fa0f000064
:10007800fa0f0000fa0f0000fa0f0000fa0f000054
:10008800fa0f0000fa0f0000fa0f0000fa0f000044
:10009800fa0f0000fa0f0000080e0000c80e00005a
:1000a800fa0f0000fa0f0000fa0f0000fa0f000024
:1000b800fa0f0000fa0f0000fa0f0000fa0f000014
:1000c800fa0f0000fa0f0000fa0f0000fa0f000004
:1000d800fa0f0000fa0f0000fa0f0000fa0f0000f4
:1000e800fa0f0000fa0f0000fa0f0000fa0f0000e4
:1000f800fa0f0000fa0f0000fa0f0000fa0f0000d4
:10010800fa0f0000fa0f0000fa0f0000fa0f0000c3
:10011800fa0f0000fa0f0000fa0f0000fa0f0000b3
:10012800fa0f0000fa0f0000fa0f0000fa0f0000a3
:10013800fa0f0000fa0f0000fa0f0000fa0f000093
:10014800fa0f0000fa0f0000fa0f0000fa0f000083
:10015800fa0f0000fa0f0000fa0f0000fa0f000073
:10016800fa0f0000fa0f0000fa0f0000fa0f000063
:10017800fa0f0000fa0f0000fa0f0000fa0f000053
:10018800fa0f0000fa0f0000fa0f0000fa0f000043
:10019800fa0f0000fa0f0000fa0f0000fa0f000033
:1001a800fa0f0000fa0f0000fa0f0000fa0f000023
:1001b800fa0f0000fa0f0000fa0f0000fa0f000013
:1001c800fa0f0000fa0f0000fa0f0000fa0f000003
:1001d800fa0f0000fa0f0000fa0f0000fa0f0000f3
:1001e800fa0f0000fa0f0000fa0f0000fa0f0000e3
:0801f800fa0f0000fa0f0000ed
:020000040000fa
:10020800fa0f0000fa0f0000fa0f0000fa0f0000c2
:10021800fa0f0000fa0f0000fa0f0000fa0f0000b2
:10022800fa0f0000fa0f0000fa0f00003e0f00005e
:10023800fa0f0000fa0f0000fa0f0000fa0f000092
:10024800e60f0000fa0f0000fa0f0000ca0c0000c9
:100258008a0d00009a0f0000fa0f0000fa0f000044
:10026800fa0f0000fa0f0000fa0f0000fa0f000062
:10027800fa0f0000fa0f0000fa0f0000fa0f000052
:10028800fa0f0000fa0f0000fa0f0000fa0f000042
:10029800fa0f0000fa0f0000080e0000c80e000058
:1002a800fa0f0000fa0f0000fa0f0000fa0f000022
:1002b800fa0f0000fa0f0000fa0f0000fa0f000012
:1002c800fa0f0000fa0f0000fa0f0000fa0f000002
:1002d800fa0f0000fa0f0000fa0f0000fa0f0000f2
:1002e800fa0f0000fa0f0000fa0f0000fa0f0000e2
:1002f800fa0f0000fa0f0000fa0f0000fa0f0000d2
:10030800fa0f0000fa0f0000fa0f0000fa0f0000c1
:10031800fa0f0000fa0f0000fa0f0000fa0f0000b1
:10032800fa0f0000fa0f0000fa0f0000fa0f0000a1
:10033800fa0f0000fa0f0000fa0f0000fa0f000091
:10034800fa0f0000fa0f0000fa0f0000fa0f000081
:10035800fa0f0000fa0f0000fa0f0000fa0f000071
:10036800fa0f0000fa0f0000fa0f0000fa0f000061
:10037800fa0f0000fa0f0000fa0f0000fa0f000051
:10038800fa0f0000fa0f0000fa0f0000fa0f000041
:10039800fa0f0000fa0f0000fa0f0000fa0f000031
:1003a800fa0f0000fa0f0000fa0f0000fa0f000021
:1003b800fa0f0000fa0f0000fa0f0000fa0f000011
:1003c800fa0f0000fa0f0000fa0f0000fa0f000001
:1003d800fa0f0000fa0f0000fa0f0000fa0f0000f1
:1003e800fa0f0000fa0f0000fa0f0000fa0f0000e1
:0803f800fa0f0000fa0f0000eb
:020000040000fa
:10180000010000002fa921000e7f22000e01880098
:1018100000000000000020000000e0000200320094
:10182000000120002002880014000700f3010700d7
:101830000000e00003003a00a06323000100200044
:10184000020037000000200001002000810f70001e
:101850000100320014000700000020000000e0003a
:10186000020032000000020000000000ba35020051
:10187000000000000040da000000fe004440a90023
:10188000800020000000e000030032000000200083
:10189000a00188004440a800000006008a1f7800cc
:1018a0008b1f7800000006009101880080047800fa
:1018b0000000eb001a003700e284440032a0b400bc
:1018c0009905ba00e284440032a0b4009906ba0037
:1018d000e284440032a0b4000006eb00476fde0053
:1018e000fd07b200636ce10003003a00ebff070064
:1018f0000000eb000a003700606ce10004003a00d1
:10190000005deb008b05e900fdff3e0004003700a1
:101910006168e100010032000086eb000b00070067
:1019200019c7ba001905ba000e04e00003003a0016
:101930000a00e000e0ff3a0000000600fe07b200e7
:101940009e0188008a047800f5ff3700395dba00ef
:101950008b05e9000c003200295dba008b05e90017
:10196000080032000c00e00003003a00e28444006a
:1019700032a0b400f5ff370019ddba008b05e9008d
:10198000faff3a008904e800e184440032a0b40080
:10199000000006003600f800809fbe00829fbe0057
:1019a000849fbe00869fbe003400f8000000200027
:1019b000a00188000400fa008560a9005082200080
:1019c00011c0b300014878003011800080407800d9
:1019d0004082200001487800100280004500de00af
:1019e000674060000080fb00000f7800110280005b
:1019f000000e2000010070001002880000000000ae
:101a000040822000104078008040780060862000ee
:101a1000431307001e007800004078006740600014
:101a20000080fb00670060004500dd0012028000be
:101a3000f1f12f00810061000100700010028800a8
:101a400000000000100280004500de0067406000da
:101a50000080fb001007980011028000000e20009b
:101a60000100700010028800000000000299800050
:101a70004082200090407800002a210000004100b0
:101a800001487800009980000000e8000099880073
:101a900001998000f0072000808f5000020036007e
:101aa0000000eb000099880021998000f0072000d9
:101ab000808f500003003e00209980000000e80065
:101ac000209988001e009000004078006740600068
:101ad0000080fb00670060004500dd00120280000e
:101ae000f1f12f00810061000100700010028800f8
:101af000000000000080fa003400f9004f03be002f
:101b00004f02be004f01be004f00be003600f9007c
:101b1000004006003600f800809fbe00829fbe0095
:101b2000849fbe00869fbe003400f80000002000a5
:101b3000a00188000400fa008580a90030872000f9
:101b400011c0b30001487800100280004500de009b
:101b5000674060000080fb00000f780011028000e9
:101b6000000e20000100700010028800000000003c
:101b7000630047008000780060a72000161307006c
:101b8000204798001e007800004078006740600001
:101b90000080fb00670060004500dd00120280004d
:101ba000f1f12f0081006100010070001002880037
:101bb000000000002e4090000004e0000800320009
:101bc000be40900020872000014878002087200038
:101bd000104078000080fb002011880004003700ce
:101be0009580a9004087200011c0b300014878000b
:101bf0000080fa003400f9004f03be004f02be001f
:101c00004f01be004f00be003600f9000040060044
:101c10003600f800809fbe00829fbe00849fbe00f9
:101c2000869fbe003400f80000002000a00188005c
:101c30000400fa0087c0a90030a8200011c0b3003a
:101c400001487800b01180008040780020a8200072
:101c500001487800100280004500de006740600007
:101c60000080fb00000f780011028000000e2000b1
:101c700001007000100288000000000020a8200071
:101c8000104078008040780040e82000a41207004f
:101c90001e00780000407800674060000080fb0074
:101ca000670060004500dd0012028000f1f12f00a6
:101cb0008100610001007000100288000000000037
:101cc000100280004500de00674060000080fb00dd
:101cd0001007980011028000000e20000100700023
:101ce000100288000000000032b9800020a8200007
:101cf00090407800603221000000410001487800e7
:101d000030b980000000e80030b9880031b98000a7
:101d1000f03f2000808f5000020036000000eb00f2
:101d200030b9880051b98000f03f2000808f50000a
:101d300003003e0050b980000000e80050b9880060
:101d40001e00900000407800674060000080fb00ab
:101d5000670060004500dd0012028000f1f12f00f5
:101d60008100610001007000100288000000000086
:101d70000080fa003400f9004f03be004f02be009d
:101d80004f01be004f00be003600f90000400600c3
:101d90003600f800809fbe00829fbe00849fbe0078
:101da000869fbe003400f80000002000a0018800db
:101db0000400fa0087e0a90010e9200011c0b30078
:101dc00001487800100280004500de006740600096
:101dd0000080fb00000f780011028000000e200040
:101de000010070001002880000000000630047003e
:101df00080007800402921007712070020479800d2
:101e00001e00780000407800674060000080fb0002
:101e1000670060004500dd0012028000f1f12f0034
:101e200081006100010070001002880000000000c5
:101e30002e4090000004e000040032003e4090007c
:101e40000080fb00a01188000400370097e0a90083
:101e500020e9200011c0b300014878000080fa009a
:101e60003400f9004f03be004f02be004f01be0018
:101e70004f00be003600f900004006003600f800b2
:101e8000809fbe00829fbe00849fbe00869fbe00d2
:101e90003400f80000002000a00188000000fa00d3
:101ea0008460a90010002000a0c3880090c38000b7
:101eb0000000e80090c38800b0c38000c1c3800068
:101ec00061004000e0804800b0c38800c1c38800c2
:101ed000d0c380000000e800d0c3880020c4800088
:101ee0000000e0000b00320091c380001040800031
:101ef00000017800110009008280d8008000fd00f8
:101f00000000e00003003a0021c480002087210087
:101f1000010001000080fa003400f9004f03be0008
:101f20004f02be004f01be004f00be003600f90058
:101f300000400600809fbe003400f8000000200032
:101f4000a00188000000fa0085a0a900a080200060
:101f50009000780000188000008040008000d100d0
:101f6000a080200001087800a08020009000900050
:101f700010188000008040008000d100a080200068
:101f800011009800a0802000a00090002018800080
:101f9000008040008000d100a08020002100980037
:101fa000a0802000b0009000301880000080400029
:101fb0008000d100a0802000310098000080fa004d
:101fc0003400f9004f00be00004006003400f80065
:101fd000881f780008002000a80188004f047800be
:101fe0000000fa008500a9000080fa003400f90022
:101ff000004006000040da000000fe00000005007e
:1020000003f0a200889fbe008a9fbe008c1f78004c
:10201000f5000700fc0033006450e1004f0032007f
:102020006420e1005200320003826c0007003b0094
:102030000905d0000306d000820f54000c065d0095
:10204000020039000200320089017800030678009e
:102050008582550004003d000003fd008103fd0062
:102060008502ea008b854200840f720002003b006b
:1020700060001000e08018006011b8000005eb005f
:102080007a28e1000a00390006007800c75ddd000b
:10209000f707b200878075002d003700828171003c
:1020a0000a017800610560008180d1000080d300c2
:1020b0008502e900f9ff3b000604400087844800e0
:1020c00002003b0060041400e0841c000988a300a7
:1020d000070032008a817100828171006101640011
:1020e0008904d1000884d3008b05e800170037006d
:1020f0000978a30013003a000b00e000130034003d
:102100008b05e9000804440089844c000a447400eb
:102110000978a3000d003a000b00e000070034002e
:102120008b05e9000804440089844c0001003a0052
:102130000b0020000978a300f7ff32000001eb003c
:1021400002003700828171000a0178006b000700ed
:102150000cf0a70001f0a000b40037006420e100fb
:1021600002003a00838f6c00b40033000801be0007
:102170000200be00ad003700889fbe008a9fbe00ef
:102180008c1f7800980007009f00330003866c00c6
:102190006450e1002e0032006420e1003300320080
:1021a0006150e1002f0032006120e1003100320077
:1021b00085855500eb07b0000900200008042000c9
:1021c000050037000804440089844c000a003100ef
:1021d0000603430087834b000001530081815b00ad
:1021e000f8ff33000203be000800a000080444000a
:1021f00089844c00f6ff3900c639dd008301730085
:1022000001003200130020008904d1000884d300ab
:102210000998a300050032000800a7000300a000f1
:102220008904d1000884d3008b05e8008904d1001b
:102230000884d3000001eb000281d2002f000700c8
:1022400001f0a1000cf0a70001f0a000770037001a
:102250006420e100790032000801be000200be00e7
:10226000f7ff37006120e100740032006000b80021
:10227000f3ff37000000200001f82700f0ff3700cf
:1022800014002000a40037000001be004100070038
:102290000470a70003f0a10003f8a30013003a00a4
:1022a0006509b10010003200090035006928e1001d
:1022b0000200350001002800000005000000400079
:1022c000818048008502e900fcff3a00000006001a
:1022d000f88f4200050035008100d1000080d30056
:1022e0008502e800fcff3a00000006008000eb00d9
:1022f000000005006011b800a20037008100200036
:10230000618055000b003d000b00200061fe2f0096
:102310000100e1001d003400828171006101640050
:102320008904d1000884d3000000e800faff3a00d5
:102330007100200061006400030070000200600072
:102340000900320061044400e0844c000988a500c3
:10235000050032008b05e8006808e10002003a0041
:102360008904d1000884d300f20f20000258e10054
:1023700005003d00c75ddd00f907b20089807500ea
:1023800008007800000006000bf827008b0078009a
:1023900000000500c70ade00f107b200f50fb20029
:1023a00008003200e1cf4200020032000170a000bc
:1023b00024000500810f70000100320004080500b0
:1023c00044000500810f700002003a00140005006f
:1023d0008502e9000000400081c04800fcff3b008e
:1023e0000170a000240005000004be00e9ff070002
:1023f0000003be000405be000200be00e5ff0700aa
:10240000844f7500000006000200be006450e10029
:10241000050036006420e100020036000968a300d0
:1024200001003a000800be000160a0004f067800dd
:102430004f05be004f04be0000000600f0ff2f0055
:10244000f1ff2700f9ff3700889fbe008a9fbe007a
:102450008c1f7800e4ff0700ebff330003866c005d
:102460006450e100240032006420e10027003200c3
:102470006150e100220032006120e10021003200c1
:102480008b854200eb07b1000134b800003ab80078
:102490000804420089844a00013ab8000030b800bc
:1024a0008880400009014a00040033000000400019
:1024b00081804800020149008b05e900c909dd005f
:1024c000830170000100320013002000c814de00f8
:1024d0004814dd004709de001200b200c808de0023
:1024e0000884700085ff070001f0a1000cf0a70030
:1024f00001f0a000cdff37006120e100cfff3200e6
:102500000801be000200be00f7ff37006150e10085
:10251000fcff3a00c9ff3700889fbe008a9fbe00bb
:10252000841f7800b0ff07004f00780011003300cf
:10253000f0ff2f00838f6c0006003b000405650050
:102540000a00a7000800370009f0a60010002000cc
:1025500008003700820f5400838f5c0003003900ad
:102560001000200001003e000000200009f0a7003c
:102570000000ea004f05be004f04be000000e0006e
:1025800000000600889fbe008a9fbe000082700087
:102590000402710004827100260032000004be00b3
:1025a0000200be006011b8006b09200095022000f7
:1025b0000182cf000a0039000541b1000082cf003e
:1025c000070039000541b1000982cf00040039003d
:1025d0000541b1000882cf00010039000541b1007a
:1025e00005425200120032000a003b008281710055
:1025f000610164008100d1000080d3008984d30090
:102600000884d3008b05e8000442e800f7ff3a0095
:10261000070037000804440089844c00000048008b
:10262000818048008b05e9000442e900f9ff3a0087
:1026300032ff07004f05be004f04be000000060039
:020000040000fa
:102640002b490000504400002c0000000000000056
:020000040000fa
:102650000200fa00000f7800209980000000e000de
:102660001400320011998000002a210000804000ef
:10267000904078001e007800014878001099800092
:102680000000e8001099880011998000f0072000f0
:10269000808f5000020036000000eb001099880087
:1026a000209980000000e900209988001000200097
:1026b000010037000000eb000080fa000000060077
:1026c0000200fa00000f780050b980000000e0001e
:1026d0001400320041b980006032210000804000c7
:1026e000904078001e0078000148780040b98000d2
:1026f0000000e80040b9880041b98000f03f2000a8
:10270000808f5000020036000000eb0040b98800c6
:1027100050b980000000e90050b988001000200086
:10272000010037000000eb000080fa000000060006
:102730000200fa000000eb00000f780005003700ef
:10274000002a21001e0040008040eb000148780074
:102750001e0fe800f00720009e007800808f5000d8
:10276000f7ff34000000eb00109988000000eb0038
:10277000009988000000eb00209988000080fa0092
:10278000000006000200fa000000eb00000f7800d5
:1027900005003700603221001e0040008040eb0041
:1027a000014878001e0fe800f03f20009e007800ee
:1027b000808f5000f7ff34000000eb0040b9880024
:1027c0000000eb0030b988000000eb0050b9880031
:1027d0000080fa00000006000800fa0020079800b8
:1027e0003107980014c0b3002e019000be01900084
:1027f0000058220001002000800f5100818f5900f5
:1028000001003e000042eb00044f78004a1107002f
:102810002135800000fe2f0000806000c000b30062
:1028200020358800c982a80061368000f00f2e0094
:102830008080600000302000010070006036880059
:10284000c9a2a9004511070021e2a80021a2a90000
:102850002182a9002162a90001118000f0cf2f0080
:10286000008060000011880020e2a90020c2a900b9
:1028700020a2a9002082a9009e40780061c06000cb
:102880000080fb00610060004300dd00011180005a
:102890000130a100010070000011880001118000ca
:1028a00090ff2f0000806000001188002002a90026
:1028b0001e4078000004e000110032002e0190005c
:1028c000be0190004218dd00ce10de0081007000d5
:1028d0004210dd0087fe07000001be00004022001c
:1028e00041b7240024fe07000200200003f8230063
:1028f000c3fd070064fe07000000780010003700e9
:102900002e019000be0190004418dd00cc10de00c6
:10291000810070004410dd0076fe07000001be005b
:102920000040220041b7240013fe070002002000ef
:1029300003f82300b2fd070053fe070000007800f3
:10294000401188002342a8002362a90023e2a900c5
:1029500023a2a90022e2a90022c2a9009560a80032
:102960009580a9002342a800100280004500de00e7
:10297000674060000080fb00100798001102800093
:10298000000e20000100700010028800000000000e
:10299000020420006182200060862000480f0700aa
:1029a000022020005187200060a72000440f07006c
:1029b0001e00900000407800674060000080fb002f
:1029c000670060004500dd0012028000f1f12f0079
:1029d000810061000100700010028800000000000a
:1029e0000080fa00000006000800fa0020079800a6
:1029f0003107980014c0b3002e019000be01900072
:102a00000058220001002000800f5100818f5900e2
:102a100001003e000042eb00044f7800c6100700a2
:102a20003135800000fe2f0000806000e000b30020
:102a300030358800c9c2a80071368000f00f2e0022
:102a40008080600000502000010070007036880017
:102a5000c9e2a900c110070031e2a80031a2a90013
:102a60003182a9003162a90081118000f0cf2f00ce
:102a7000008060008011880030e2a90030c2a90007
:102a800030a2a9003082a9009e40780061c0600099
:102a90000080fb00610060004300dd0081118000c8
:102aa0000130a100010070008011880081118000b8
:102ab00090ff2f0000806000801188003002a90084
:102ac0001e4078000004e000110032002e0190004a
:102ad000be0190004218dd00ce10de0081007000c3
:102ae0004210dd0003fe07000001be00004022008e
:102af00041b72400a0fd07000200200003f82300d6
:102b00003ffd0700e0fd07000000780010003700df
:102b10002e019000be0190004418dd00cc10de00b4
:102b2000810070004410dd00f2fd07000001be00ce
:102b30000040220041b724008ffd07000200200062
:102b400003f823002efd0700cffd070000007800ea
:102b5000c01188003342a8003362a90033e2a90003
:102b600033a2a90032e2a90032c2a90097c0a8008e
:102b700097e0a9003342a800100280004500de0063
:102b8000674060000080fb00100798001102800081
:102b9000000e2000010070001002880000000000fc
:102ba0000240200041a8200040e82000c40e070099
:102bb0000240200031e9200040292100c00e07001a
:102bc0001e00900000407800674060000080fb001d
:102bd000670060004500dd0012028000f1f12f0067
:102be00081006100010070001002880000000000f8
:102bf0000080fa00000006000800fa003007980084
:102c00000000eb00000f7800be0090001107980054
:102c1000040037001e0fe8001e0090000000e800ce
:102c2000100798001e009000104078000004e0009b
:102c3000f8ff3a00e053800001202000008050009f
:102c40009e0f500002003e000000eb002d003700f8
:102c5000be009000110798001e003700100280008f
:102c60004500de00674060000080fb002007980000
:102c700011028000000e2000010070001002880088
:102c8000000000001e009000104078009e009000a0
:102c90008100e800110798008040780060a72000bc
:102ca0009f0e07002e0090000040780067406000f3
:102cb0000080fb00670060004500dd00120280001c
:102cc000f1f12f0081006100010070001002880006
:102cd000000000001e009000104078000004e0009a
:102ce000deff3a00a10480000000210000806000a7
:102cf0000000e00002003a008580a8009580a8004e
:102d00001e0078000080fa00000006000800fa00ab
:102d1000300798000000eb00000f7800be00900024
:102d200011079800040037001e0fe8001e009000f5
:102d30000000e800100798001e0090001040780086
:102d40000004e000f8ff3a00e0538000012020007a
:102d5000008050009e0f500021003e000000eb005c
:102d60002c003700100280004500de006740600044
:102d70000080fb002007980011028000000e200058
:102d80000100700010028800000000003e0090006a
:102d900010407800be0090008100e80031079800e4
:102da00080407800402921005d0e07002e00900031
:102db00000407800674060000080fb006700600012
:102dc0004500dd0012028000f1f12f00810061005a
:102dd00001007000100288000000000001003700b0
:102de000000000003e009000104078000004e00069
:102df000dcff3a00b1048000000028000080600081
:102e00000000e00002003a0087e0a80097e0a80078
:102e10001e0078000080fa00000006000800fa009a
:102e20002007980031079800e0538000012020001f
:102e3000808050003e009000808f500002003e00d5
:102e40000000eb002d0037000000eb00000f7800c1
:102e50001e003700100280004500de006740600061
:102e60000080fb001007980011028000000e200077
:102e70000100700010028800000000001e007800b1
:102e8000ae00900000804000104078008040780044
:102e900060a72000220e07001e009000004078006e
:102ea000674060000080fb00670060004500dd00b7
:102eb00012028000f1f12f0081006100010070001a
:102ec00010028800000000001e0fe8009e0078003d
:102ed0003e009000808f5000deff3900a10480008a
:102ee00000002100008060000000e00002003a00c5
:102ef0008580a8009580a8003e0090000080fa0020
:102f0000000006000800fa00300798003e0090001c
:102f100090009000e053800002202000000051004b
:102f2000808f5000020039000000eb0033003700b2
:102f30003e00900090007800110798000000eb0020
:102f4000000f78001f003700100280004500de00ef
:102f5000674060000080fb0020079800110280009d
:102f6000000e200001007000100288000000000028
:102f70001e009000104078009e0090008100e80044
:102f8000110798008040780060a72000e40d07003a
:102f90002e00900000407800674060000080fb0039
:102fa000670060004500dd0012028000f1f12f0093
:102fb0008100610001007000100288000000000024
:102fc0001e0fe8009e0078003e0090001000900068
:102fd000808f5000dcff3900a10480000000210038
:102fe000008060000000e00002003a008580a80038
:102ff0009580a8003e009000100090000080fa002c
:10300000000006000400fa0020479800e153800009
:10301000f01f2000808f5000020036000000eb00ff
:1030200021003700100280004500de00674060008c
:103030000080fb00000f780011028000000e2000cd
:10304000010070001002880000000000ae409000f7
:1030500060a72000b20d07001e0078000040780035
:10306000674060000080fb00670060004500dd00f5
:1030700012028000f1f12f00810061000100700058
:103080001002880000000000a10480000000210060
:10309000008060000000e00002003a008580a80087
:1030a0009580a800100020000080fa0000000600b3
:1030b0000800fa002007980031079800d09480009b
:1030c00001402000808050003e009000808f500022
:1030d00002003e000000eb002d0037000000eb0076
:1030e000000f78001e003700100280004500de004f
:1030f000674060000080fb0010079800110280000c
:10310000000e200001007000100288000000000086
:103110001e007800ae009000008040001040780053
:1031200080407800402921007d0d07001e0090009e
:1031300000407800674060000080fb00670060008e
:103140004500dd0012028000f1f12f0081006100d6
:103150000100700010028800000000001e0fe8004f
:103160009e0078003e009000808f5000deff390006
:10317000b104800000002800008060000000e00032
:1031800002003a0087e0a80097e0a8003e00900007
:103190000080fa00000006000800fa0030079800de
:1031a0003e00900090009000d094800002402000eb
:1031b00000005100808f5000020039000000eb0039
:1031c000330037003e00900090007800110798000f
:1031d0000000eb00000f78001f0037001002800095
:1031e0004500de00674060000080fb00200798007b
:1031f00011028000000e2000010070001002880003
:10320000000000001e009000104078009e0090001a
:103210008100e800110798008040780040292100d3
:103220003f0d07002e0090000040780067406000ce
:103230000080fb00670060004500dd001202800096
:10324000f1f12f0081006100010070001002880080
:10325000000000001e0fe8009e0078003e00900075
:1032600010009000808f5000dcff3900b104800016
:1032700000002800008060000000e00002003a002a
:1032800087e0a80097e0a8003e00900010009000a2
:103290000080fa00000006000400fa0020479800b1
:1032a000d1948000f03f2000808f50000200360053
:1032b0000000eb0021003700100280004500de0016
:1032c000674060000080fb00000f78001102800062
:1032d000000e2000010070001002880000000000b5
:1032e000ae409000402921000d0d07001e0078001f
:1032f00000407800674060000080fb0067006000cd
:103300004500dd0012028000f1f12f008100610014
:10331000010070001002880000000000b10480006d
:1033200000002800008060000000e00002003a0079
:1033300087e0a80097e0a800100020000080fa00b5
:10334000000006000000fa0000000000e0538000ca
:103350000000e000fdff3a00111180000020200075
:10336000008060000000e000f8ff3a000080fa00f2
:10337000000006000000fa0000000000d094800069
:103380000000e000fdff3a009111800000202000c5
:10339000008060000000e000f8ff3a000080fa00c2
:1033a000000006000200fa00000f7800e5ff0700a9
:1033b0000b003700000000001111800000202000e9
:1033c000008060000000e000fbff3a001e00780073
:1033d000104078000000fb00201188001e0fe8005c
:1033e0001e007800104078000004e000f1ff3a0071
:1033f0000080fa00000006000200fa00000f7800ca
:10340000dcff07000b003700000000009111800076
:1034100000202000008060000000e000fbff3a0078
:103420001e007800104078000000fb00a01188000a
:103430001e0fe8001e007800104078000004e00035
:10344000f1ff3a000080fa00000006000200fa00d6
:10345000004f7800bbff07001e80fb002011880092
:103460000080fa00000006000200fa00004f780019
:10347000c0ff07001e80fb00a01188000080fa003a
:10348000000006000600fa001007980021079800c7
:10349000acff07000000eb00000f78000d003700c4
:1034a000000000001111800000202000008060005a
:1034b0000000e000fbff3a001e0078009e00900034
:1034c00000804000104078000080fb002011880040
:1034d0001e0fe8009e0078002e009000808f5000a4
:1034e000efff39000080fa00000006000600fa0035
:1034f00010079800210798009eff07000000eb00ce
:10350000000f78000d0037000000000091118000ce
:1035100000202000008060000000e000fbff3a0077
:103520001e0078009e00900000804000104078004f
:103530000080fb00a01188001e0fe8009e007800ac
:103540002e009000808f5000efff39000080fa00bd
:10355000000006000000fa00101180006200600008
:103560000000e000020032002222a9000100370022
:103570000000000010118000610060000000e00009
:10358000fcff320030118000004078000080fa001b
:10359000000006000000fa00901180006200600048
:1035a0000000e000020032003222a90001003700d2
:1035b0000000000090118000610060000000e00049
:1035c000fcff3200b0118000004078000080fa005b
:1035d000000006000400fa00000f780011079800b0
:1035e0009e007800114088009e00900021c4880051
:1035f0000080fa00000006000200fa00000f7800c8
:103600009e007800e1c388000080fa0000000600f8
:103610000200fa00000f78009e00780031c4880094
:103620000080fa00000006000200fa00000f780097
:103630009e007800f1c388000080fa0000000600b8
:103640000200fa00000f78009e00780001c4880094
:103650000080fa00000006000200fa00000f780067
:103660009e00780041c488000080fa000000060037
:103670000200fa00000f78009e00780011c4880054
:103680000080fa00000006000200fa00000f780037
:103690009e00780051c488000080fa0000000600f7
:1036a0000000fa0070c480000000e80070c48800c8
:1036b00071c48000703e2000808f50001c003600d6
:1036c0000000eb0070c4880080c480000000e800a7
:1036d00080c4880081c48000b0032000808f500027
:1036e000130036000000eb0080c4880090c4800006
:1036f0000000e80090c4880091c48000b00320005e
:10370000808f50000a0036000000eb0090c4880053
:10371000a0c480000000e800a0c48800a0c480000d
:10372000f70f5000020036000000eb00a0c4880034
:103730000080fa00000006000000fa000001780096
:10374000c088210082007800b0187800a0107800ae
:10375000e480400064004000b0187800a0107800b9
:10376000e480400064004000900878008180e80018
:103770000080e800020078000080fa0000000600e7
:103780000400fa00004f7800114798002247980083
:103790001e80fb00a0c488001e4090000080fb003b
:1037a00090c488002e4090000080fb0080c48800f8
:1037b0000000eb0070c488000000eb0060c48800cb
:1037c0000080fa00000006000000fa00889fbe009a
:1037d0008a9fbe00b0c38000c1c38000c5fa070045
:1037e0000004be00000880008000eb00c1fa070062
:1037f0000005be00100880008000eb00bdfa070045
:103800000001be000a00be005bfa07000001be0016
:103810000800be00fbf907004f05be004f04be00c4
:103820000080fa00000006000000fa00b0c380002b
:10383000c1c38000823e20000289b90002017800e5
:103840006002b9008401780003014100833e20003a
:103850000300b800010141008200780002088000e6
:103860000201d1008001eb0000004100818049008d
:103870000080fa00000006000000fa00b0c38000db
:10388000c1c380000080fa00000006000200fa00b8
:10389000a0c38000000f78000000eb00a0c38800e8
:1038a0001e007800004078000080fa00000006004a
:1038b0000000fa0004c1a9000421a9002108800029
:1038c000f0fc2f00008060000040a000200888006d
:1038d000007d2000100888000021ef009460a800ff
:1038e00005e1a8000080fa00000006000200fa00ce
:1038f000000f78009e007800014088000080fa00e8
:10390000000006000000fa000000eb00f0c3880091
:103910000000eb00e0c388000000eb0010c488004a
:103920000000eb0000c48800e1ff07000080fa00ff
:10393000000006000a00fa0060479800410798005e
:10394000003229002007980005c8bf000004e000ed
:1039500005003d000568ef000668ef000768ef000e
:103960000868ef000968ef0009c8bf000080fb008d
:10397000e10f500027003200e10f500003003c002f
:103980000000e00006003200a9003700e20f5000fe
:1039900030003200e30f50006d003200a400370009
:1039a00006c8bf000080fb00ae0090000080400011
:1039b000904078006e40900080cf500012003a0096
:1039c00005c8bf008080fb00ee419000629121009d
:1039d00003f178000040e80005e8b70006c8bf0022
:1039e0000040e80006e8b70006c8bf00e44f5000fa
:1039f000880036000668ef0009c8bf000040e800f4
:103a000009e8b7008a0037000568ef000668ef0094
:103a10008700370005c8bf008080fb00ee419000a2
:103a20006291210003f178000040e80005e8b7004a
:103a3000ee409000c0c2b30080cf500077003a0043
:103a40000768ef0009c8bf000040e80009e8b700b8
:103a50007700370005c8bf008080fb00ee41900072
:103a60006291210003f178000040e80005e8b7000a
:103a700007c8bf008080fb00ee41900062992100e2
:103a800003f178000040e80007e8b700ee4090003e
:103a9000a0c3b30080cf500062003a0007c8bf0047
:103aa0000040e90007e8b70007c8bf000080fb003e
:103ab000619921000041eb00827078000868ef00f6
:103ac00010002000000f78001400370007c8bf0066
:103ad0000080fb0061992100614078000080fb00bc
:103ae0000003b100004078009e007800814078001b
:103af0008180fb000088b9000000780080407800d9
:103b000008c8bf0000c0400008e8b7001e007800e9
:103b10006a00b90000007800000f780007c8bf00f5
:103b20008080fb008100ea00cf08de008140780041
:103b30000040e90007e8b7000104e000e3ff3a00b5
:103b400009c8bf000040e80009e8b70038003700a6
:103b500005c8bf008080fb00ee419000629121000b
:103b600003f178000040e80005e8b70008c8bf008e
:103b70000040e90008e8b70008c8bf000004e00002
:103b80002a003a000000eb00100798000c003700f4
:103b90004e009000900078001e00900000804000d1
:103ba000629121009e0090008100410091407800c8
:103bb000014878001e0090000000e80010079800ff
:103bc00005c8bf008080fb001e009000808f500061
:103bd000efff3d004e009000900078001e00900026
:103be000008040008040eb00014878001e009000fb
:103bf0000000e900800078004e009000110098005d
:103c00000968ef000568ef000668ef00100020006b
:103c10000800370000000000050037000000000029
:103c20000300370000000000010037000000000022
:103c30000000eb000080fa00000006000600fa0019
:103c4000204798002107980004c8bf000004e00046
:103c500001003d000468ef0004c8bf008080fb0045
:103c6000ae4190006289210003f178000040e80035
:103c700004e8b7002e409000ea4f50001d003a00c3
:103c80000000eb00000f7800090037002e009000c4
:103c9000900078001e0078000080400061892100bb
:103ca0009e80400091407800014878001e0fe80097
:103cb00004c8bf000080fb009e0f5000f3ff3c00d3
:103cc0002e009000900078001e00780000804000d8
:103cd0008040eb000148780004c8bf008080fb00f2
:103ce0002e009000110098000468ef0010002000e2
:103cf000010037000000eb000080fa000000060021
:103d0000b600fa00e0c380000000e00027003200a7
:103d1000100280004500de00674060000080fb006c
:103d2000000f780011028000000e200001007000da
:103d300010028800000000006a00470044fa0700f3
:103d4000100798001e00780000407800674060006f
:103d50000080fb00670060004500dd00120280006b
:103d6000f1f12f0081006100010070001002880055
:103d7000000000001e0090000000e0000b00320078
:103d800010c0b300504f98000040eb00404f980027
:103d90006a0047007007980010002000000f98008c
:103da000e1c380006c0047000100010000c48000f6
:103db0000000e00027003200100280004500de0015
:103dc000674060000080fb0020079800110280001f
:103dd000000e2000010070001002880000000000aa
:103de0006a00470036fa0700100798002e0090007e
:103df00000407800674060000080fb0067006000c2
:103e00004500dd0012028000f1f12f008100610009
:103e10000100700010028800000000001e009000e9
:103e20000000e0000b00320020c0b30030579800c3
:103e300010c0b300205798006a004700200f980078
:103e400010002000300f980001c48000720047006d
:103e500001000100f0c380000000e0001200320009
:103e600040872000104078000004e0000e0032007f
:103e700010c0b300105f980020c0b300005f98002e
:103e80000000eb00500f98000000eb00600f98005e
:103e9000f1c3800078004700010001004087200046
:103ea0008040eb000148780010c480000000e00072
:103eb0001200320020e92000104078000004e000e9
:103ec0000e00320020c0b300705f980030c0b30015
:103ed000605f98000000eb00001798000000eb0006
:103ee0001017980011c480007e00470001000100f7
:103ef00020e920008040eb0001487800100280009b
:103f00004500de00674060000080fb00300798003d
:103f100011028000000e20000100700010028800d5
:103f2000000000006a0047008000780060862000e2
:103f3000290a0700100798003e0090000040780012
:103f4000674060000080fb00670060004500dd0006
:103f500012028000f1f12f00810061000100700069
:103f6000100288000000000030c480000000e00063
:103f7000170032001e0090000000e0001400320024
:103f800010c0b3005067980040c0b300406798006d
:103f9000600320000e004000301798000000eb0086
:103fa000401798002e489000410220008e8040006b
:103fb0008180e80021ff07000000e00004003200db
:103fc00031c48000400220000e00400001000100ca
:103fd000100280004500de00674060000080fb00aa
:103fe0004007980011028000000e200001007000c0
:103ff00010028800000000006a004700800078007e
:1040000040e82000f4090700100798004e009000d7
:1040100000407800674060000080fb00670060009f
:104020004500dd0012028000f1f12f0081006100e7
:1040300001007000100288000000000040c48000f1
:104040000000e000170032001e0090000000e000b9
:104050001400320020c0b300306f980050c0b3008d
:10406000206f9800600320000e0040006017980049
:104070000000eb00701798002e489000a10220006d
:104080008e8040008180e800ecfe07000000e00028
:104090000400320041c48000a00220000e00400055
:1040a0000100010050c480000000e0001700320051
:1040b0001e0090000000e0001400320020c0b30099
:1040c0001077980060c0b30000779800600320006c
:1040d0000e004000101f98000000eb00201f980009
:1040e0002e489000010320008e8040008180e8006f
:1040f00010fe07000000e0000400320051c4800000
:10410000000320000e00400001000100d0c3800029
:104110000000e0001000320061fd0700f10507001b
:1041200070080700e3020700180707003b0a0700b2
:104130004c090700d0c380000000e900d0c388000c
:10414000004080000000e0000300320000408000da
:104150000000e900004088000080fa00000006002e
:104160000400fa00100798000000eb00000f780030
:10417000000000001e0078009e00900000804000bb
:10418000104078000080fb000000ea004f00de00d5
:10419000004078001e0fe8000004e000f5ff3a0040
:1041a0001e00e9000080fa00000006000600fa0088
:1041b00010079800210798000000eb00000f78001e
:1041c000090037001e007800ae009000008040001b
:1041d0009e0078001e01900081004100914078000f
:1041e000014878001e0fe8001e0078009e00900035
:1041f00000804000104078000004e000f1ff3a0029
:104200001e007800ae009000008040008040eb006f
:10421000014878002e0090000080fa00000006009f
:104220000800fa001007980021079800320798004c
:104230000000eb00000f78000000eb00000f78009a
:104240000a0037001e007800be0090000080400089
:104250009e0078001e01900081004100914078008e
:10426000014878001e0fe8001e0fe8002e009000a5
:104270009e007800808f5000f2ff35001e0078000d
:10428000be009000008040008040eb0001487800b4
:104290003e0090000080fa00000006000c00fa00ca
:1042a00040079800510798005e009000acff07009f
:1042b000200798004e009000a9ff070030079800e3
:1042c000be0090002e009000808f500002003d0044
:1042d0000080eb00240037000000eb00000f7800a6
:1042e0000000eb00100798000000eb00000f7800c2
:1042f000180037001e007800ce00900000804000bb
:10430000904078001e0090005e0190000000410087
:104310001040780080cf50000b003a001e00900043
:104320000000e800100798009e0090002e0090000a
:10433000808f5000060035009e00e8002e0090009f
:1043400000805000080037000000eb0010079800c4
:104350001e0fe8003e0090009e007800808f500005
:10436000e4ff35000080eb000080fa00000006004a
:104370000e00fa0040079800510798006207980065
:104380006e00900076ff070020079800de00900086
:1043900031079800be0090002e009000808f5000e2
:1043a00002003d000080eb00240037000000eb001d
:1043b000000f78000000eb00100798000000eb00f1
:1043c000000f7800180037001e007800ce00900023
:1043d00000804000904078001e0090006e01900028
:1043e000000041001040780080cf50000b003a00e0
:1043f0001e0090000000e800100798009e0090004a
:104400002e009000808f5000060035009e00e800ce
:104410002e00900000805000080037000000eb00e4
:10442000100798001e0fe8003e0090009e007800e4
:10443000808f5000e4ff35000080eb000080fa0020
:10444000000006000e00fa0050079800610798006f
:104450006e00900042ff0700300798005e00900059
:104460003fff070040079800ce0090003e009000fc
:10447000808f500002003d000080eb0027003700d5
:104480000000eb00000f78003e0090000000e90003
:10449000100798000000eb00200798004e009000e5
:1044a000000fe900190037001e007800de009000c0
:1044b00000804000904078001e0090006e01900047
:1044c000000041001040780080cf50000c003a00fe
:1044d0001e0090000000e900100798002e009000d8
:1044e0000000e80020079800ae0090003e00900019
:1044f000808f5000040035001e0078000700370050
:104500000000eb00200798001e0fe9001e00780055
:104510000000e000e4ff3d000080eb000080fa00b6
:10452000000006000600fa00100798002107980016
:104530000000eb00000f78000000eb00000f780097
:10454000100037001e0078009e00900000804000a0
:104550009040780000c2b30080cf500008003200c5
:104560001e0078009e00900000804000904078007f
:104570002e009000014878001e00780008003700e7
:104580001e0fe8001e0078009e0090000080400092
:10459000104078000004e000eaff3a000000eb0061
:1045a0000080fa00000006000600fa0010079800dc
:1045b000414798000000eb00000f78000000eb007e
:1045c000000f78000a0037001e0078009e0090005f
:1045d00000804000904078004e40900080cf500016
:1045e00002003a001e007800080037001e0fe800a5
:1045f0001e0078009e00900000804000104078006f
:104600000004e000f0ff3a000080eb000080fa00b8
:10461000000006000800fa00200798006147980093
:104620002e009000cefe0700100798001e0090009c
:10463000000fe9000a0037001e007800ae0090006d
:1046400000804000904078006e40900080cf500085
:1046500002003a001e007800080037001e0fe90033
:104660001e007800ae0090000080400010407800ee
:104670000004e000f0ff3a000080eb000080fa0048
:10468000000006000800fa00200798003107980093
:104690002e009000b2fe0700100798001e00900048
:1046a000000fe900100037001e007800ae009000f7
:1046b000008040009040780000c2b30080cf5000de
:1046c000080032001e007800ae009000008040001c
:1046d000904078003e009000014878001e0078006d
:1046e000090037001e0fe9001e007800ae009000a0
:1046f00000804000104078000004e000eaff3a002b
:104700001e0090000000e9000080fa000000060092
:104710000c00fa0020079800310798004207980023
:10472000530798000000eb00000f78002e00900067
:104730008bfe0700100798004e0090000000e0007c
:1047400015003d000c0037001e007800de009000d0
:1047500000804000be0090002e01900081004100ca
:1047600091407800014878001e0fe8003e0090005c
:104770000000e800300798003e009000ae00900076
:1047800000804000104078000004e000eeff3a0096
:104790005e00900023003700be0090004e009000a5
:1047a000808040001e009000808f50000400340084
:1047b0005e0090008040eb00014878001800370050
:1047c0000000eb00000f78000c0037001e0078009e
:1047d000de00900000804000be0090002e0190009e
:1047e0008100410091407800014878003e0090002f
:1047f0000000e800300798001e0fe8004e0090000f
:104800009e007800808f5000f0ff35001e00780079
:10481000de009000008040008040eb0001487800fe
:104820005e0090000080fa00000006000e00fa0012
:1048300030079800410798005207980063079800d6
:104840003e00900046fe070020079800ce00900032
:104850002e009000808f500019003d00de00900077
:104860004e009000808f500015003500ce00900063
:10487000010f78000000eb00100798000c003700d3
:104880001e009000ee009000008040009e00780026
:104890003e0190008100410091407800014878007d
:1048a0001e0fe8001e0090000000e80010079800ae
:1048b0005e0090009e007800808f5000f0ff340072
:1048c0001e009000ee009000008040008040eb0051
:1048d000014878006e0090000080fa000000060099
:1048e0000e00fa00600798000000eb00000f78004f
:1048f0000000eb00100798001e009000ee009000f2
:104900000080400090407800d0c2b30080cf5000bb
:1049100006003a0010002000000f78001e009000f2
:104920000000e800100798000a0037001e00900001
:10493000ee0090000080400090407800b0c2b300cc
:1049400080cf500003003a001e0090000000e800f5
:10495000100798001e009000ee00900000804000bc
:10496000500798005e009000fdfd070020079800aa
:104970001e0078000000e000020032000080eb0022
:104980000100370010002000300798000000eb0005
:1049900040079800140037002e0090000000e90046
:1049a000200798002e009000de009000008040005c
:1049b000104078000000fb0001fd2f0080804000c7
:1049c0003e0090000088b90000007800ce00900002
:1049d00000804000400798003e0090006a00b90047
:1049e00000007800300798002e0090000000e000e2
:1049f000e9ff3a004e0090000080fa000000060037
:104a00000800fa0020079800310798000000eb002a
:104a1000000f78000000eb0010079800010037003d
:104a20001e0fe8001e007800ae00900000804000dd
:104a30009040780000c2b30080cf5000f8ff3200f1
:104a40000c0037001e009000be0090000080400067
:104a50009e0078002e019000810041009140780076
:104a6000014878001e0090000000e8001007980040
:104a70001e0fe8001e007800ae009000008040008d
:104a8000104078000004e000eeff3a001e009000a5
:104a9000be009000008040008040eb00014878009c
:104aa0003e0090000080fa00000006000800fa00b6
:104ab00020079800310798002e009000a8fd0700fd
:104ac000000fe900010037001e0fe9001e0078000a
:104ad000ae009000008040009040780000c2b3001b
:104ae00080cf5000f8ff32000000eb001007980064
:104af0000b0037001e009000be00900000804000b8
:104b00009e0090002e0190008100410091407800ad
:104b1000014878001e0090000000e800100798008f
:104b20009e00e8001e009000808f5000f1ff3c00c6
:104b30001e009000be009000008040008040eb000e
:104b4000014878003e0090000080fa000000060056
:104b50000c00fa003007980041079800224f980097
:104b60000000eb00000f78000000eb001007980039
:104b7000120037001e007800be0090000080400048
:104b800090407800414798001e0fe800ce4090000a
:104b90002e48900080cf5000080032001e00900088
:104ba000ce00900000804000ce4090000148780088
:104bb0001e0090000000e800100798001e0078001a
:104bc000be00900000804000104078000004e0002b
:104bd000e8ff3a001e009000ce00900000804000e8
:104be0008040eb00014878004e0090000080fa0001
:104bf000000006000c00fa003007980041079800fa
:104c0000224f9800334f98000000eb00000f78000f
:104c10000000eb0010079800180037001e00780015
:104c2000be0090000080400090407800414798000e
:104c30001e0fe800ce4090002e48900080cf50001c
:104c400006003a001e009000ce0090000080400058
:104c5000be48900001487800050037001e00900013
:104c6000ce00900000804000ce40900001487800c7
:104c70001e0090000000e800100798001e00780059
:104c8000be00900000804000104078000004e0006a
:104c9000e2ff3a001e009000ce009000008040002d
:104ca0008040eb00014878004e0090000080fa0040
:104cb000000006000400fa00a0a3210010079800dd
:104cc0000000eb00000f78005f0037001e0090002e
:104cd00010407800e14f500047003a001e0090005d
:104ce000104090000080fb00e10f500016003200e1
:104cf000e30f5000290032000000e0003e003a00bf
:104d00001e009000400090008000e8001e0090000f
:104d1000410098001e009000c00090001e0090000e
:104d200010009000808f50002e0039001e0090006f
:104d300011c0b300114098001e00780000407800b8
:104d4000380107002c0037001e0090004000900042
:104d50008000e8001e009000410098001e009000b6
:104d6000c00090001e009000200190001e009000e6
:104d70001000900000004100808f50001b0039009f
:104d80001e00900031c0b300114098001e00780052
:104d9000004078003c010700170037001e0090001b
:104da000400090008000e8001e0090004100980044
:104db0001e009000c00090001e0090003000900087
:104dc000808f50000b0039001e0090008040eb00e7
:104dd000114098001e0090008000eb0041009800f8
:104de000050037000000000003003700000000004d
:104df00001003700000000001e00900050009000ed
:104e00000000e0000c0032001e00900050009000f6
:104e10008000e9001e009000510098001e009000e4
:104e2000500090000000e00003003a001e007800ef
:104e300000407800140107001e0090006c00400044
:104e4000100798001e0fe8001e007800e30f5000c6
:104e50009eff34000080fa00000006000400fa0003
:104e6000004f7800110798001e80fb006c00b9000d
:104e70008000780040a42100008040009e00900047
:104e8000010878001e407800e60007000080fa0064
:104e9000000006000200fa00004f78001147980059
:104ea0001e80fb006c00b90080007800a0a32100e8
:104eb000008040009e409000014878000080fa0089
:104ec000000006000a00fa00204798002107980019
:104ed00032079800430798002e4090000080fb00a6
:104ee0006c00b90080007800a0a32100008f400072
:104ef0001e007800ae009000310098001e0078007f
:104f0000be009000110098001e007800ce009000b6
:104f1000210098001e00780011c0b30001487800fd
:104f20000080fa00000006000600fa002047980002
:104f3000210798002e4090000080fb006c00b90013
:104f400080007800a0a32100008f40001e007800a0
:104f5000ae009000310098001e0078002000900004
:104f6000ae009000808050001e0078001100980074
:104f70000080fa00000006000600fa0020479800b2
:104f8000210798002e4090000080fb006c00b900c3
:104f900080007800a0a32100008f40001e00780050
:104fa000ae009000210098001e007800b000900034
:104fb0002e009000808050001e00780011009800a4
:104fc0000080fa00000006000600fa002047980062
:104fd000210798002e4090000080fb006c00b90073
:104fe00080007800a0a32100008f40001e00780000
:104ff000ae009000110098001e007800b0009000f4
:105000002e009000808050001e0078002100980043
:105010000080fa00000006000200fa00004f78004d
:105020001e80fb006100600000f0a7000000ea00a5
:105030000000e9004f00de00004078000080fb0027
:10504000610060004200dd00211680000120a10007
:1050500001007000201688001e80fb0062006000c6
:1050600000f0a7000000ea000000e9004f00de00a9
:10507000004078000080fb00610060004400dd001b
:10508000211680000140a100010070002016880058
:105090001e80fb006400600000f0a7000000ea0032
:1050a0000000e9004f00de00004078000080fb00b7
:1050b000610060004200dd00611680000120a10057
:1050c00001007000601688001e80fb006800600010
:1050d00000f0a7000000ea000000e9004f00de0039
:1050e000004078000080fb00610060004300dd00ac
:1050f000611680000130a100010070006016880078
:105100000080fa00000006000000fa00601680002f
:105110004300de00614060000080fb004300dd00d2
:1051200080407800601680004200de006140600030
:105130000080fb004200dd000040780080c070006d
:10514000201680004400de00614060000080fb000b
:10515000000040000040780080c0700020168000f1
:105160004200de006140600000c070000080fa0074
:10517000000006000400fa00a0a321001007980018
:105180000000eb00000f7800190037001e009000af
:105190008040eb00014878001e00900011c0b30071
:1051a000114098001e0090008000eb004100980024
:1051b0009e0078001e009000110098001e009000d4
:1051c00021002000210098001e009000a100200076
:1051d000310098001e0090008000eb005100980004
:1051e0001e0090006c004000100798001e0fe800a1
:1051f0001e007800e30f5000e4ff3400c042a90015
:10520000c082a900c842a900c862a900c442a8007f
:10521000c482a800cc42a800cc62a8000080fa009a
:10522000000006000200fa00004f78001e80fb001c
:10523000e10f50000c003200e10f500003003c0071
:105240000000e000060032000d003700e20f5000c1
:1052500007003200e30f500007003200080037005b
:10526000c442a90006003700c482a9000400370028
:10527000cc42a90002003700cc62a9000000000067
:105280000080fa00000006000200fa00004f7800db
:105290001e80fb00e10f50000c003200e10f5000b7
:1052a00003003c000000e000060032000d00370063
:1052b000e20f500007003200e30f500007003200f9
:1052c00008003700c442a80006003700c482a800c6
:1052d00004003700cc42a80002003700cc62a800ce
:1052e000000000000080fa00000006000200fa0042
:1052f000004f78001e80fb00e10f500019003200c3
:10530000e10f500003003c000000e0000600320006
:1053100041003700e20f500021003200e30f50003f
:105320002e0032003c003700201680006400600030
:1053300000f0a7000000ea000000e9004f00de00d6
:10534000004078000080fb00610060004200dd004a
:10535000211680000120a1000100700020168800a5
:105360002d003700201680007000600000f0a700bc
:105370000000ea000000e9004f00de000040780075
:105380000080fb00610060004400dd002116800009
:105390000140a10001007000201688001e003700a7
:1053a000601680006400600000f0a7000000ea00c2
:1053b0000000e9004f00de00004078000080fb00a4
:1053c000610060004200dd00611680000120a10044
:1053d00001007000601688000f0037006016800022
:1053e0006800600000f0a7000000ea000000e9008b
:1053f0004f00de00004078000080fb00610060008c
:105400004300dd00611680000130a1000100700042
:1054100060168800000000000080fa00000006000e
:105420000200fa00004f78001e80fb00e10f5000e0
:1054300012003200e10f500003003c000000e000c9
:105440000600320025003700e20f50001300320042
:10545000e30f5000190032002000370010168000c2
:105460006400600000f0a7000000ea000000e9000e
:105470004f00de0000407800190037001016800051
:105480007000600000f0a7000000ea000000e900e2
:105490004f00de00004078001100370050168000f9
:1054a0006400600000f0a7000000ea000000e900ce
:1054b0004f00de00004078000900370050168000e1
:1054c0006800600000f0a7000000ea000000e900aa
:1054d0004f00de0000407800010037000040eb0084
:1054e0000080fa00000006000400fa00a0992100e4
:1054f000100798000000eb00000f78001c00370038
:105500001e0090008000eb00510098001e009000eb
:1055100080c0eb00014878001e0090008000eb0086
:10552000110098001e0090008040eb004140980060
:105530001e0090008000eb00310098001e009000db
:105540008000eb00610098001e0090008000eb00de
:10555000710098001e0090008000eb000108980088
:105560001e00900072004000100798001e0fe80017
:105570001e007800e40f5000e1ff34002228ef0005
:10558000500020000080fa00000006000800fa0029
:10559000200798003107980010418000e40f500068
:1055a000020034000000eb002f003700a09921001a
:1055b000100798000000eb00000f7800260037006d
:1055c0001e009000404090000004e0001e003a00e1
:1055d0001e00900031c0b300414098001e009000b2
:1055e0008000eb00310098001e00780080407800b9
:1055f0001e009000014878001e009000ae00900050
:10560000110098001e009000be009000510098000c
:105610001e00900011002000610098001e00900004
:105620008000eb00710098001e0090008000eb00ed
:1056300001089800104180000000e8001041880037
:105640001e009000080037001e009000720040000d
:10565000100798001e0fe8001e007800e40f5000ad
:10566000d7ff34000000eb000080fa0000000600c5
:105670000600fa0020079800104180000000e000ba
:1056800002003c000000eb002d003700a099210033
:10569000100798000000eb00000f7800240037008e
:1056a0009e0090002e009000808f50001c003a0059
:1056b0001e0090008000eb00510098001e0090003a
:1056c00080c0eb00014878001e0090006132290084
:1056d000110098001e0090008040eb0041409800af
:1056e0001e0090008000eb00310098001e0090002a
:1056f0008000eb00610098001e0090008000eb002d
:10570000710098001e0090008000eb0001089800d6
:10571000104180000000e9001041880007003700b8
:105720001e00900072004000100798001e0fe80055
:105730001e007800e40f5000d9ff34001000200054
:105740000080fa00000006000400fa00000f780054
:10575000110798001e007800404090000004e0000f
:1057600002003a000000eb00040037001e00780041
:105770009e00900051009800100020000080fa0068
:10578000000006000400fa00000f780011079800de
:105790001e007800404090000004e00002003a0043
:1057a0000000eb000a0037001e0078008000eb00cc
:1057b000610098001e00780021c0b30041409800ad
:1057c0001e0078009e00900041009800100020000c
:1057d0000080fa00000006000200fa00000f7800c6
:1057e0001e007800404090000004e00002003a00f3
:1057f0000000eb000d0037001e00780040409000d4
:10580000e24f500008003a001e0078008000eb00d4
:10581000610098001e00780031c0b300414098003c
:1058200010002000010037000000eb000080fa00ab
:10583000000006000400fa00000f7800110798002d
:105840001e007800404090000004e00002003a0092
:105850000000eb000a0037001e0078008000eb001b
:10586000610098001e00780011c0b300414098000c
:105870001e0078009e00900041009800100020005b
:105880000080fa00000006000400fa00000f780013
:10589000110798001e007800404090000004e000ce
:1058a00002003a000000eb000c0037001e007800f8
:1058b0009e0090001101be0072009800030898003d
:1058c0001e00780041002000610098001e00780052
:1058d00031c0b30041409800100020000080fa0061
:1058e000000006001400fa000000eb00100798000a
:1058f0000000eb0020079800a099210030079800d5
:105900000000eb00000f78005c0037003e009000c4
:10591000404090000004e000540032003e0090003f
:1059200040409000e24f5000040032003e009000e2
:1059300040409000e14f500018003a003e009000b7
:10594000400090000000e0000f003a003e00900090
:1059500040409000e24f500004003a003e009000aa
:105960002100200061009800030037003e009000f5
:1059700051002000610098003e00900031c0b3004b
:1059800041409800050037003e0090004000900024
:105990008000e9003e009000410098003e00900029
:1059a00040409000e34f500029003a002e00900044
:1059b0000000e8002007980010c0b300204f9800b6
:1059c0003e00900050009000100f9800be00900024
:1059d000610798003e00900010009000700798004a
:1059e0003e00900010009000ddf90700000f9800c5
:1059f000100280004500de00674060000080fb0070
:105a00004007980011028000000e20000100700085
:105a100010028800000000006a004700a70307008a
:105a20004e00900000407800674060000080fb005e
:105a3000670060004500dd0012028000f1f12f00d8
:105a40008100610001007000100288000000000069
:105a50001e0090000000e800100798001041800030
:105a60009e009000808f50000b003d003e00900093
:105a700072004000300798001e0fe8001e007800fa
:105a8000e40f500005003c00104180000000e000e1
:105a90009eff3c0001003700000000002e00900037
:105aa0000080fa00000006000400fa00c882a80086
:105ab000c8a2a800c8c2a800c8e2a800a0a62100e9
:105ac000100798000000eb00000f7800110037006d
:105ad0001e007800804078001e0090001140980061
:105ae0001e0090008040eb00414098001e00900096
:105af0008000eb00310098001e0090008000eb0059
:105b0000410098001e0090006a00400010079800b5
:105b10001e0fe8001e007800e30f5000ecff340079
:105b20000080fa00000006000400fa00004f780030
:105b3000110798001e80fb006a00b9008000780001
:105b400020a72100008040009e00900001087800fe
:105b5000100020000080fa00000006000200fa0099
:105b6000004f78001e80fb00e10f50001200320051
:105b7000e10f500003003c000000e000060032008e
:105b800028003700e20f500014003200e30f5000ed
:105b90001b003200230037005016800070006000a8
:105ba00000f0a7000000ea000000e9004f00de005e
:105bb000004078001c0037005116800000022000d1
:105bc0000080600000f0a7000000ea000000e9008b
:105bd0004f00de00004078001300370051168000af
:105be000000420000080600000f0a7000000ea0030
:105bf0000000e9004f00de00004078000a00370096
:105c000051168000000820000080600000f0a7000e
:105c10000000ea000000e9004f00de0000407800cc
:105c2000010037000040eb000080fa000000060091
:105c30000400fa00501680004400de0010079800af
:105c40001e0090006f006800100798001e00900072
:105c50006f006000100798000000eb00000f780054
:105c60000c0037001e0090006100600000407800ca
:105c70000004e000030032001e00780000407800bd
:105c8000080037001e0090000080d1001007980027
:105c90001e0fe8001e007800e30f5000f1ff3400f3
:105ca000f0c0b3000080fa00000006000000fa0017
:105cb000501680004400de00004078006f40600015
:105cc0000080fa00000006001000fa00604f980003
:105cd0006e4890000080fb006a00b90080007800e8
:105ce000a0a62100008f40001e0078004000900018
:105cf0000000e0002300320020c0b30040479800bd
:105d00001e00780040009000600798009e00780018
:105d1000310798001e00e80040079800100020009e
:105d200050079800100280004500de0067406000c8
:105d30000080fb001007980011028000000e200078
:105d4000010070001002880000000000640047009d
:105d5000da0207001e0090000040780067406000f3
:105d60000080fb00670060004500dd00120280003b
:105d7000f1f12f0081006100010070001002880025
:105d8000000000000080fa00000006000400fa0095
:105d9000a0a62100100798000000eb00000f78007b
:105da000800037001e009000400090000000e000de
:105db000780032001e0090001040900067ff07003e
:105dc0000004e0000d003a001e0090008000eb008f
:105dd000310098001e0090008040eb0001487800e0
:105de0001e0090008040eb00414098001e00900093
:105df0006a00400010079800690037001e009000fc
:105e0000104078000080fb00e10f500021003200bc
:105e1000e20f5000340032000000e0005d003a0064
:105e20001e009000b000900010c0b300f48f50002e
:105e300001003e000040eb000101e8009e009000e0
:105e4000b20098000004e0004d0032001e009000f7
:105e50008000eb00310098001e00900011c0b300dc
:105e6000414098001e00900011c0b3000148780026
:105e70001e009000100090008000e8001e009000be
:105e8000110098001e009000104090008eff070047
:105e9000400037001e009000b000900010c0b3001a
:105ea000823e2000828f500001003e000040eb0047
:105eb0000101e8009e009000b20098000004e0009c
:105ec000310032001e0090008000eb00310098008d
:105ed000000f2000f04088001e00900021c0b30099
:105ee000014878002b0037001e009000b0009000a1
:105ef000f240800010c0b300828f500001003e00cd
:105f00000040eb000101e8009e009000b200980004
:105f10000004e0001e0032001e0090008000eb0034
:105f2000310098001e009000100090008000e800f2
:105f30001e00900011009800f14080002003200016
:105f4000808f500007003600f04080007400500041
:105f5000f04088001e00900021c0b300414098002e
:105f6000030037001e00900031c0b300414098008c
:105f70001e0090001040900053ff070005003700fe
:105f8000000000000300370000000000010037009f
:105f9000000000001e0090006a00400010079800fa
:105fa0001e0fe8001e007800e30f50007dff340054
:105fb0000040eb000080fa00000006000400fa0038
:105fc000409f2100100798000000eb00000f7800b0
:105fd000190037001e0090008080eb00110098002f
:105fe0001e0090008000eb00010878001e00900069
:105ff0008000eb00610098001e0090008000eb0024
:10600000310098001e0090008000eb0021009800f5
:106010001e0090008080eb00410098001e00900060
:106020008000eb00510098001e0090006e004000c0
:10603000100798001e0fe8001e007800e40f5000c3
:10604000e4ff34002028ef00500020000080fa0018
:10605000000006000c00fa002007980031079800a5
:10606000420798005307980000418000e40f500059
:10607000020034000000eb002b003700409f21009d
:10608000100798000000eb00000f78002200370096
:106090001e009000500090000000e0001a003a003e
:1060a0009e0078001e009000110098001e009000d5
:1060b000ae009000010878001e009000de00900005
:1060c000610098001e009000be0090003100980012
:1060d0001e009000be009000210098001e0090005d
:1060e000ce009000410098001e009000210020008a
:1060f00051009800004180000000e8000041880045
:106100001e009000080037001e0090006e00400046
:10611000100798001e0fe8001e007800e40f5000e2
:10612000dbff34000000eb000080fa0000000600f6
:106130000600fa00200798002e0090005000900002
:106140000000e00002003a000000eb0025003700ec
:10615000409f2100100798000000eb00000f78001e
:106160001c0037009e0090002e009000808f500091
:1061700014003a001e0090008080eb00110098008f
:106180001e0090008000eb00010878001e009000c7
:106190008000eb00610098001e0090008080eb0002
:1061a000410098001e0090008000eb005100980014
:1061b000004180000000e90000418800100020003c
:1061c000080037001e0090006e0040001007980085
:1061d0001e0fe8001e007800e40f5000e1ff3400bd
:1061e0000000eb000080fa00000006000400fa0046
:1061f000000f7800110798001e00780050009000f2
:106200000000e00002003a000000eb00040037004c
:106210001e0078009e009000610098001000200091
:106220000080fa00000006000400fa00000f780069
:10623000110798001e007800500090000000e00058
:1062400002003a000000eb00040037001e00780056
:106250009e00900021009800100020000080fa00ad
:10626000000006000200fa00000f78001e0078000f
:10627000500090000000e00002003a000000eb0037
:10628000040037001e007800110020005100980023
:10629000100020000080fa00000006000200fa0052
:1062a000000f78001e007800500090000000e00011
:1062b00002003a000000eb00080037001e007800e2
:1062c00021002000510098001e007800a0009000de
:1062d0001e00780031009800100020000080fa00b5
:1062e000000006001400fa000000eb001007980000
:1062f0000000eb0020079800409f21003007980025
:106300000000eb00000f7800540037003e009000c2
:10631000500090000000e0004c0032003e00900071
:1063200050009000e10f5000480032003e00900005
:10633000300090000000e000050032003e009000b8
:10634000300090008000e9003e009000310098008d
:106350003e009000300090000000e00034003a0061
:106360003e009000a00090003e0090003100980098
:106370003e009000400090000000e00003003a0062
:106380003e00900011002000510098002e00900067
:106390000000e800200798000040eb00204f980024
:1063a0003e00900060009000100f9800be0090002a
:1063b000610798003e009000100078007007980078
:1063c0003e0090001000780065f70700000f98006d
:1063d000100280004500de00674060000080fb0086
:1063e0004007980011028000000e2000010070009c
:1063f00010028800000000006a0047002f0107001b
:106400004e00900000407800674060000080fb0074
:10641000670060004500dd0012028000f1f12f00ee
:10642000810061000100700010028800000000007f
:106430001e0090000000e800100798000041800056
:106440009e009000808f500008003d003e009000ac
:106450006e004000300798001e0fe8001e00780014
:10646000e40f5000a9ff34000100370000000000d5
:106470002e0090000080fa00000006000000fa00e4
:1064800081088000f0fc2f000080600080088800f8
:106490001061a9001021a90010c1a90011e1a900f3
:1064a000b04080006008880094e0a900100020003f
:1064b000100c8800b04080004300de00000c880013
:1064c000210c800080ff2f00008060005000b3008e
:1064d000200c88008461a900170207005136800053
:1064e000f00f2e008080600000202100010070006d
:1064f000503688000080fa00000006000800fa000c
:10650000881f780020079800310798002e0190001e
:10651000be0190000040220041b7240016ef0700a2
:10652000008fbe0018c0b30002002000030024004a
:106530001e00be0052ef07000000e0000100350021
:106540000044eb000804e0000300320000002000db
:1065500001002400008fbe001e00be004aef0700ad
:1065600000007800b0408800b040800060088800db
:1065700010002000100c8800b04080004300de00b6
:106580000080e800000c88004f0478000080fa00ca
:10659000000006000800fa00200798003107980064
:1065a000b04080004300de000080e8008000eb0087
:1065b00050ef07002e019000be019000a2ef0700ef
:1065c000008fbe001e00be002fef07000000780005
:1065d000000c8800000c8000e10f500001003e001c
:1065e00011e1a9000080fa00000006000200fa0094
:1065f000000f78009e007800c1408800c0408000f5
:1066000000f0a7000000ea000000ea004f00de00f2
:10661000004078000080fb004f00dd008208800011
:10662000f1ff2700810061000100700080088800f0
:106630000621ef00800880004f00de000040780057
:106640001ce8b70051368000f00f2e0080806000fb
:106650000020210001007000503688000080fa0000
:10666000000006000000fa001cc8bf000004e000a3
:1066700010003200d04080000000e800d0408800c8
:10668000d1408000c0408000808f50000a00390057
:106690001a28ef001c68ef0011e1a9000621ef00a5
:1066a00051368000f00f2e000080600050368800c8
:1066b00001003700000000000080fa000000060022
:1066c0000600fa00000f78001107980022079800d2
:1066d0001e007800ae009000410098001e00780077
:1066e0009e009000010878001e0078008000eb00fa
:1066f000110098001e0078008000eb002100980037
:106700001e0078008000eb00310098001e00780029
:106710008000eb00510098000080fa0000000600a5
:106720000400fa00000f7800214798001e0078004e
:10673000b00090001e00780040009000808f500054
:10674000050039001e00780021002000510098004b
:106750000000eb001e0037001e007800900078005b
:106760001e0078001000900000804000ae409000b5
:10677000014878001e007800100090008000e800ba
:106780001e007800110098001e0078003000900074
:106790008000e8001e007800310098001e0078009c
:1067a000900090001e00780040009000808f500004
:1067b000030039001e0078008000eb0011009800f3
:1067c0001e0078008000eb005100980010002000af
:1067d0000080fa00000006000400fa00000f7800b4
:1067e000110798001e007800300090000000e000c3
:1067f00008003a001e0090008040eb00014878003d
:106800001e00780011002000510098000000eb00ed
:106810001f0037001e007800900078001e007800ee
:106820002000900000804000904078001e00900002
:10683000014878001e007800200090008000e800e9
:106840001e007800210098001e00780030009000a3
:106850008000e9001e007800310098001e007800da
:10686000a00090001e00780040009000808f500033
:10687000030039001e0078008000eb002100980022
:106880001e0078008000eb005100980010002000ee
:106890000080fa00000006000200fa00000f7800f5
:1068a0001e007800c00090001e00780030009000ac
:1068b000008050000080fa00000006000200fa008c
:1068c000000f780080c38000ff0f500002003600e8
:1068d0000000eb001d00370060c380006a00b900b3
:1068e00080007800c0722100808040001e00780087
:1068f000b0187800a0107800e480400064004000e8
:10690000b0187800a0107800e480400064004000d7
:10691000900878008180e8000080e80080c3800053
:106920000000e80080c3880060c380000000e80029
:1069300060c3880060c38000ff0f50000200360073
:106940000000eb0060c38800100020000080fa0007
:10695000000006000200fa00000f780080c38000eb
:106960000000e00002003a000000eb001e003700cb
:1069700070c380001e0178006a00b90080007800b2
:10698000c07221000080400082007800b0187800ba
:10699000a0107800e480400064004000b018780047
:1069a000a0107800e4804000640040009008780067
:1069b0008180e8000080e80080c380000000e900da
:1069c00080c3880070c380000000e80070c38800a6
:1069d00070c38000ff0f5000020036000000eb0083
:1069e00070c38800100020000080fa00000006003c
:1069f0000a00fa0003003700ce0090000e00780075
:106a0000010001000e007800d2ff07000000e00046
:106a1000f9ff3a000080fa00000006000000fa00ca
:106a20000080fa00000006000000fa0012c1a90070
:106a30001221a90091088000f0fc2f000080600066
:106a40009008880000dc2500700888000a21ef000b
:106a50009500a90013e1a8000080fa0000000600dc
:106a60000000fa000080fa00000006000200fa00b0
:106a7000000f7800a18020001e0078000000400078
:106a800000804000100078000080fa00000006003e
:106a90000000fa00f0c1b30024e3b7002119800020
:106aa000f00f2e00008060000080a00020198800f8
:106ab00025e3a90021e3a90021a3a9000119800071
:106ac000f0cf2f00008060000019880001198000bd
:106ad000f0f12f00008060000060a0000019880025
:106ae0002043a80011198000f0ff21000080600001
:106af000101988002343a8001119800030fc2f00d2
:106b000000806000c000b300101988002203a900b3
:106b10002c03a9002c23a9002c43a9002c63a90055
:106b2000001680000000a0000016880000168000fb
:106b30000010a00000168800401680000000a00091
:106b400040168800401680000010a0004016880003
:106b50003003a8003023a8003043a8003063a80009
:106b600021e3a80095a0a800afff07000080fa006d
:106b7000000006000200fa000000eb00000f7800a1
:106b80007f00070000402200410f20008a0007001c
:106b900000202c00110020000fef070000202c0027
:106ba0001100200090ef070072f90700b8ff0700fe
:106bb000bdfb070031fe070052f3070030c0b300f1
:106bc00098f90700030037000000000001003700bb
:106bd000000000002df307000004e000faff32007f
:106be0001e0fe800401f20009e007800808f50009c
:106bf000070036000000eb00000f78000040eb00bb
:106c0000baf9070030c0b300b8f90700f1ff370048
:106c10009e007800a00f20000001780011000900fc
:106c20008280d8008000fd000000e00003003a00f0
:106c300020c0b300adf90700e6ff370020032000b5
:106c40009e007800808f500003003a0010c0b3000f
:106c500074f90700dfff3700a00520009e007800d0
:106c6000808f5000daff3a0010c0b30086f90700a9
:046c7000d8ff370012
:020000040000fa
:106c740012080000040000000000000024080000c6
:106c8400080f0000000000003a1a00003000000065
:106c9400000000007218000028010000000000003d
:106ca400000800000a000000000000006a1a00004a
:106cb40028000000000000001e0800000200000080
:106cc40002000000f0000000f4190000460000007b
:106cd4000000000020080000020000000000000086
:106ce4009a1900005a000000000000002208000069
:106cf40002000000000000000a0800000800000074
:106d0400000000001608000004000000020000005b
:106d1400401f1400000000001a08000004000000d6
:106d2400000000002c1700004601000000000000d5
:046d3400000000005b
:020000040000fa
:106d38000000fa002174200062042000730520007e
:106d4800824878008348780042c7a9000080fa008a
:106d5800000006000000fa002174200062042000f0
:106d680073052000824878008348780042c7a8004d
:106d78000080fa00000006000000fa00213a8000b6
:106d8800f08f2f0000806000203a88004567a90036
:106d9800213a8000f0ff280000806000203a880037
:106da8000080eb00601988000080fa0000000600ef
:020000040000fa
:106db800f03fb1000180b10006003500ee03090084
:106dc80000000000403fb1000180b100fbff3d0022
:106dd8001000b000203fb00002003500008009001c
:086de80000000000000006009d
:020000040000fa
:020000040001f9
:0407f8004f79000035
:020000040000fa
:020000040001f9
:0407fc002a1d0000b2
:00000001FF
