:020000040000fa
:08000000020c040000000000e6
:020000040000fa
:100008000e1000000e1000000e1000000e10000070
:100018000e1000000e1000000e1000000e10000060
:100028000e1000000e1000000e100000520f00000d
:100038000e1000000e1000000e1000000e10000040
:10004800fa0f00000e1000000e100000de0c000079
:100058009e0d0000ae0f00000e1000000e100000f4
:100068000e1000000e1000000e1000000e10000010
:100078000e1000000e1000000e1000000e10000000
:100088000e1000000e1000000e1000000e100000f0
:100098000e1000000e1000001c0e0000dc0e000008
:1000a8000e1000000e1000000e1000000e100000d0
:1000b8000e1000000e1000000e1000000e100000c0
:1000c8000e1000000e1000000e1000000e100000b0
:1000d8000e1000000e1000000e1000000e100000a0
:1000e8000e1000000e1000000e1000000e10000090
:1000f8000e1000000e1000000e1000000e10000080
:100108000e1000000e1000000e1000000e1000006f
:100118000e1000000e1000000e1000000e1000005f
:100128000e1000000e1000000e1000000e1000004f
:100138000e1000000e1000000e1000000e1000003f
:100148000e1000000e1000000e1000000e1000002f
:100158000e1000000e1000000e1000000e1000001f
:100168000e1000000e1000000e1000000e1000000f
:100178000e1000000e1000000e1000000e100000ff
:100188000e1000000e1000000e1000000e100000ef
:100198000e1000000e1000000e1000000e100000df
:1001a8000e1000000e1000000e1000000e100000cf
:1001b8000e1000000e1000000e1000000e100000bf
:1001c8000e1000000e1000000e1000000e100000af
:1001d8000e1000000e1000000e1000000e1000009f
:1001e8000e1000000e1000000e1000000e1000008f
:0801f8000e1000000e100000c3
:020000040000fa
:100208000e1000000e1000000e1000000e1000006e
:100218000e1000000e1000000e1000000e1000005e
:100228000e1000000e1000000e100000520f00000b
:100238000e1000000e1000000e1000000e1000003e
:10024800fa0f00000e1000000e100000de0c000077
:100258009e0d0000ae0f00000e1000000e100000f2
:100268000e1000000e1000000e1000000e1000000e
:100278000e1000000e1000000e1000000e100000fe
:100288000e1000000e1000000e1000000e100000ee
:100298000e1000000e1000001c0e0000dc0e000006
:1002a8000e1000000e1000000e1000000e100000ce
:1002b8000e1000000e1000000e1000000e100000be
:1002c8000e1000000e1000000e1000000e100000ae
:1002d8000e1000000e1000000e1000000e1000009e
:1002e8000e1000000e1000000e1000000e1000008e
:1002f8000e1000000e1000000e1000000e1000007e
:100308000e1000000e1000000e1000000e1000006d
:100318000e1000000e1000000e1000000e1000005d
:100328000e1000000e1000000e1000000e1000004d
:100338000e1000000e1000000e1000000e1000003d
:100348000e1000000e1000000e1000000e1000002d
:100358000e1000000e1000000e1000000e1000001d
:100368000e1000000e1000000e1000000e1000000d
:100378000e1000000e1000000e1000000e100000fd
:100388000e1000000e1000000e1000000e100000ed
:100398000e1000000e1000000e1000000e100000dd
:1003a8000e1000000e1000000e1000000e100000cd
:1003b8000e1000000e1000000e1000000e100000bd
:1003c8000e1000000e1000000e1000000e100000ad
:1003d8000e1000000e1000000e1000000e1000009d
:1003e8000e1000000e1000000e1000000e1000008d
:0803f8000e1000000e100000c1
:020000040000fa
:10180000010000004f5322000e7f22000e018800cd
:1018100000000000000020000000e0000200320094
:101820000001200020028800140007001e020700ab
:101830000000e00003003a00605226000100200092
:10184000020037000000200001002000810f70001e
:101850000100320014000700000020000000e0003a
:101860000200320000000200000000009864020044
:10187000000000000040da000000fe004440a90023
:10188000006221000000e0000300320000002000a0
:10189000a00188004440a800000006008a1f7800cc
:1018a0008b1f7800000006009101880080047800fa
:1018b0000000eb001a003700e284440032a0b400bc
:1018c0009905ba00e284440032a0b4009906ba0037
:1018d000e284440032a0b4000006eb00476fde0053
:1018e000fd07b200636ce10003003a00ebff070064
:1018f0000000eb000a003700606ce10004003a00d1
:10190000005deb008b05e900fdff3e0004003700a1
:101910006168e100010032000086eb000b00070067
:1019200019c7ba001905ba000e04e00003003a0016
:101930000a00e000e0ff3a0000000600fe07b200e7
:101940009e0188008a047800f5ff3700395dba00ef
:101950008b05e9000c003200295dba008b05e90017
:10196000080032000c00e00003003a00e28444006a
:1019700032a0b400f5ff370019ddba008b05e9008d
:10198000faff3a008904e800e184440032a0b40080
:101990000000060000000000000000000000000041
:1019a0000000000000000000000000000000000037
:1019b0000000000000000000000000003600f800f9
:1019c000809fbe00829fbe00849fbe00869fbe0097
:1019d0003400f80000002000a00188000400fa0094
:1019e0008560a900f083200011c0b3000148780091
:1019f0003011800080407800e083200001487800aa
:101a0000100280004500de00674060000080fb009f
:101a1000000f780011028000000e2000010070000d
:101a20001002880000000000e083200010407800d1
:101a300080407800008820004d2d07001e007800af
:101a400000407800674060000080fb006700600095
:101a50004500dd0012028000f1f12f0081006100dd
:101a600001007000100288000000000010028000d9
:101a70004500de00674060000080fb001007980012
:101a800011028000000e200001007000100288008a
:101a900000000000d2998000e08320009040780090
:101aa000a02b21000000410001487800d09980005f
:101ab0000000e800d0998800d1998000f00720004c
:101ac000808f5000020036000000eb00d0998800a3
:101ad000f1998000f0072000808f500003003e0045
:101ae000f09980000000e800f09988001e00900046
:101af00000407800674060000080fb0067006000e5
:101b00004500dd0012028000f1f12f00810061002c
:101b10000100700010028800000000000080fa0040
:101b20003400f9004f03be004f02be004f01be005b
:101b30004f00be003600f900004006003600f800f5
:101b4000809fbe00829fbe00849fbe00869fbe0015
:101b50003400f80000002000a00188000400fa0012
:101b60008580a900d088200011c0b300014878000a
:101b7000100280004500de00674060000080fb002e
:101b8000000f780011028000000e2000010070009c
:101b90001002880000000000630047008000780009
:101ba00000a92000202d0700204798001e00780083
:101bb00000407800674060000080fb006700600024
:101bc0004500dd0012028000f1f12f00810061006c
:101bd0000100700010028800000000002e409000fc
:101be0000004e00008003200be409000c0882000e1
:101bf00001487800c0882000104078000080fb0079
:101c000020118800040037009580a900e08820009a
:101c100011c0b300014878000080fa003400f900d8
:101c20004f03be004f02be004f01be004f00be007a
:101c30003600f900004006003600f800809fbe0024
:101c4000829fbe00849fbe00869fbe003400f800c5
:101c500000002000a00188000400fa0087c0a9004d
:101c6000d0a9200011c0b30001487800b011800055
:101c700080407800c0a92000014878001002800050
:101c80004500de00674060000080fb00000f780028
:101c900011028000000e2000010070001002880078
:101ca00000000000c0a920001040780080407800ab
:101cb000e0e92000ae2c07001e007800004078000c
:101cc000674060000080fb00670060004500dd00a9
:101cd00012028000f1f12f0081006100010070000c
:101ce0001002880000000000100280004500de00a5
:101cf000674060000080fb00100798001102800020
:101d0000000e20000100700010028800000000009a
:101d100002ba8000c0a92000904078000034210061
:101d2000000041000148780000ba80000000e8008f
:101d300000ba880001ba8000f03f2000808f500078
:101d4000020036000000eb0000ba880021ba8000d3
:101d5000f03f2000808f500003003e0020ba80003a
:101d60000000e80020ba88001e00900000407800c3
:101d7000674060000080fb00670060004500dd00f8
:101d800012028000f1f12f0081006100010070005b
:101d900010028800000000000080fa003400f90002
:101da0004f03be004f02be004f01be004f00be00f9
:101db0003600f900004006003600f800809fbe00a3
:101dc000829fbe00849fbe00869fbe003400f80044
:101dd00000002000a00188000400fa0087e0a900ac
:101de000b0ea200011c0b300014878001002800062
:101df0004500de00674060000080fb00000f7800b7
:101e000011028000000e2000010070001002880006
:101e1000000000006300470080007800e02a2100f5
:101e2000812c0700204798001e00780000407800b1
:101e3000674060000080fb00670060004500dd0037
:101e400012028000f1f12f0081006100010070009a
:101e500010028800000000002e4090000004e00006
:101e6000040032003e4090000080fb00a01188007a
:101e70000400370097e0a900c0ea200011c0b300b9
:101e8000014878000080fa003400f9004f03be00da
:101e90004f02be004f01be004f00be003600f900e9
:101ea000004006003600f800809fbe00829fbe0002
:101eb000849fbe00869fbe003400f8000000200012
:101ec000a00188000000fa008460a9001000200032
:101ed00040d0880030d080000000e80030d088007a
:101ee00050d0800061d0800061004000e080480058
:101ef00050d0880061d0880070d080000000e800d9
:101f000070d08800c0d080000000e0000b003200dc
:101f100031d08000b040800000017800110009003d
:101f20008280d8008000fd000000e00003003a003d
:101f3000c1d0800060a02100010001000080fa00f3
:101f40003400f9004f03be004f02be004f01be0037
:101f50004f00be003600f90000400600809fbe0022
:101f60003400f80000002000a00188000000fa0002
:101f700085a0a900e0812000900078000018800072
:101f8000008040008000d100e0812000010878003e
:101f9000e081200090009000101880000080400038
:101fa0008000d100e081200011009800e081200035
:101fb000a000900020188000008040008000d10028
:101fc000e081200021009800e0812000b000900016
:101fd00030188000008040008000d100e0812000a7
:101fe000310098000080fa003400f9004f00be0074
:101ff000004006003400f800881f78000800200028
:10200000a80188004f0478000000fa008500a900ac
:102010000080fa003400f900004006000040da00b9
:102020000000fe00889fbe008004780090e98000d8
:102030000000e00004003a000e0007000084eb00fe
:102040000000e0000800350098e980000900e00089
:102050000500320009004400060007000000e0000f
:1020600001003d000084eb00080078004f04be0032
:1020700000000600800078000100e00003003a0044
:1020800040d3210090e98800000005000080eb00ab
:1020900042532200828f500002003e0091e98800e6
:1020a0000000eb00000006000000050003f0a200a5
:1020b000889fbe008a9fbe008c1f7800f800070032
:1020c000ff0033006450e1004f0032006420e10063
:1020d0005200320003826c0007003b000905d0006b
:1020e0000306d000820f54000c065d000200390088
:1020f00002003200890178000306780085825500cd
:1021000004003d000003fd008103fd008502ea009c
:102110008b854200840f720002003b0060001000bb
:10212000e08018006011b8000005eb007a28e1009b
:102130000a00390006007800c75ddd00f707b2002d
:10214000878075002d003700828171000a017800b8
:10215000610560008180d1000080d3008502e90024
:10216000f9ff3b00060440008784480002003b0062
:1021700060041400e0841c000988a30007003200fa
:102180008a81710082817100610164008904d1003b
:102190000884d3008b05e800170037000978a300f6
:1021a00013003a000b00e000130034008b05e90037
:1021b0000804440089844c000a4474000978a30090
:1021c0000d003a000b00e000070034008b05e90029
:1021d0000804440089844c0001003a000b002000f0
:1021e0000978a300f7ff32000001eb00020037007e
:1021f000828171000a0178006e0007000cf0a700d0
:1022000001f0a000b70037006420e10002003a00ae
:10221000838f6c00b70033000801be000200be00cf
:10222000b0003700889fbe008a9fbe008c1f7800d8
:102230009b000700a200330003866c006450e1009d
:102240002e0032006420e100330032006150e100d2
:102250002f0032006120e1003100320085855500f9
:10226000eb07b0000900200008042000050037003b
:102270000804440089844c000a003100060343002e
:1022800087834b000001530081815b00f8ff33001e
:102290000203be000800a0000804440089844c002a
:1022a000f6ff3900c639dd008301730001003200fa
:1022b000130020008904d1000884d3000998a300ea
:1022c000050032000800a7000300a0008904d10027
:1022d0000884d3008b05e8008904d1000884d3006a
:1022e0000001eb000281d2003200070001f0a100e2
:1022f0000cf0a70001f0a0007a0037006420e10094
:102300007c0032000801be000200be00f7ff37006b
:102310006120e100770032006000b800f3ff370071
:102320000000200001f82700f0ff37001400200013
:10233000a70037000001be00440007000470a7009a
:1023400003f0a10003f8a30013003a006509b100ef
:1023500010003200090035006928e1000200350054
:1023600001002800000005000000400081804800b6
:102370008502e900fcff3a0000000600f88f4200e9
:10238000050035008100d1000080d3008502e800ff
:10239000fcff3a00000006008000eb000000050092
:1023a0004f89de0082017800a40037006011b80078
:1023b000b200370081002000618055000b003d0015
:1023c0000b00200061fe2f000100e1001d00340021
:1023d00082817100610164008904d1000884d30006
:1023e0000000e800faff3a0071002000610064007c
:1023f0000300700002006000090032006104440024
:10240000e0844c000988a500050032008b05e80037
:102410006808e10002003a008904d1000884d30072
:10242000f20f20000258e10005003d00c75ddd000d
:10243000f907b200898075000800780000000600e6
:102440000bf827008b00780000000500c70ade00ab
:10245000f107b200f50fb20008003200e1cf4200f0
:10246000020032000170a00024000500810f7000fe
:10247000010032000408050044000500810f7000cf
:1024800002003a00140005008502e9000000400047
:1024900081c04800fcff3b000170a0002400050043
:1024a0000004be00e9ff07000003be000405be00f3
:1024b0000200be00e5ff0700844f75000000060023
:1024c0000200be006450e100050036006420e10017
:1024d000020036000968a30001003a000800be00af
:1024e0000160a0004f0678004f05be004f04be00fb
:1024f00000000600f0ff2f00f1ff2700f9ff370072
:10250000889fbe008a9fbe008c1f7800e4ff0700f2
:10251000ebff330003866c006450e10024003200be
:102520006420e100270032006150e1002200320007
:102530006120e100210032008b854200eb07b100f1
:102540000134b800003ab8000804420089844a0007
:10255000013ab8000030b8008880400009014a0004
:10256000040033000000400081804800020149005f
:102570008b05e900c909dd0083017000010032000c
:1025800013002000c814de004814dd004709de00f7
:102590001200b200c808de000884700085ff070042
:1025a00001f0a1000cf0a70001f0a000cdff370062
:1025b0006120e100cfff32000801be000200be0032
:1025c000f7ff37006150e100fcff3a00c9ff370018
:1025d000889fbe008a9fbe00841f7800b0ff07005e
:1025e0004f00780011003300f0ff2f00838f6c0044
:1025f00006003b00040565000a00a700080037003c
:1026000009f0a6001000200008003700820f5400d7
:10261000838f5c00030039001000200001003e00a1
:102620000000200009f0a7000000ea004f05be00ee
:102630004f04be000000e00000000600881f780084
:10264000030478000300e00007003d006000100074
:10265000e080180060011900e081190002003b00d1
:1026600001f02d00030037000400070008f0a70068
:1026700001f0a0004f04780000000600889fbe0013
:102680008a9fbe0000827000040271000482710003
:10269000260032000004be000200be006011b80037
:1026a0006b092000950220000182cf000a0039004a
:1026b0000541b1000082cf00070039000541b1009b
:1026c0000982cf00040039000541b1000882cf0023
:1026d000010039000541b1000542520012003200ec
:1026e0000a003b0082817100610164008100d10019
:1026f0000080d3008984d3000884d3008b05e800d0
:102700000442e800f7ff3a000700370008044400dd
:1027100089844c0000004800818048008b05e90056
:102720000442e900f9ff3a0022ff07004f05be000e
:102730004f04be00000006000000e0002f00320041
:10274000c0017800e38f51002c0036000308a3007d
:102750002a003a0051e980000100e0000200320046
:10276000810f5000040031001100980050e98800ea
:102770001600370082007800110190000200e0008e
:1027800002003200800f5100faff39001102780078
:1027900084824000850f500018003900808f52005d
:1027a00003003a0083084200010078000700370068
:1027b0000200e0000300320083014000830f51005b
:1027c0000e003900120098009000980090009000d0
:1027d0000100e0000900320010014000828f50002b
:1027e00006003a0082d221000009eb0010017800b7
:1027f00011084100910090001100980000000600af
:10280000889fbe000004780041e980000100e000dc
:1028100002003200010078000d00370051e980000d
:10282000a0d2210004003700910f5400250036008b
:102830000180e800910090000100e000faff3a00fa
:1028400010003700920f54001e0036000280e8008e
:10285000100178000200e000faff3a001101780050
:1028600051e98000a0d2210004003700910f5400ec
:10287000140036000180e80091009000828f500023
:10288000faff3a0089e98000888f54000100310086
:102890008804780009007800600007000000e0006c
:1028a00004003a00888f5400050032008904d100ea
:1028b000f5ff3700091878009fff0700d2ff3700a7
:1028c0000000eb004f04be0000000600881f7800e7
:1028d000630440000800a1008000eb00800f54005a
:1028e00021003600e30f540001003e0048002000a4
:1028f00008007800c2ff07008000eb000000e00045
:102900001900320090007800910178006481510034
:10291000880f510003003100110190000208780077
:1029200007003700088140000208780091019000fc
:10293000130198001001780011091400880878002c
:10294000100178000000eb000200e00004003200fb
:10295000920190000300e000010032000280e800d4
:1029600040e988008180e800010078004f04780089
:10297000000006008001780002003700b15978009d
:102980000201e9000200e000fcff3a00000006003e
:102990008001780002003700815978000201e900c7
:1029a0000200e000fcff3a000000060002003700d1
:1029b0000204e0000b003200810178000002780080
:1029c00030417800b14f5100f9ff32001000200073
:1029d00014427800934f5200030031000080eb0056
:1029e000000006000000eb00000006000001780077
:1029f000b1417800035978000304e000fcff3a007d
:102a00000000060080007800010178003104e00039
:102a1000fdff3a0000005100000006008000780031
:102a20000000eb000100e000050034000100780028
:102a30007cfd0700e10f400001003a000000eb00c0
:102a400000000600ee874700889fbe008a9fbe00f8
:102a50008c9fbe008e1f7800f0b79f0001067800a3
:102a60008205780000047800080578000a047800e0
:102a7000b84678000d00fb008c0007000000e00065
:102a8000f9ff3a00d0c2b30080cf560003003200f5
:102a900000c0e90080cf560002003a000a05e800b5
:102aa00001003700804678000b00e000050035008b
:102ab000e18f55000300320040022000808f550056
:102ac000060034006044b8000c00e00070003200e2
:102ad0007fb09700000e78006d0037000b00e0001b
:102ae0000e003200f08f55001a003a0000c3b30008
:102af0009a4f100017003a001a40900081c7b300a7
:102b0000814f50000300320081c5b300814f500057
:102b100010003a000a85e8000e003700ab002000e4
:102b200000c3b3009a4f10000a003a001a40900008
:102b300081c7b300814f5000040032008b00200099
:102b400081c5b300814f500002003a000a85e800b9
:102b50000b0120000a0078000002780004007800d1
:102b600001c3b300b0cf1000fbff320004077800b0
:102b70006044b800b4b79f000d00370081b8210051
:102b800081405000c1ef9f006159b9000800be00ac
:102b9000730407004fea97000401fb00cf91de00a9
:102ba000c8b79f00d9b79f00020440008384480043
:102bb0008e0278003e00fb0085bf9f0043000700a7
:102bc0000b0178008000780080b821003f020700e8
:102bd0008fba97000000e000e8ff3a003fb297008c
:102be000850f550005003a006044b8000c00e00075
:102bf00027003200ffb29700240037000482520001
:102c0000d0ba210060c07d000000fb00000252002d
:102c10001700330011003a004fe997000200fb0053
:102c2000cf80de000000540081805c00800f5400e3
:102c3000818f5c00090039006159b90085bf9f0090
:102c4000340407008fba97004fb19700dfb19700a7
:102c5000820f5000838f58000500320020022000b0
:102c600060e988000084eb008084eb0005003700f9
:102c7000d0c2b30080cf560002003a0060041400b6
:102c8000e0841c000c00e00001003200050e78001a
:102c90000800be004f0778004f06be004f05be007b
:102ca0004f04be00ef00b100000006006900e10023
:102cb000040035006d00e100030034000002b100a3
:102cc00001003200000005001000050080007800bf
:102cd0001104b100030035009101b10001003c0076
:102ce0000050a0000000060070e980000000e00035
:102cf0000100320000000100c0d2210000000600e7
:102d0000881f7800020478000801780019ff070086
:102d1000080040004f047800000006000000fa00a0
:102d2000881f780000047800ea8157003fb99700b7
:102d30008800780000682100070007000000e0001c
:102d4000020035008040eb00017478004f047800e9
:102d50000080fa00000006006200fa00889fbe00b2
:102d60008a1f78000005780081047800020478004a
:102d70008300780080f92f000f004000d403070083
:102d80009a979f00a9979f000000eb00b09f9f00bb
:102d90001885fb008a04fb000a05ea004f55de0097
:102da00050022000808f54000d003200e10f5500ca
:102db0000b003a000a017800880078002f909700f5
:102dc0009f91970003000100a0979f000000e00082
:102dd0008e0032003f9897000000e800b09f9f00ef
:102de0000a04440050022000808f54000400320086
:102df0000900e000e6ff3a003f98970084003700a2
:102e00000000eb00909f9f00809f9f00f0979f0025
:102e1000e0979f00d0979f00c0979f000700370062
:102e2000c1d02100010050000000400001d021006d
:102e300061007800df98970001007000d09f9f002c
:102e40008804780009047800384578008a00fb007f
:102e5000c0d02100a70107000000e000f0ff3a0009
:102e6000a1c2b300814f55000e003a00cf889700f1
:102e70000180e900c08f9f0010007800c09f9f0074
:102e80000000e00005003d000000ea00c09f9f0038
:102e90005f9897000020a000d09f9f000904e800e1
:102ea0000f003700c09f9f000000eb0005003700b7
:102eb000f2ff2700820f5000020032006a01b900c1
:102ec000028040000904780088047800b900fb0003
:102ed0000103b100e98f5000f5ff3600c09f9f004d
:102ee000e0c2b300984f1000020032000080eb00f7
:102ef00019003700a0c2b300d84f100007003a00f5
:102f0000cf8897000180e900c08f9f0010007800f3
:102f1000a09f9f000804e800100037000000eb00ad
:102f2000a09f9f008800780005003700f3ff27006e
:102f3000830f5000020032006a02b9000400410011
:102f400001047800880078003101fb000203b10021
:102f5000e90f5100f5ff3600a09f9f0098447800cc
:102f60008900fb0080cf2100620107000000e00023
:102f7000020032000804e800010037008044eb0042
:102f8000c97f9f0080c6b30080cf540004003a0080
:102f900098cf14000a003a0066405000060037003f
:102fa000c0c6b30080cf540005003a0098cf14008b
:102fb00003003a0065404000c07f9f000804e8001d
:102fc0001801fb00e3fb2f008f81410081f92f00e6
:102fd0008f804000a0f92f000f0040001000070074
:102fe0000000e00009003a00e1fb2f008f80400064
:102ff000a0f92f000f004000790207000000e00058
:10300000020035000804e80061ff37000080eb0093
:103010004f0578004f04be000080fa000000060053
:10302000889fbe008a1f780000047800e0c6b300c5
:10303000804f5100c100320015003c006b40500031
:10304000804f5100240032000a003c0070405000c4
:10305000804f5100fa00320065404000804f51001f
:103060006800320050c2b300804f51000b013a009b
:103070000701370040c6b300804f51001b003200eb
:1030800065404000804f510004013a0017003700ae
:1030900030c7b300804f5100e900320007003c0008
:1030a00064405000804f5100560032000040e8005c
:1030b000804f5100f9003a00d300370050c7b300e9
:1030c000804f51004f00320063404000804f51005c
:1030d000f2003a004b0037001181e90082087800c5
:1030e0007800900012417800ea00370028609000d4
:1030f000c4c6b300844f500007003a0011027800a4
:1031000064005200800878001002be004fabde0061
:10311000860378001100370014c7b300844f5000b5
:1031200003003200a4c6b300844f500006003a00ea
:103130001102780068005200800878003002be005a
:103140002003be00050037001180e90080087800e8
:1031500010027800cfa2de00612bb900049cbe00f3
:103160000694be002860900081c6b300814f5000d5
:103170000d00320021c6b300814f500004003a0018
:103180000402fb00cfa2de00612bb900080037006b
:1031900041c7b300814f500003003200e6c0400039
:1031a000814f500004003a00cfa2de00612bb9002d
:1031b000049cbe000694be003802be002803be0078
:1031c00078009000d1c2b300e00f5200e08f5a00a7
:1031d000e00f5b00e08f5b00080035008810900076
:1031e0000118a30002003200b1c2b300030037008f
:1031f0000108a3004c00320001c2b30081717800c5
:103200004700370028609000c4c6b300844f5000c8
:1032100006003a001102780064005200800878002d
:103220001002be006033b8001100370014c7b300ad
:10323000844f500003003200a4c6b300844f5000f6
:1032400006003a00110278006800520080087800f9
:103250003002be002003be00050037001180e900e7
:1032600080087800100278008002eb006033b8001c
:10327000049cbe000694be002860900081c6b30086
:10328000814f50000d00320021c6b300814f500025
:1032900004003a000482fb008002eb006033b800b7
:1032a0000800370041c7b300814f500003003200cf
:1032b000e6c04000814f500004003a008002eb005d
:1032c0006033b800049cbe000694be000810900055
:1032d0000038a300140032003802be002803be00ec
:1032e000e00f5200e08f5a00e00f5b00e08f5b00c0
:1032f0000d00320080c7b300804f51000300320040
:1033000080c5b300804f510007003a00780090005c
:1033100001c3b300817178000000e8008271780079
:103320000000e8007004980078009000808141005f
:1033300063049800824078003e00370028619000c6
:10334000c3c6b3001180e900834f51002200320050
:103350000a003c00e4c15100834f510025003200b7
:1033600083c1e800834f510013003200e8c15100cf
:10337000834f51001e003a000a00370043c7b300d4
:10338000834f51001b003200e6c14100834f5100c2
:1033900018003200e9c15100834f510014003a0077
:1033a000050037008008780010007800485c900025
:1033b0000848780041003700800878001000780045
:1033c000680a9000cfa2de00612bb9000498be000d
:1033d0000690be00390037008008780010007800a1
:1033e00068099000cf91de000288be0033003700ec
:1033f0001180e9008008780010007800680c9000c7
:10340000080878002d0037001180e9008008780056
:1034100010027800cfa2de00612bb900049cbe0030
:103420000694be00780090008081410063049800fb
:1034300081c7b300080078003a0007001f0037007a
:103440001180e90080087800100578006a0498006f
:10345000d80c90000900e00004003d000a0078004c
:1034600068fd070080047800070037000901780034
:103470008000eb000a007800140007000000e00064
:10348000010032008a045000190c98000b0037002c
:103490007800900082717800060037007800900074
:1034a000808141000204e00001003a0052c2b300f2
:1034b000824978000000e800700498000000eb00ea
:1034c0004f0578004f04be000000060003003700df
:1034d000b0cf1000050032000201e9008001780041
:1034e0000200e000faff3a00000005000300780047
:1034f00000000600020037000304e000060032006e
:103500000001780002007800b041780081cf5100be
:10351000f9ff3a00010037000001eb0002007800db
:1035200000000600fc874700889fbe008a9fbe00ff
:103530008c9fbe008e1f78000006780080c5b30007
:1035400080cf50000a0032007740400080cf50000a
:103550000a0032006940400080cf50000b0032006a
:1035600070ce210080bf9f00ae0020000a0037000f
:1035700062cd210082bf9f000600370073ce21007c
:1035800083bf9f008e0020000300370074ce21000f
:1035900084bf9f000e0120003c02be002c03be0031
:1035a0000605be000404be0040c6b30080cf500034
:1035b000030032006540400080cf50000b003a000d
:1035c000e00f5200e08f5a00e00f5b00e08f5b00dd
:1035d00006003d006000b8006011b800040450000f
:1035e000858458000605590087855900e80f570063
:1035f0000400320040002000f00f570038003a006d
:103600000100370030002000e00f5400e08f5c0024
:10361000e00f5d00e08f5d0004003a00dc089000e0
:103620008d0120000100e000060032008e00e9005c
:10363000888060008fba9700e5c07800f1ef9f00a6
:103640007d012000800078008100e9000500330042
:103650008b05d1000a85d3008984d3000884d30068
:10366000f9ff3700089ebe000a96be001200370020
:103670008d06e9008e00e900848060000fb9970094
:10368000e2c1780082fd2f000f01410003f17e00ae
:10369000800078008100e900050033008783d100b5
:1036a0000683d3008582d3000482d300f9ff37005c
:1036b000049ebe000696be003c02be002c03be0067
:1036c000e00f5200e08f5a00e00f5b00e08f5b00dc
:1036d0008b0034000d00e000e5ff3c00880037005f
:1036e0002c60900081c6b300814f50000b00320067
:1036f00006003c000004e00008003200e6c0500074
:10370000814f50004e003a0004003700c1c6b3009c
:10371000814f50004a003a00210037000800e000c5
:1037200004003a005c0890008d0120000000e000d9
:1037300006003200110009000e84d8000fb997006e
:10374000e2c07800f1ef9f007d0120001100090028
:103750000e84d8000a003700110009000e04d800ba
:103760008d06e9000e81b900020454008fb897005d
:1037700061417c0081fd2f008f80400082f07e003f
:10378000000478000800e000020032000d00e000b4
:10379000f1ff3c00cfc4de00614db90025003700c9
:1037a000e00f5400e08f5c0004003a005c089000d9
:1037b0008d0120000000e000070032006171b900b7
:1037c0000800be00630107008fb99700e34178004d
:1037d000f3ef9f007d0120006171b9000800be0079
:1037e0004c0107000b0037006171b9000800be00f2
:1037f000390107008d06e90000f1b9000204540008
:103800000fba9700e4427c0084fd2f000f024200b3
:1038100005f27e000004be00e00f5000e08f58006b
:10382000020032000d00e000efff3c004fcdde0053
:103830008a057800089ebe000a96be003000370058
:10384000e00f5400e08f5c00e00f5d00e08f5d0052
:1038500004003a005c0890008d0120000000e000a8
:10386000090032006172b900612bb9000800be0086
:103870000a01be00e00107000fba97006442780019
:10388000f4ef9f007d0120006172b900612bb90047
:103890000800be000a01be00d00107000d0037007d
:1038a0006172b900612bb9000800be000a01be00b8
:1038b000d50107008d06e90000f2b90004045400a8
:1038c0008fba970065427c0085fd2f008f824200f1
:1038d00084f27e00009ebe000296be003c04be0044
:1038e0002c05be00e00f5400e08f5c00e00f5d008f
:1038f000e08f5d00020034000d00e000e8ff3c00b6
:10390000e80f570010003a000c1090000038a30098
:103910000d003200f78f560006003e0085fd2f0097
:103920008f824200e5c07e0000c3b30080cf50000c
:10393000050032008d06e90002c3b30081fd2f00af
:103940008f80400082f07e0078811600120e980071
:103950006c00900083fd2f008f8141008d8041001d
:1039600004fc07001c089000dc089000810f500048
:1039700006003d0000805000000e98000c109000e2
:103980000040a100001698000f0037000100e00081
:103990000d003d008c109000f4806000f08f50000e
:1039a00009003a007c099000fc0090008100510061
:1039b0000c09900082805000008050004240a90015
:1039c00001003400000e98004f0778004f06be003b
:1039d0004f05be004f04be00cf01b100000006003d
:1039e0000400fa00889fbe008a9fbe008c1f7800ea
:1039f0000004780001067800f80d9000780090002f
:103a000080855500080890008085550018089000b2
:103a10008085550028089000808555003808900062
:103a200080855500480890008085550000022200de
:103a300090bf9f0000032300a0bf9f0008109000cc
:103a40000028a30015003a000b00e000130034002a
:103a50000b0578008a047800e20f5500010036005b
:103a600029002000c801900009017800ee8057006d
:103a70005800900003000100500498000000e0008e
:103a80008c0032006808900009004000600c98002b
:103a9000090555004240a900eeff3c007801900066
:103aa0000200e0000c003400c80190008c00780097
:103ab0005800900003000100500498008080eb0043
:103ac0000000e0007c003200e808900078009000e0
:103ad00000804000600c9800880c90000900e00015
:103ae0001100340009057800e28f5400010036000f
:103af0002a002000c80190000a017800ec805700dd
:103b00005800900003000100500498000000e000fd
:103b100068003200680890000a004000600c9800bd
:103b20008a845400edff3700180990000200e0007d
:103b30000c003400c8019000e8009000580090008c
:103b400003000100500498008080eb000000e000ba
:103b500059003200e80890001808900000804000ea
:103b6000600c9800a80c90000900e00011003400df
:103b700009057800e28f5400010036002a00200079
:103b8000c80190000a017800ec80570058009000ae
:103b900003000100500498000000e00045003200de
:103ba000680890000a004000600c98008a84540065
:103bb000edff3700380990000200e0000e003400ed
:103bc000e80090001808900080804000c801900034
:103bd0005800900003000100500498008080eb0022
:103be0000000e00034003200e8089000380890003f
:103bf00000804000600c9800c80c90000900e000b4
:103c00001100340009057800e28f540001003600ed
:103c10002a002000c80190000a017800ec805700bb
:103c20005800900003000100500498000000e000dc
:103c300020003200680890000a004000600c9800e4
:103c40008a845400edff3700081090008000eb00dc
:103c50000028a300180032000b00e000160034001a
:103c60008b04780009057800e28f540001003600cb
:103c70002a002000c80190000a017800ee80570059
:103c80005800900003000100500498000000e0007c
:103c900008003200680890000a004000600c98009c
:103ca0008a8454004240a900eeff3c008000eb00f3
:103cb000010037008080eb00010078004f0678009b
:103cc0004f05be004f04be000080fa000000060051
:103cd0000108780000000600839f68000100e000f2
:103ce00002003d0060001000e08018000300e000ca
:103cf00002003d0060011100e0811900050007008d
:103d00004f00e00002003b0060001000e08018005f
:103d1000000006006022b800060220000000d0006b
:103d20008180d2000482d2008582d2000000a000ef
:103d30000202520083825a00030031000202420054
:103d400083824a000000a1000603e900f3ff3a0065
:103d500000000600efff07000400be0000000600a0
:103d6000020ab900001bb9000200b800810042003d
:103d70008100430000000600889fbe008a9fbe00ad
:103d800030044200b0844a0030054b0090854b005f
:103d90006000b1000898be000a90be000440e10037
:103da00005c8e10006d0e10007d8e10002003100bb
:103db000680040001008e8004f05be004f04be0038
:103dc00000000600889fbe008a9fbe003004be002f
:103dd0002005be000418540005985c0006185d001c
:103de00007985d00110020000440e10005c8e100d3
:103df00006d0e10007d8e100010039008000eb00a7
:103e0000108810004f05be004f04be0000000600e1
:103e10001200fa00889fbe008a9fbe008c9fbe00e1
:103e2000e0b79f00f1b79f0082bf9f0093bf9f0044
:103e30000605be000404be000000eb00d0b79f00e2
:103e4000c0b79f00b0b79f00a0b79f0090b79f007a
:103e50000006eb005fb19700cfb0970082014100f0
:103e60003fb097000200e00004003d00370007006b
:103e70007e805700c0ff07000300370033000700b3
:103e80007e805700cfff0700dfb697000d00e000ef
:103e90000c0035006fb29700ffb297000fbb970080
:103ea0009fbb970010002000010020006011b800a7
:103eb0000002720081827200020373008383730028
:103ec0001b0007000c06e80001042000810f5600cb
:103ed000e0ff3a000d00e00004003d000802be00d3
:103ee0000a03be007e805700a3ff07005fa897006b
:103ef0000000e00005003a001fb29700afb2970043
:103f00003fb39700cfb39700090007006fb0970049
:103f1000ffb097000fb997009fb997004f06be00fa
:103f20004f05be004f04be000080fa0000000600ee
:103f30000100070000000600a4b79f00b5b79f006e
:103f4000c6b79f00d7b79f00000006004f09de00ec
:103f500082817100b3b79f004f01de008180400075
:103f600082807000a1b79f008fb097004f09de00dc
:103f7000000040000200700090b79f007fa89700eb
:103f80004f01de00818040008280700081b79f0079
:103f90000d0007004f3ade000000400004007000f2
:103fa000f0af9f00080007000402420085824a002b
:103fb00006034b0087834b00dfff07000802be00ab
:103fc0000a03be00000006002fb29700bfb29700a0
:103fd0004fb39700dfb3970000000600881f7800fa
:103fe00018002000881f780089ff07008f87e900ec
:103ff0004f04780000000600801feb0084ff0700dc
:104000008f87e90000000600889fbe008a9fbe00df
:10401000e00f5000e08f5800e00f5900e08f59008a
:104020000c003d006044b8006055b800000054002a
:1040300081805c0002015d0083815d00180020002a
:104040001500070008003d00180007000004eb0001
:10405000050037000004eb000f00070002003d00e0
:104060001200070018002000dcff07000800e00035
:10407000060032006022b8006033b8000000520031
:1040800081805a0002015b0083815b004f05be0006
:104090004f04be0000000600e00f5200e08f5a00ff
:1040a000e00f5b00e08f5b00000006006044b8009a
:1040b0006055b8000402540085825c0006035d0070
:1040c00087835d0000000600889fbe008a9fbe00b7
:1040d0008c1f7800e00f5000e08f5800e00f59006f
:1040e000e08f59000d003d006044b8006055b800f5
:1040f0000000540081805c0002015d0083815d004e
:104100001c0020000820e10009a8e1000ab0e1003d
:104110000bb8e1000d003d00080037000006eb0081
:10412000e00f5200e08f5a00e00f5b00e08f5b0071
:1041300006003d006044b8006055b8000402540019
:1041400085825c0006035d0087835d00aaff07008f
:104150000c00e000060032006022b8006033b800b6
:104160000000520081805a0002015b0083815b00e5
:104170004f0678004f05be004f04be000000060049
:020000040000fa
:1041800048540000545000002f3100002e31000030
:104190002032000030300000204f00004b0d0000a6
:1041a0000a4300006f6e0000746500006e7400002a
:1041b0002d54000079700000653a00002074000062
:1041c00065780000742f0000687400006d6c0000ba
:1041d0000d0a00000d0a00003c680000746d00002c
:1041e0006c3e00003c68000065610000643e000019
:1041f0003c740000697400006c6500003e440000df
:1042000045560000313000003c2f0000746900006a
:10421000746c0000653e00003c6c0000696e00009c
:104220006b200000726500006c3d000027690000f3
:10423000636f00006e270000687200006566000072
:104240003d27000064610000746100003a3b0000fb
:104250006261000073650000363400002c690000c4
:10426000564200004f520000773000004b470000dc
:10427000676f00003d2700003e3c00006c690000b5
:104280006e6b000020720000656c00003d2700008e
:10429000696300006f6e000027680000726500000f
:1042a000663d00002764000061740000613a000070
:1042b0003b6200006173000065360000342c000092
:1042c00069560000424f000052770000304b00005a
:1042d000476700006f3d0000273e00003c6c000077
:1042e000696e00006b200000726500006c3d0000ec
:1042f00027730000747900006c650000736800008b
:1043000065650000742700006872000065660000a3
:104310003d27000068740000747000003a2f000010
:104320002f650000636300002d6c000061620000d7
:104330002e6300006f6d00002f73000068610000a5
:1043400072650000642f0000626f00006f7400004f
:104350007374000072610000702e0000637300002f
:10436000732700003e3c0000736300007269000088
:104370007074000020730000726300003d2700008d
:1043800068740000747000003a2f00002f65000070
:10439000636300002d6c0000616200002e6300006a
:1043a0006f6d00002f7300006861000072650000ef
:1043b000642f00006a7100007565000072790000ca
:1043c0002e6a0000732700003e3c00002f7300009f
:1043d0006372000069700000743e00003c730000ce
:1043e00063720000697000007420000073720000a6
:1043f000633d00002768000074740000703a0000fc
:104400002f2f000065630000632d00006c61000029
:10441000622e0000636f00006d2f000073680000c3
:1044200061720000656400002f6200006f6f000081
:104430007473000074720000617000002e6a000046
:10444000732700003e3c00002f73000063720000e1
:1044500069700000743e00003c6c0000696e000052
:104460006b200000726500006c3d000027730000a7
:10447000747900006c6500007368000065650000d9
:104480007427000074790000706500003d2700006b
:1044900074650000787400002f63000073730000df
:1044a0002720000068720000656600003d270000bc
:1044b0002e2f0000696e000064650000782e000059
:1044c00063730000732700003e3c0000736300002c
:1044d00072690000707400002073000072630000b5
:1044e0003d270000696e000064650000782e000022
:1044f0006a730000273e00003c2f00007363000039
:1045000072690000707400003e3c00002f680000db
:1045100065610000643e00003c6200006f640000c2
:10452000793e00003c630000656e00007465000089
:10453000723e00003c6400006976000020630000c9
:104540006c610000737300003d270000636f000082
:104550006e740000616900006e6500007227000043
:104560003e3c00006469000076200000636c00009f
:1045700061730000733d0000277200006f77000038
:10458000206200006f780000273e00003c640000bd
:1045900069760000206300006c6100007373000006
:1045a0003d270000636f00006c200000636f000077
:1045b0006c2d0000787300002d31000032270000c0
:1045c0003e3c00006469000076200000636c00003f
:1045d00061730000733d0000276700002d6e00002e
:1045e000616d0000652700003e5400006f67000009
:1045f000676c0000652000004c450000443c000052
:104600002f640000697600003e3c000062750000e7
:10461000747400006f6e0000206300006c61000085
:10462000737300003d270000627400006e200000dc
:10463000627400006e2d000077610000726e000051
:10464000696e000067270000696400003d270000d4
:104650006c650000643000002d6900006e7600007b
:10466000273e00004c450000443000002049000077
:104670006e7600003c2f000062750000747400002c
:104680006f6e00003e3c0000627500007474000014
:104690006f6e0000206300006c6100007373000007
:1046a0003d270000627400006e200000627400006c
:1046b0006e2d000077610000726e0000696e0000d0
:1046c00067270000696400003d2700006c6500005a
:1046d000643100002d6900006e760000273e000066
:1046e0004c45000044310000204900006e76000077
:1046f0003c2f000062750000747400006f6e0000b3
:104700003e3c000062750000747400006f6e000093
:10471000206300006c610000737300003d270000ff
:10472000627400006e200000627400006e2d0000b4
:1047300077610000726e0000696e0000672700005c
:10474000696400003d2700006c65000064320000d1
:104750002d6900006e760000273e00004c450000e9
:1047600044320000204900006e7600003c2f00001b
:1047700062750000747400006f6e00003e3c000023
:1047800062750000747400006f6e0000206300000a
:104790006c610000737300003d270000627400002c
:1047a0006e200000627400006e2d00007761000032
:1047b000726e0000696e00006727000069640000e7
:1047c0003d2700006c650000643300002d69000087
:1047d0006e760000273e00004c4500004433000088
:1047e000204900006e7600003c2f0000627500003a
:1047f000747400006f6e00003e3c00002f640000e7
:10480000697600003e3c00002f64000069760000dd
:104810003e3c00006469000076200000636c0000ec
:1048200061730000733d0000277200006f77000085
:10483000206200006f780000273e00003c6400000a
:1048400069760000206300006c6100007373000053
:104850003d270000636f00006c200000636f0000c4
:104860006c2d0000787300002d310000322700000d
:104870003e3c00006469000076200000636c00008c
:1048800061730000733d0000276700002d6e00007b
:10489000616d0000652700003e5400006f7200004b
:1048a0006e2000004f4e0000204c000045440000e8
:1048b0003c2f000064690000763e00003c6200006e
:1048c00075740000746f00006e200000636c0000bf
:1048d00061730000733d000027620000746e0000e9
:1048e00020620000746e00002d640000616e000004
:1048f0006765000072270000696400003d27000022
:104900006c650000643000002d6f00006e27000011
:104910003e4c000045440000302000004f6e000077
:104920003c2f000062750000747400006f6e000080
:104930003e3c000062750000747400006f6e000061
:10494000206300006c610000737300003d270000cd
:10495000627400006e200000627400006e2d000082
:10496000646100006e670000657200002769000046
:10497000643d0000276c000065640000312d0000dc
:104980006f6e0000273e00004c45000044310000df
:10499000204f00006e3c00002f6200007574000084
:1049a000746f00006e3e00003c62000075740000f1
:1049b000746f00006e200000636c000061730000e3
:1049c000733d000027620000746e0000206200004a
:1049d000746e00002d640000616e000067650000c9
:1049e00072270000696400003d2700006c6500002c
:1049f000643200002d6f00006e2700003e4c000066
:104a000045440000322000004f6e00003c2f0000a3
:104a100062750000747400006f6e00003e3c000080
:104a200062750000747400006f6e00002063000067
:104a30006c610000737300003d2700006274000089
:104a40006e200000627400006e2d000064610000a2
:104a50006e6700006572000027690000643d000079
:104a6000276c000065640000332d00006f6e0000ad
:104a7000273e00004c45000044330000204f00005a
:104a80006e3c00002f62000075740000746f00001f
:104a90006e3e00003c2f000064690000763e00007e
:104aa0003c2f000064690000763e00003c6400007a
:104ab00069760000206300006c61000073730000e1
:104ac0003d270000726f000077200000626f000039
:104ad000782700003e3c000064690000762000005a
:104ae000636c000061730000733d000027630000e9
:104af0006f6c0000206300006f6c00002d780000d8
:104b0000732d000031320000273e00003c6400009d
:104b100069760000206300006c6100007373000080
:104b20003d270000672d00006e6100006d650000ec
:104b3000273e0000546f0000726e0000204f0000fe
:104b400046460000204c0000454400003c2f000079
:104b500064690000763e00003c620000757400004d
:104b6000746f00006e200000636c00006173000031
:104b7000733d000027620000746e00002062000098
:104b8000746e00002d700000726900006d610000fd
:104b90007279000027690000643d0000276c000066
:104ba00065640000302d00006f660000662700007d
:104bb0003e4c000045440000302000004f660000dd
:104bc000663c00002f62000075740000746f0000e6
:104bd0006e3e00003c62000075740000746f0000bf
:104be0006e200000636c000061730000733d0000e4
:104bf00027620000746e000020620000746e0000e6
:104c00002d700000726900006d6100007279000073
:104c100027690000643d0000276c00006564000007
:104c2000312d00006f660000662700003e4c00003a
:104c300045440000312000004f660000663c000043
:104c40002f62000075740000746f00006e3e00005b
:104c50003c62000075740000746f00006e2000005c
:104c6000636c000061730000733d00002762000068
:104c7000746e000020620000746e00002d70000051
:104c8000726900006d610000727900002769000000
:104c9000643d0000276c000065640000322d0000b8
:104ca0006f660000662700003e4c0000454400008f
:104cb000322000004f660000663c00002f620000ba
:104cc00075740000746f00006e3e00003c620000ce
:104cd00075740000746f00006e200000636c0000ab
:104ce00061730000733d000027620000746e0000d5
:104cf00020620000746e00002d70000072690000d8
:104d00006d6100007279000027690000643d0000b9
:104d1000276c000065640000332d00006f66000002
:104d2000662700003e4c0000454400003320000090
:104d30004f660000663c00002f62000075740000a2
:104d4000746f00006e3e00003c2f0000646900009c
:104d5000763e00003c2f000064690000763e0000b3
:104d60003c64000069760000206300006c61000074
:104d7000737300003d270000726f00007720000071
:104d8000626f0000782700003e3c0000646900006c
:104d900076200000636c000061730000733d00002a
:104da000276300006f6c0000206300006f6c000040
:104db0002d780000732d000031320000273e0000e6
:104dc0003c64000069760000206300006c61000014
:104dd000737300003d270000672d00006e61000026
:104de0006d650000273e0000526500006164000010
:104df00020410000444300003c2f00006469000093
:104e0000763e00003c62000075740000746f000084
:104e10006e200000636c000061730000733d0000b1
:104e200027620000746e000020620000746e0000b3
:104e30002d7300007563000063650000737300004c
:104e400027690000643d00002761000064630000e2
:104e5000302700003e41000044430000303c000089
:104e60002f62000075740000746f00006e3e000039
:104e70003c62000075740000746f00006e2000003a
:104e8000636c000061730000733d00002762000046
:104e9000746e000020620000746e00002d7300002c
:104ea00075630000636500007373000027690000ec
:104eb000643d0000276100006463000031270000aa
:104ec0003e41000044430000313c00002f620000de
:104ed00075740000746f00006e3e00003c620000bc
:104ee00075740000746f00006e200000636c000099
:104ef00061730000733d000027620000746e0000c3
:104f000020620000746e00002d73000075630000c5
:104f1000636500007373000027690000643d0000b2
:104f20002761000064630000322700003e4100005a
:104f300044430000323c00002f6200007574000002
:104f4000746f00006e3e00003c620000757400004b
:104f5000746f00006e200000636c0000617300003d
:104f6000733d000027620000746e000020620000a4
:104f7000746e00002d73000075630000636500000f
:104f80007373000027690000643d00002761000082
:104f900064630000332700003e41000044430000ea
:104fa000333c00002f62000075740000746f000035
:104fb0006e3e00003c2f000064690000763e000059
:104fc0003c2f000064690000763e00003c64000055
:104fd00069760000206300006c61000073730000bc
:104fe0003d270000726f000077200000626f000014
:104ff000782700003e3c0000646900007620000035
:10500000636c000061730000733d000027630000c3
:105010006f6c0000206300006f6c00002d780000b2
:10502000732d000031320000273e00003c64000078
:1050300069760000206300006c610000737300005b
:105040003d27000072650000737500006c7400005d
:1050500027690000643d00002761000064630000d0
:10506000273e00003c6800003120000073740000ff
:10507000796c0000653d0000276300006f6c000044
:105080006f7200003a61000071750000616d0000f0
:1050900061720000696e0000653b0000273e000061
:1050a00045430000432d00004c610000623c0000bd
:1050b0002f680000313e00003c2f000064690000b2
:1050c000763e00003c2f000064690000763e000040
:1050d0003c2f000064690000763e00003c2f000079
:1050e00064690000763e00003c2f0000636500000c
:1050f0006e740000657200003e3c00002f620000ec
:105100006f640000793e00003c2f000068740000ce
:105110006d6c00003e000000485400005450000038
:105120002f3100002e31000020320000303000000e
:10513000204f00004b0d00000a4300006f6e00007e
:10514000746500006e7400002d540000797000003a
:10515000653a00002074000065780000742f00009c
:1051600063730000730d00000a0d00000a62000066
:105170006f640000797b00006d61000072670000c1
:10518000696e00003a3000003b700000616400006e
:10519000646900006e6700003a3000003b62000066
:1051a000616300006b670000726f0000756e0000a5
:1051b000642d0000636f00006c6f0000723a000005
:1051c000233200003233000033340000343b00004f
:1051d0007d2e0000672d00006e6100006d650000ef
:1051e0007b6300006f6c00006f7200003a67000084
:1051f00072650000793b0000666f00006e7400006d
:105200002d730000697a0000653a0000322e00001c
:10521000306500006d3b00006d61000072670000aa
:10522000696e00002d7400006f7000003a300000bd
:105230002e350000656d00003b6d000061720000be
:10524000676900006e2d0000626f0000747400003a
:105250006f6d00003a3000002e350000656d0000d3
:105260003b7d00002e6200006f7800007b62000032
:105270006f72000064650000723a00003270000036
:1052800078200000736f00006c690000642000004b
:1052900067720000617900003b6200006f720000dd
:1052a00064650000722d00007261000064690000f6
:1052b000757300003a31000030700000783b000048
:1052c0007061000064640000696e0000672d0000da
:1052d000626f0000747400006f6d00003a330000cc
:1052e000656d00003b6d00006172000067690000a1
:1052f0006e2d0000746f0000703a000033650000ee
:105300006d3b00007d2e0000627400006e7b00008b
:105310007769000064740000683a00003765000097
:105320006d3b00006865000069670000687400005c
:105330003a3300002e350000656d00003b6600002a
:105340006f6e0000742d0000776500006967000033
:10535000687400003a6200006f6c0000643b00005b
:105360006d61000072670000696e00002d6c000026
:1053700065660000743a0000302e000035650000bc
:105380006d3b00006d61000072670000696e0000f7
:105390002d72000069670000687400003a30000058
:1053a0002e350000656d00003b6600006f6e00004a
:1053b000742d0000736900007a6500003a31000026
:1053c0002e350000656d00003b7d00002e62000060
:1053d000746e00002d640000616e000067650000bf
:1053e000722c00002e620000746e00002d77000009
:1053f000617200006e6900006e6700007b63000050
:105400006f6c00006f7200003a6200006c61000077
:10541000636b00003b7d00002e720000657300008e
:10542000756c0000747b0000666f00006e740000f5
:105430002d7700006569000067680000743a00007d
:10544000626f00006c6400003b6d00006172000040
:10545000676900006e2d0000746f0000703a000054
:10546000356500006d3b00007d00000048540000e1
:10547000545000002f3100002e3100002032000077
:1054800030300000204f00004b0d00000a430000a8
:105490006f6e0000746500006e7400002d540000f3
:1054a00079700000653a0000207400006578000003
:1054b000742f00006a6100007661000073630000d1
:1054c00072690000707400000d0a00000d0a0000ef
:1054d000776900006e6400006f7700002e6f000097
:1054e0006e6c00006f610000643d00006675000096
:1054f0006e630000746900006f6e00002865000094
:10550000297b0000667500006e630000746900006e
:105510006f6e00002067000065740000456c00009d
:1055200065280000652900007b720000657400009a
:10553000757200006e200000646f0000637500004b
:105540006d6500006e7400002e6700006574000039
:10555000456c0000656d0000656e0000744200003f
:105560007949000064280000652900003b7d0000a7
:10557000667500006e630000746900006f6e0000c5
:10558000206c00006f61000064280000726500005c
:10559000712900007b760000617200002078000015
:1055a0006d6c00003d6e0000657700002058000023
:1055b0004d4c0000487400007470000052650000fb
:1055c000717500006573000074280000293b00001d
:1055d000786d00006c2e0000746900006d6500009d
:1055e0006f750000743d0000323000003030000064
:1055f0003b7800006d6c00002e6f00006e720000a2
:10560000656100006479000073740000617400003b
:1056100065630000686100006e670000653d000082
:10562000667500006e630000746900006f6e000014
:10563000282900007b69000066200000287800000f
:105640006d6c00002e72000065610000647900003e
:105650005374000061740000653d00003d58000077
:105660004d4c00004874000074700000526500004a
:105670007175000065730000742e0000444f000037
:105680004e450000297b00006966000020280000cc
:10569000786d00006c2e00007374000061740000cf
:1056a000757300003d3d00003230000030290000dd
:1056b0007b67000065740000456c000065280000f1
:1056c0002761000064630000272900002e690000a4
:1056d0006e6e000065720000485400004d4c0000e2
:1056e0003d7800006d6c00002e72000065730000b4
:1056f000706f00006e730000655400006578000054
:10570000743b00007d6500006c73000065200000a4
:105710006966000020280000786d00006c2e0000f3
:105720007374000061740000757300003d3d00005b
:1057300034300000302900007b6300006f6e0000f1
:10574000736f00006c6500002e6c00006f67000036
:1057500028270000546800006572000065200000e2
:105760007761000073200000616e0000206500007a
:10577000727200006f7200002034000030300000b0
:10578000272900003b7d0000656c00007365000068
:105790007b6300006f6e0000736f00006c6500009b
:1057a0002e6c00006f67000028270000736f000058
:1057b0006d65000074680000696e000067200000dd
:1057c000656c000073650000206f000074680000c5
:1057d0006572000020740000686100006e20000007
:1057e000323000003020000077610000732000009c
:1057f0007265000074750000726e00006564000040
:10580000272900003b7d00007d7d00003b780000e3
:105810006d6c00002e6f0000706500006e280000a7
:105820002747000045540000272c00007265000047
:10583000712c00007472000075650000293b0000a7
:10584000786d00006c2e0000736500006e6400002f
:10585000282900003b7d0000667500006e63000093
:10586000746900006f6e0000206400006f49000042
:1058700074280000696400002c6300006d6400005f
:10588000297b000067650000744500006c6500001e
:1058900028690000642900002e6100006464000093
:1058a00045760000656e0000744c000069730000ce
:1058b000746500006e650000722800002763000018
:1058c0006c690000636b0000272c00006675000007
:1058d0006e630000746900006f6e000028290000ec
:1058e0007b6c00006f61000064280000636d0000a5
:1058f000642900003b7d0000293b00007d6600001c
:105900006f720000287600006172000020690000bc
:105910003d3000003b6900003c3400003b69000062
:105920002b2b0000297b0000646f000049740000ed
:10593000282700006c650000642700002b69000028
:105940002b2700002d6900006e760000272c000038
:10595000276c0000656400002f2700002b69000001
:105960002b2700002f3200003b270000293b0000be
:10597000646f000049740000282700006c65000077
:10598000642700002b6900002b2700002d6f00000a
:105990006e2700002c2700006c650000642f0000bb
:1059a000272b0000692b0000272f0000313b00004f
:1059b000272900003b6400006f49000074280000a4
:1059c000276c000065640000272b0000692b000095
:1059d000272d00006f660000662700002c270000be
:1059e0006c650000642f0000272b0000692b00006d
:1059f000272f0000303b0000272900003b640000f7
:105a00006f490000742800002761000064630000f3
:105a1000272b0000692c0000276100006463000050
:105a20002f2700002b6900002b2700002f300000db
:105a30003b270000293b00007d73000065740000d7
:105a4000496e00007465000072760000616c000011
:105a500028660000756e000063740000696f000026
:105a60006e280000297b00006c6f0000616400005c
:105a70002827000061640000632f0000312f000020
:105a8000303b0000272900003b7d00002c33000044
:105a900030300000302900003b7d0000004800004d
:105aa00054540000502f0000312e0000312000001f
:105ab00032300000302000004f4b00000d0a000083
:105ac000436f00006e740000656e0000742d0000ce
:105ad00054790000706500003a200000696d0000f4
:105ae00061670000652f0000706e0000670d000008
:105af0000a0d00000a450000434300002d4c000041
:105b0000616200000048000054540000502f000063
:105b1000312e000031200000323000003020000023
:105b20004f4b00000d0a0000436f00006e74000030
:105b3000656e0000742d000054790000706500004f
:105b40003a20000074650000787400002f6800009f
:105b5000746d00006c0d00000a0d00000a000000ca
:105b60006661000076690000636f00006e2e000021
:105b7000696300006f000000696e0000646500004a
:105b8000782e0000687400006d6c00000069000051
:105b90006e640000657800002e63000073730000df
:105ba000006900006e640000657800002e6a000045
:105bb00073000000536500007276000065720000fb
:105bc0003a200000436f00006e7300007472000002
:105bd00075630000746500006420000048540000f4
:105be0004d4c00002068000065610000642000004a
:105bf0002b200000636f00006e740000656e0000d3
:105c0000742000000028000025640000202b000004
:105c100020250000642000002920000025640000e9
:105c20002062000079740000657300000d0a000016
:105c30000048000054540000502f0000312e000096
:105c40003120000032300000302000004f4b0000b7
:105c50000d0a0000436f00006e740000656e0000c6
:105c6000742d000054790000706500003a20000097
:105c700074650000787400002f680000746d0000e7
:105c80006c0d00000a4300006f6e00006e6500009e
:105c900063740000696f00006e3a0000206300002a
:105ca0006c6f0000736500000d0a00000d0a000013
:105cb0003c68000031200000636c0000617300004c
:105cc000733d00002774000065780000742d00000b
:105cd000646100006e67000065720000273e0000ee
:105ce0005061000067650000204e00006f740000e6
:105cf000204600006f7500006e6400002121000046
:105d00003c2f0000683100003e0000000d0a00003a
:105d10002a2a00002a2a00002a2a00002a2a000033
:105d20002a2a00002a2a00002a2a00002a2a000023
:105d30002a2a00002a2a00002a2a00002a2a000013
:105d40002a2a00002a2a00002a2a00002a2a000003
:105d50002a2a00002a2a00002a2a00002a2a0000f3
:105d60002a2a00002a0d00000a0000002a20000054
:105d7000546800006520000070610000796c00002c
:105d80006f6100006420000069730000206700005c
:105d900072650000617400006572000020740000ec
:105da000686100006e2000003230000034380000ce
:105db000206200007974000065730000212000005b
:105dc0002a0d00000a0000002a2a00002a2a0000ea
:105dd0002a2a00002a2a00002a2a00002a2a000073
:105de0002a2a00002a2a00002a2a00002a2a000063
:105df0002a2a00002a2a00002a2a00002a2a000053
:105e00002a2a00002a2a00002a2a00002a2a000042
:105e10002a2a00002a2a00002a2a00002a0d00004f
:105e20000a0d00000a000000485400005450000011
:105e30002f3100002e3100002032000030300000f1
:105e4000204f00004b0d00000a4300006f6e000061
:105e5000746500006e7400002d540000797000001d
:105e6000653a00002074000065780000742f00007f
:105e7000687400006d6c00000d0a0000436f0000a4
:105e80006e6e000065630000746900006f6e0000b4
:105e90003a200000636c00006f730000650d000085
:105ea0000a0d00000a3c0000683100002063000079
:105eb0006c610000737300003d27000074650000f2
:105ec000787400002d640000616e000067650000ba
:105ed000722700003e54000068650000207000003a
:105ee000617900006c6f00006164000020690000af
:105ef0007320000067720000656100007465000097
:105f00007220000074680000616e00002032000002
:105f10003034000038200000627900007465000011
:105f2000732100003c2f0000683100003e0000009b
:105f3000415400002b43000049500000534500002d
:105f40004e4400003d250000642c00002564000044
:105f50000d0a0000004f00004b0d00000a00000079
:105f6000534500004e440000204f00004b0d000040
:105f70000a000000536500007276000065720000a0
:105f80003a2000004672000065650000204d0000c8
:105f9000656d00006f72000079200000307800000d
:105fa000252e0000345800000d0a000000410000ba
:105fb000542b000043490000504300004c4f0000a8
:105fc000534500003d250000640d00000a0000005c
:105fd0005365000072760000657200003a200000f0
:105fe000252e0000326400003a2500002e32000009
:105ff000643a0000252e0000326400003a250000bb
:106000002e330000643a0000200000002325000029
:1060100064200000436c00006f73000065640000a2
:106020000d0a00000047000045540000202f00002a
:106030000048000054540000502f0000000d0000e4
:106040000a5300006572000076650000723a000095
:1060500020570000726f00006e67000020460000ad
:106060006f7200006d610000742100002069000063
:1060700064780000313a00002564000020690000c7
:1060800064780000323a00002564000020630000bc
:10609000686100006e6e0000656c00003a2500002b
:1060a000640d00000a0000000d0a00000d0a000047
:1060b0002a2a00002a5b00002a5f00002a5d0000f7
:1060c0002a2a00002a0d00000a0d00000a00000024
:1060d0000d0a000053650000727600006572000032
:1060e0003a200000252e0000326400003a2500000e
:1060f0002e320000643a0000252e000032640000b9
:106100003a2500002e330000643a00002000000011
:106110002325000064200000526500007175000016
:1061200065730000746900006e670000206600005f
:106130006f720000202200002f2500007322000053
:106140000d0a0000002b000049500000442c000004
:10615000002c0000434f00004e4e0000454300005d
:10616000540d00000a0000002c4300004c4f0000ba
:1061700053450000440d00000a0000000d0a000015
:106180002d2d00002d2d00002d2d00002d2d0000a7
:106190002d2d00002d2d00002d2d00002d2d000097
:1061a0002d2d00002d2d00002d2d00002d0d0000a7
:1061b0000a0000005374000061740000696f000061
:1061c0006e3a0000200000000d0a0000004e0000a2
:1061d00065740000776f0000726b00003a200000c9
:1061e000005300006f66000074410000503a000048
:1061f0002020000000410000542b00004357000005
:1062000053410000503d0000222500007322000091
:106210002c22000025730000222c000025640000c1
:106220002c250000640d00000a000000415400000d
:106230002b43000049500000415000003d22000067
:1062400025730000220d00000a00000041540000e8
:106250002b43000057530000415000003f0d000049
:106260000a000000415400002b4300004950000088
:10627000415000003f0d00000a0000005769000077
:10628000466900003a20000053740000617200006b
:10629000746900006e67000020480000545400003c
:1062a0005020000053650000727600006572000007
:1062b0002e2e00002e0d00000a00000041540000a8
:1062c0002b430000495000004d550000583d000090
:1062d000310d00000a000000415400002b43000073
:1062e000495000005345000052560000455200003e
:1062f0003d3100002c380000300d00000a00000085
:10630000415400002b430000494600005352000056
:106310000d0a000000720000656100006479000051
:106320000d0a000000570000494600004920000007
:1063300044490000534300004f4e00004e4500000a
:10634000435400000d0a0000005700006946000099
:10635000693a00002044000069730000636f000088
:106360006e6e00006563000074650000642000002c
:10637000667200006f6d0000206e00006574000002
:10638000776f0000726b00002e2000005265000045
:10639000636f00006e6e00006563000074690000aa
:1063a0006e6700002e2e00002e0d00000a00000077
:1063b0005749000046490000204300004f4e0000ae
:1063c0004e45000043540000454400000d0a000003
:1063d0000057000069460000693a000020430000b1
:1063e0006f6e00006e65000063740000656400005d
:1063f000207400006f200000746800006520000019
:106400006e650000747700006f7200006b21000061
:106410000d0a000000570000494600004920000016
:10642000474f000054200000495000000d0a0000b2
:106430000057000069460000693a0000204700004c
:106440006f740000206100006e64000020490000ad
:106450005020000061640000647200006573000059
:1064600073200000667200006f6d00002074000051
:1064700068650000206e000065740000776f000002
:10648000726b0000210d00000a0000005769000037
:10649000466900003a200000476f000074200000a9
:1064a000495000002e20000053740000617200006b
:1064b000746900006e67000020480000545400001a
:1064c00050200000536500007276000065720000e5
:1064d0002e2e00002e0d00000a0000007374000034
:1064e00061720000740000002b4300004946000068
:1064f000535200003a41000050490000502c000067
:10650000002b00004349000046530000523a0000af
:10651000415000004d410000432c0000002b0000c2
:106520004349000046530000523a00005354000013
:1065300041490000502c0000002b0000434900009e
:1065400046530000523a000053540000414d0000f1
:10655000414300002c00000057690000466900001c
:106560003a20000054750000726e0000206f000099
:106570006666000020740000686500002065000069
:10658000636800006f2000006f660000207200004a
:106590006563000065690000766500006420000006
:1065a0006c6900006e6500000d0a0000005b0000d1
:1065b000305d00002d5500006e640000656600002f
:1065c000696e000064650000640000005b3100003b
:1065d0005d2d00005374000061740000696f0000bd
:1065e0006e0000005b3200005d2d0000536f000064
:1065f0006674000041500000005b0000335d000045
:106600002d53000074610000746900006f6e00007b
:106610002b7300006f660000744100005000000002
:1066200057690000466900003a20000057690000e1
:10663000466900002073000074610000746500006a
:10664000206900007320000000250000640d000098
:106650000a0000002f2f00002a2a00000057000027
:1066600069460000693a0000204300006f6e000098
:106670006e65000063740000696e00006720000012
:10668000746f0000206e000065740000776f0000da
:10669000726b000020220000002200000d0a0000a2
:1066a00000410000542b0000435700004a41000005
:1066b000503d000022250000732200002c22000023
:1066c00025730000220d00000a0000004154000064
:1066d0002b43000049500000534500005256000073
:1066e000455200003d3000000d0a0000004100004e
:1066f000542b000052530000540d00000a0000000b
:1067000057690000466900003a2000005365000008
:10671000742000005769000046690000206d0000e9
:106720006f64000065200000746f000020220000ec
:1067300000410000542b0000435700004d4f000063
:10674000444500003d250000640d00000a000000e3
:1067500057690000466900003a20000052650000b9
:1067600073740000617200007420000074680000ff
:10677000652000005769000046690000206d000098
:106780006f640000756c0000652e00002e2e000066
:106790000d0a00000061000074000000576900004d
:1067a000466900003a20000057610000726e000048
:1067b000696e00006721000021200000546800007d
:1067c000652000006d6f0000647500006c650000be
:1067d00020690000732000006e6f0000742000002c
:1067e0007365000074200000746f000020530000e7
:1067f0006f66000074410000502000006d6f0000c3
:1068000064650000210d00000a00000041540000f2
:106810005f52000045540000555200004e5f0000da
:10682000524500004144000059000000415400005e
:106830005f52000045540000555200004e5f0000ba
:106840004f4b000000410000545f00005245000023
:1068500054550000524e00005f530000454e0000aa
:10686000445f00004f4b000000410000545f0000f7
:106870005245000054550000524e00005f42000097
:106880005553000059000000415400005f520000c1
:1068900045540000555200004e5f00004641000084
:1068a000494c000000410000545f000052450000c8
:1068b00054550000524e00005f4500005252000047
:1068c0004f52000000410000545f0000524500009c
:1068d00054550000524e00005f5500004e4b000022
:1068e0004e4f0000574e00000009000041540000c8
:1068f0003a2000005761000069740000696e0000d2
:1069000067200000666f00007220000072650000c2
:10691000737000006f6e00007365000020000000bf
:106920005b2500002e320000645d00000d0a0000af
:1069300000090000415400003a20000054680000a3
:10694000652000006c61000073740000206300008b
:106950006f6d00006d6100006e6400002069000032
:1069600073200000257300000d0a0000000d0000d8
:106970000a0d00000a000000092a00002a2a00006f
:106980002a2a00002a2a00002a2a00002a2a0000b7
:106990002a2a00002a2a00002a2a00002a2a0000a7
:1069a0002a2a00002a2a00002a2a00002a2a000097
:1069b0002a2a00002a2a00002a2a00002a2a000087
:1069c0002a2a00000d0a00000009000041540000be
:1069d0003a200000546900006d6500006f750000ea
:1069e00074210000205200006573000074610000f3
:1069f00072740000696e0000672000007468000077
:106a0000652000007379000073740000656d00005c
:106a10002e2e00002e0d00000a0000000d0a0000be
:106a200000410000542b000052530000540d0000a0
:106a30000a0000004f4b00000d0a00000053000048
:106a4000454e0000442000004f4b00000d0a00009e
:106a50000072000065610000647900000d0a00000a
:106a6000000d00000a2a00002a2a00002a2a00003d
:106a70002a2a00002a2a00002a2a00002a2a0000c6
:106a80002a2a00002a2a00002a2a00002a2a0000b6
:106a90002a2a00002a2a00002a0d00000a0000000d
:106aa0002a2000005468000065200000576900009b
:106ab00046690000204d00006f640000756c000006
:106ac000652000005265000061640000792100002b
:106ad000202a00000d0a0000002a00002a2a0000d7
:106ae0002a2a00002a2a00002a2a00002a2a000056
:106af0002a2a00002a2a00002a2a00002a2a000046
:106b00002a2a00002a2a00002a2a00002a0d000052
:106b10000a0d00000a000000627500007379000091
:106b2000207000002e2e00002e0d00000a00000034
:106b30006275000073790000207300002e2e0000a3
:106b40002e0d00000a00000045520000524f0000c8
:106b5000520d00000a00000046410000494c0000b0
:106b60000d0a00000000000045430000432d000016
:106b70004d6f0000626900006c6500000065000058
:106b8000636300006c61000062310000313200007c
:106b90003200000045430000432d0000536f000009
:106ba0006674000041500000006500006d62000046
:106bb0006564000064650000640000003139000075
:106bc000322e000031360000382e0000302e00003a
:106bd000310000000202000054680000652000003f
:106be0000020000069730000206e00006f74000038
:106bf0002073000075700000706f00007274000058
:106c000065640000210d00000a0000006c650000b2
:106c1000640000004f4e0000200000004f460000be
:106c200046000000646100006e67000065720000ad
:106c300000770000617200006e6900006e6700005e
:106c4000003c000068310000206300006c6100001f
:106c5000737300003d270000746500007874000025
:106c60002d250000732700003e4c00004544000025
:106c7000256400003a200000257300003c2f00002e
:106c8000683100003e000000616400006300000005
:106c90003c68000031200000636c0000617300005c
:106ca000733d00002774000065780000742d00001b
:106cb00073750000636300006573000073270000b4
:106cc0003e2500002e320000643a0000252e000010
:106cd000326400003a2500002e32000064200000db
:106ce0004c440000522f00004144000043250000a6
:106cf000643a0000202500002e340000643c0000af
:106d00002f680000313e0000006200006565000051
:106d1000700000003c68000031200000636c00003f
:106d200061730000733d0000277400006578000067
:106d3000742d00007375000063630000657300002c
:106d4000732700003e4200006565000070200000cf
:106d500025640000204800007a2c00002025000057
:106d6000642000006d5300003c2f000068310000db
:106d70003e0000000d0a000048540000545000007e
:106d8000205300006572000076650000722000004c
:106d900041700000706c00006963000061740000c5
:106da000696f00006e2100000d0a00000000000065
:106db0002b490000504400002c000000000000009f
:020000040000fa
:106dc0000200fa00000f7800f09980000000e00057
:106dd00014003200e1998000a02b210000804000c7
:106de000904078001e00780001487800e09980000b
:106df0000000e800e0998800e1998000f007200099
:106e0000808f5000020036000000eb00e0998800ff
:106e1000f09980000000e900f0998800100020003f
:106e2000010037000000eb000080fa0000000600bf
:106e30000200fa00000f780020ba80000000e00095
:106e40001400320011ba800000342100008040009c
:106e5000904078001e0078000148780010ba800049
:106e60000000e80010ba880011ba8000f03f20004e
:106e7000808f5000020036000000eb0010ba88003e
:106e800020ba80000000e90020ba8800100020002d
:106e9000010037000000eb000080fa00000006004f
:106ea0000200fa000000eb00000f78000500370038
:106eb000a02b21001e0040008040eb00014878001c
