:020000040000fa
:08000000020c040000000000e6
:020000040000fa
:100008000a1000000a1000000a1000000a10000080
:100018000a1000000a1000000a1000000a10000070
:100028000a1000000a1000000a1000004e0f00001d
:100038000a1000000a1000000a1000000a10000050
:10004800f60f00000a1000000a100000da0c000089
:100058009a0d0000aa0f00000a1000000a10000004
:100068000a1000000a1000000a1000000a10000020
:100078000a1000000a1000000a1000000a10000010
:100088000a1000000a1000000a1000000a10000000
:100098000a1000000a100000180e0000d80e000018
:1000a8000a1000000a1000000a1000000a100000e0
:1000b8000a1000000a1000000a1000000a100000d0
:1000c8000a1000000a1000000a1000000a100000c0
:1000d8000a1000000a1000000a1000000a100000b0
:1000e8000a1000000a1000000a1000000a100000a0
:1000f8000a1000000a1000000a1000000a10000090
:100108000a1000000a1000000a1000000a1000007f
:100118000a1000000a1000000a1000000a1000006f
:100128000a1000000a1000000a1000000a1000005f
:100138000a1000000a1000000a1000000a1000004f
:100148000a1000000a1000000a1000000a1000003f
:100158000a1000000a1000000a1000000a1000002f
:100168000a1000000a1000000a1000000a1000001f
:100178000a1000000a1000000a1000000a1000000f
:100188000a1000000a1000000a1000000a100000ff
:100198000a1000000a1000000a1000000a100000ef
:1001a8000a1000000a1000000a1000000a100000df
:1001b8000a1000000a1000000a1000000a100000cf
:1001c8000a1000000a1000000a1000000a100000bf
:1001d8000a1000000a1000000a1000000a100000af
:1001e8000a1000000a1000000a1000000a1000009f
:0801f8000a1000000a100000cb
:020000040000fa
:100208000a1000000a1000000a1000000a1000007e
:100218000a1000000a1000000a1000000a1000006e
:100228000a1000000a1000000a1000004e0f00001b
:100238000a1000000a1000000a1000000a1000004e
:10024800f60f00000a1000000a100000da0c000087
:100258009a0d0000aa0f00000a1000000a10000002
:100268000a1000000a1000000a1000000a1000001e
:100278000a1000000a1000000a1000000a1000000e
:100288000a1000000a1000000a1000000a100000fe
:100298000a1000000a100000180e0000d80e000016
:1002a8000a1000000a1000000a1000000a100000de
:1002b8000a1000000a1000000a1000000a100000ce
:1002c8000a1000000a1000000a1000000a100000be
:1002d8000a1000000a1000000a1000000a100000ae
:1002e8000a1000000a1000000a1000000a1000009e
:1002f8000a1000000a1000000a1000000a1000008e
:100308000a1000000a1000000a1000000a1000007d
:100318000a1000000a1000000a1000000a1000006d
:100328000a1000000a1000000a1000000a1000005d
:100338000a1000000a1000000a1000000a1000004d
:100348000a1000000a1000000a1000000a1000003d
:100358000a1000000a1000000a1000000a1000002d
:100368000a1000000a1000000a1000000a1000001d
:100378000a1000000a1000000a1000000a1000000d
:100388000a1000000a1000000a1000000a100000fd
:100398000a1000000a1000000a1000000a100000ed
:1003a8000a1000000a1000000a1000000a100000dd
:1003b8000a1000000a1000000a1000000a100000cd
:1003c8000a1000000a1000000a1000000a100000bd
:1003d8000a1000000a1000000a1000000a100000ad
:1003e8000a1000000a1000000a1000000a1000009d
:0803f8000a1000000a100000c9
:020000040000fa
:10180000010000006f0222000e7f22000e018800fe
:1018100000000000000020000000e0000200320094
:101820000001200020028800140007001c020700ad
:101830000000e00003003a00c04525000100200040
:10184000020037000000200001002000810f70001e
:101850000100320014000700000020000000e0003a
:10186000020032000000020000000000b256020038
:10187000000000000040da000000fe004440a90023
:1018800040c020000000e000030032000000200003
:10189000a00188004440a800000006008a1f7800cc
:1018a0008b1f7800000006009101880080047800fa
:1018b0000000eb001a003700e284440032a0b400bc
:1018c0009905ba00e284440032a0b4009906ba0037
:1018d000e284440032a0b4000006eb00476fde0053
:1018e000fd07b200636ce10003003a00ebff070064
:1018f0000000eb000a003700606ce10004003a00d1
:10190000005deb008b05e900fdff3e0004003700a1
:101910006168e100010032000086eb000b00070067
:1019200019c7ba001905ba000e04e00003003a0016
:101930000a00e000e0ff3a0000000600fe07b200e7
:101940009e0188008a047800f5ff3700395dba00ef
:101950008b05e9000c003200295dba008b05e90017
:10196000080032000c00e00003003a00e28444006a
:1019700032a0b400f5ff370019ddba008b05e9008d
:10198000faff3a008904e800e184440032a0b40080
:101990000000060000000000000000000000000041
:1019a0000000000000000000000000000000000037
:1019b000000000003600f800809fbe00829fbe003d
:1019c000849fbe00869fbe003400f8000000200007
:1019d000a00188000400fa008560a900108320009f
:1019e00011c0b300014878003011800080407800b9
:1019f0000083200001487800100280004500de00ce
:101a0000674060000080fb00000f7800110280003a
:101a1000000e20000100700010028800000000008d
:101a2000008320001040780080407800208720004c
:101a30003a2307001e0078000040780067406000ed
:101a40000080fb00670060004500dd00120280009e
:101a5000f1f12f0081006100010070001002880088
:101a600000000000100280004500de0067406000ba
:101a70000080fb001007980011028000000e20007b
:101a800001007000100288000000000062998000d0
:101a90000083200090407800c02a2100000041000f
:101aa00001487800609980000000e8006099880093
:101ab00061998000f0072000808f500002003600fe
:101ac0000000eb006099880081998000f0072000f9
:101ad000808f500003003e00809980000000e800e5
:101ae000809988001e0090000040780067406000e8
:101af0000080fb00670060004500dd0012028000ee
:101b0000f1f12f00810061000100700010028800d7
:101b1000000000000080fa003400f9004f03be000e
:101b20004f02be004f01be004f00be003600f9005c
:101b3000004006003600f800809fbe00829fbe0075
:101b4000849fbe00869fbe003400f8000000200085
:101b5000a00188000400fa008580a900f087200019
:101b600011c0b30001487800100280004500de007b
:101b7000674060000080fb00000f780011028000c9
:101b8000000e20000100700010028800000000001c
:101b9000630047008000780020a820000d23070084
:101ba000204798001e0078000040780067406000e1
:101bb0000080fb00670060004500dd00120280002d
:101bc000f1f12f0081006100010070001002880017
:101bd000000000002e4090000004e00008003200e9
:101be000be409000e087200001487800e087200098
:101bf000104078000080fb002011880004003700ae
:101c00009580a9000088200011c0b3000148780029
:101c10000080fa003400f9004f03be004f02be00fe
:101c20004f01be004f00be003600f9000040060024
:101c30003600f800809fbe00829fbe00849fbe00d9
:101c4000869fbe003400f80000002000a00188003c
:101c50000400fa0087c0a900f0a8200011c0b3005a
:101c600001487800b011800080407800e0a8200092
:101c700001487800100280004500de0067406000e7
:101c80000080fb00000f780011028000000e200091
:101c9000010070001002880000000000e0a8200091
:101ca000104078008040780000e920009b22070067
:101cb0001e00780000407800674060000080fb0054
:101cc000670060004500dd0012028000f1f12f0086
:101cd0008100610001007000100288000000000017
:101ce000100280004500de00674060000080fb00bd
:101cf0001007980011028000000e20000100700003
:101d0000100288000000000092b98000e0a82000c6
:101d10009040780020332100000041000148780005
:101d200090b980000000e80090b9880091b9800067
:101d3000f03f2000808f5000020036000000eb00d2
:101d400090b98800b1b98000f03f2000808f50002a
:101d500003003e00b0b980000000e800b0b9880080
:101d60001e00900000407800674060000080fb008b
:101d7000670060004500dd0012028000f1f12f00d5
:101d80008100610001007000100288000000000066
:101d90000080fa003400f9004f03be004f02be007d
:101da0004f01be004f00be003600f90000400600a3
:101db0003600f800809fbe00829fbe00849fbe0058
:101dc000869fbe003400f80000002000a0018800bb
:101dd0000400fa0087e0a900d0e9200011c0b30098
:101de00001487800100280004500de006740600076
:101df0000080fb00000f780011028000000e200020
:101e0000010070001002880000000000630047001d
:101e100080007800002a21006e22070020479800e9
:101e20001e00780000407800674060000080fb00e2
:101e3000670060004500dd0012028000f1f12f0014
:101e400081006100010070001002880000000000a5
:101e50002e4090000004e000040032003e4090005c
:101e60000080fb00a01188000400370097e0a90063
:101e7000e0e9200011c0b300014878000080fa00ba
:101e80003400f9004f03be004f02be004f01be00f8
:101e90004f00be003600f900004006003600f80092
:101ea000809fbe00829fbe00849fbe00869fbe00b2
:101eb0003400f80000002000a00188000000fa00b3
:101ec0008460a9001000200000c48800f0c38000d6
:101ed0000000e800f0c3880010c4800021c4800026
:101ee00061004000e080480010c4880021c48800e0
:101ef00030c480000000e80030c4880080c4800046
:101f00000000e0000b003200f1c3800010408000b0
:101f100000017800110009008280d8008000fd00d7
:101f20000000e00003003a0081c48000e087210047
:101f3000010001000080fa003400f9004f03be00e8
:101f40004f02be004f01be004f00be003600f90038
:101f500000400600809fbe003400f8000000200012
:101f6000a00188000000fa0085a0a90020812000bf
:101f70009000780000188000008040008000d100b0
:101f8000208120000108780020812000900090002e
:101f900010188000008040008000d10020812000c7
:101fa0001100980020812000a000900020188000df
:101fb000008040008000d100208120002100980096
:101fc00020812000b0009000301880000080400088
:101fd0008000d10020812000310098000080fa00ac
:101fe0003400f9004f00be00004006003400f80045
:101ff000881f780008002000a80188004f0478009e
:102000000000fa008500a9000080fa003400f90001
:10201000004006000040da000000fe00889fbe007d
:102020008004780020e180000000e00004003a0015
:102030000e0007000084eb000000e00008003500ff
:1020400028e180000900e00005003200090044009a
:10205000060007000000e00001003d000084eb00e6
:10206000080078004f04be000000060080007800e1
:102070000100e00003003a0060c2210020e1880076
:10208000000005000080eb0062022200828f5000f9
:1020900002003e0021e188000000eb000000060085
:1020a0000000050003f0a200889fbe008a9fbe00ca
:1020b0008c1f7800f5000700fc0033006450e1003d
:1020c0004f0032006420e1005200320003826c00b5
:1020d00007003b000905d0000306d000820f540022
:1020e0000c065d0002003900020032008901780010
:1020f000030678008582550004003d000003fd00c2
:102100008103fd008502ea008b854200840f720086
:1021100002003b0060001000e08018006011b80071
:102120000005eb007a28e1000a003900060078007b
:10213000c75ddd00f707b200878075002d0037000e
:10214000828171000a017800610560008180d10000
:102150000080d3008502e900f9ff3b00060440003f
:102160008784480002003b0060041400e0841c00e7
:102170000988a300070032008a8171008281710002
:10218000610164008904d1000884d3008b05e80054
:10219000170037000978a30013003a000b00e00095
:1021a000130034008b05e9000804440089844c00c6
:1021b0000a4474000978a3000d003a000b00e00007
:1021c000070034008b05e9000804440089844c00b2
:1021d00001003a000b0020000978a300f7ff32004d
:1021e0000001eb0002003700828171000a017800d3
:1021f0006b0007000cf0a70001f0a000b40037004e
:102200006420e10002003a00838f6c00b4003300c8
:102210000801be000200be00ad003700889fbe006e
:102220008a9fbe008c1f7800980007009f00330033
:1022300003866c006450e1002e0032006420e1004f
:10224000330032006150e1002f0032006120e100d4
:102250003100320085855500eb07b00009002000f1
:1022600008042000050037000804440089844c005d
:102270000a0031000603430087834b00000153002e
:1022800081815b00f8ff33000203be000800a0005c
:102290000804440089844c00f6ff3900c639dd008b
:1022a0008301730001003200130020008904d10073
:1022b0000884d3000998a300050032000800a70095
:1022c0000300a0008904d1000884d3008b05e80036
:1022d0008904d1000884d3000001eb000281d20000
:1022e0002f00070001f0a1000cf0a70001f0a000f2
:1022f000770037006420e100790032000801be0059
:102300000200be00f7ff37006120e10074003200d8
:102310006000b800f3ff37000000200001f827003c
:10232000f0ff370014002000a40037000001be00b9
:10233000410007000470a70003f0a10003f8a30008
:1023400013003a006509b1001000320009003500a1
:102350006928e100020035000100280000000500a6
:1023600000004000818048008502e900fcff3a003f
:1023700000000600f88f4200050035008100d10002
:102380000080d3008502e800fcff3a000000060050
:102390008000eb00000005006011b800a2003700cb
:1023a00081002000618055000b003d000b002000e3
:1023b00061fe2f000100e1001d00340082817100e8
:1023c000610164008904d1000884d3000000e800a2
:1023d000faff3a0071002000610064000300700001
:1023e000020060000900320061044400e0844c00f7
:1023f0000988a500050032008b05e8006808e100a7
:1024000002003a008904d1000884d300f20f2000b2
:102410000258e10005003d00c75ddd00f907b2008c
:102420008980750008007800000006000bf827007e
:102430008b00780000000500c70ade00f107b2003b
:10244000f50fb20008003200e1cf42000200320076
:102450000170a00024000500810f7000010032000f
:102460000408050044000500810f700002003a00d6
:10247000140005008502e9000000400081c048000a
:10248000fcff3b000170a000240005000004be001a
:10249000e9ff07000003be000405be000200be0005
:1024a000e5ff0700844f7500000006000200be0033
:1024b0006450e100050036006420e10002003600af
:1024c0000968a30001003a000800be000160a000f6
:1024d0004f0678004f05be004f04be000000060006
:1024e000f0ff2f00f1ff2700f9ff3700889fbe00a3
:1024f0008a9fbe008c1f7800e4ff0700ebff3300cb
:1025000003866c006450e100240032006420e10086
:10251000270032006150e100220032006120e1001a
:10252000210032008b854200eb07b1000134b80076
:10253000003ab8000804420089844a00013ab80011
:102540000030b8008880400009014a0004003300d0
:102550000000400081804800020149008b05e9002d
:10256000c909dd0083017000010032001300200062
:10257000c814de004814dd004709de001200b20076
:10258000c808de000884700085ff070001f0a10084
:102590000cf0a70001f0a000cdff37006120e100a2
:1025a000cfff32000801be000200be00f7ff370077
:1025b0006150e100fcff3a00c9ff3700889fbe0070
:1025c0008a9fbe00841f7800b0ff07004f0078008c
:1025d00011003300f0ff2f00838f6c0006003b00da
:1025e000040565000a00a7000800370009f0a600ee
:1025f0001000200008003700820f5400838f5c0019
:10260000030039001000200001003e0000002000ff
:1026100009f0a7000000ea004f05be004f04be000d
:102620000000e00000000600889fbe008a9fbe00f8
:1026300000827000040271000482710026003200e2
:102640000004be000200be006011b8006b0920004b
:10265000950220000182cf000a0039000541b10037
:102660000082cf00070039000541b1000982cf0088
:10267000040039000541b1000882cf000100390093
:102680000541b10005425200120032000a003b0031
:1026900082817100610164008100d1000080d3005b
:1026a0008984d3000884d3008b05e8000442e80045
:1026b000f7ff3a00070037000804440089844c0003
:1026c00000004800818048008b05e9000442e900d1
:1026d000f9ff3a0032ff07004f05be004f04be006d
:1026e000000006000000e0002f003200c00178006a
:1026f000e38f51002c0036000308a3002a003a00a3
:1027000001e180000100e00002003200810f500072
:10271000040031001100980000e188001600370025
:1027200082007800110190000200e00002003200f7
:10273000800f5100faff39001102780084824000b6
:10274000850f500018003900808f520003003a00b6
:102750008308420001007800070037000200e00013
:102760000300320083014000830f51000e00390046
:102770001200980090009800900090000100e00086
:102780000900320010014000828f500006003a001c
:10279000e2c121000009eb0010017800110841009e
:1027a000910090001100980000000600889fbe0074
:1027b00000047800f1e080000100e0000200320037
:1027c000010078000d00370001e1800000c2210007
:1027d00004003700910f5400250036000180e80006
:1027e000910090000100e000faff3a00100037006d
:1027f000920f54001e0036000280e800100178009d
:102800000200e000faff3a001101780001e18000c7
:1028100000c2210004003700910f5400140036005c
:102820000180e80091009000828f5000faff3a008a
:1028300019e18000888f540001003100880478007d
:1028400009007800600007000000e00004003a0082
:10285000888f5400050032008904d100f5ff37004d
:10286000091878009fff0700d2ff37000000eb0037
:102870004f04be0000000600881f7800630440007b
:102880000800a1008000eb00800f540021003600fa
:10289000e30f540001003e004800200008007800cb
:1028a000c2ff07008000eb000000e00019003200ca
:1028b000900078009101780064815100880f5100e8
:1028c0000300310011019000020878000700370072
:1028d00008814000020878009101900013019800df
:1028e00010017800110914008808780010017800a0
:1028f0000000eb000200e0000400320092019000b2
:102900000300e000010032000280e800f0e08800ef
:102910008180e800010078004f0478000000060084
:102920008001780002003700b15978000201e90007
:102930000200e000fcff3a00000006008001780081
:1029400002003700815978000201e9000200e0002e
:10295000fcff3a0000000600020037000204e0001d
:102960000b003200810178000002780030417800cd
:10297000b14f5100f9ff32001000200014427800de
:10298000934f5200030031000080eb00000006006e
:102990000000eb000000060000017800b141780063
:1029a000035978000304e000fcff3a000000060031
:1029b00080007800010178003104e000fdff3a005a
:1029c0000000510000000600800078000000eb00cd
:1029d0000100e00005003400010078008ffd0700d1
:1029e000e10f400001003a000000eb00000006008b
:1029f000881f78000204780008017800c8ff0700eb
:102a0000080040004f047800000006000000fa00b3
:102a1000881f780000047800ea8157003fb99700ca
:102a200088007800804f2100070007000000e000c8
:102a3000020035008040eb00017478004f047800fc
:102a40000080fa00000006006200fa00889fbe00c5
:102a50008a1f78000005780081047800020478005d
:102a60008300780080f92f000f004000d403070096
:102a70009a979f00a9979f000000eb00b09f9f00ce
:102a80001885fb008a04fb000a05ea004f55de00aa
:102a900050022000808f54000d003200e10f5500dd
:102aa0000b003a000a017800880078002f90970008
:102ab0009f91970003000100a0979f000000e00095
:102ac0008e0032003f9897000000e800b09f9f0002
:102ad0000a04440050022000808f54000400320099
:102ae0000900e000e6ff3a003f98970084003700b5
:102af0000000eb00909f9f00809f9f00f0979f0039
:102b0000e0979f00d0979f00c0979f000700370075
:102b1000a1c021000100500000004000e1bf2100e1
:102b200061007800df98970001007000d09f9f003f
:102b30008804780009047800384578008a00fb0092
:102b4000a0c02100a70107000000e000f0ff3a004c
:102b5000a1c2b300814f55000e003a00cf88970004
:102b60000180e900c08f9f0010007800c09f9f0087
:102b70000000e00005003d000000ea00c09f9f004b
:102b80005f9897000020a000d09f9f000904e800f4
:102b90000f003700c09f9f000000eb0005003700ca
:102ba000f2ff2700820f5000020032006a01b900d4
:102bb000028040000904780088047800b900fb0016
:102bc0000103b100e98f5000f5ff3600c09f9f0060
:102bd000e0c2b300984f1000020032000080eb000a
:102be00019003700a0c2b300d84f100007003a0008
:102bf000cf8897000180e900c08f9f001000780007
:102c0000a09f9f000804e800100037000000eb00c0
:102c1000a09f9f008800780005003700f3ff270081
:102c2000830f5000020032006a02b9000400410024
:102c300001047800880078003101fb000203b10034
:102c4000e90f5100f5ff3600a09f9f0098447800df
:102c50008900fb0060bf2100620107000000e00066
:102c6000020032000804e800010037008044eb0055
:102c7000c97f9f0080c6b30080cf540004003a0093
:102c800098cf14000a003a00664050000600370052
:102c9000c0c6b30080cf540005003a0098cf14009e
:102ca00003003a0065404000c07f9f000804e80030
:102cb0001801fb00e3fb2f008f81410081f92f00f9
:102cc0008f804000a0f92f000f0040001000070087
:102cd0000000e00009003a00e1fb2f008f80400077
:102ce000a0f92f000f004000790207000000e0006b
:102cf000020035000804e80061ff37000080eb00a7
:102d00004f0578004f04be000080fa000000060066
:102d1000889fbe008a1f780000047800e0c6b300d8
:102d2000804f5100c100320015003c006b40500044
:102d3000804f5100240032000a003c0070405000d7
:102d4000804f5100fa00320065404000804f510032
:102d50006800320050c2b300804f51000b013a00ae
:102d60000701370040c6b300804f51001b003200fe
:102d700065404000804f510004013a0017003700c1
:102d800030c7b300804f5100e900320007003c001b
:102d900064405000804f5100560032000040e8006f
:102da000804f5100f9003a00d300370050c7b300fc
:102db000804f51004f00320063404000804f51006f
:102dc000f2003a004b0037001181e90082087800d8
:102dd0007800900012417800ea00370028609000e7
:102de000c4c6b300844f500007003a0011027800b7
:102df00064005200800878001002be004fabde0075
:102e0000860378001100370014c7b300844f5000c8
:102e100003003200a4c6b300844f500006003a00fd
:102e20001102780068005200800878003002be006d
:102e30002003be00050037001180e90080087800fb
:102e400010027800cfa2de00612bb900049cbe0006
:102e50000694be002860900081c6b300814f5000e8
:102e60000d00320021c6b300814f500004003a002b
:102e70000402fb00cfa2de00612bb900080037007e
:102e800041c7b300814f500003003200e6c040004c
:102e9000814f500004003a00cfa2de00612bb90040
:102ea000049cbe000694be003802be002803be008b
:102eb00078009000d1c2b300e00f5200e08f5a00ba
:102ec000e00f5b00e08f5b00080035008810900089
:102ed0000118a30002003200b1c2b30003003700a2
:102ee0000108a3004c00320001c2b30081717800d8
:102ef0004700370028609000c4c6b300844f5000dc
:102f000006003a0011027800640052008008780040
:102f10001002be006033b8001100370014c7b300c0
:102f2000844f500003003200a4c6b300844f500009
:102f300006003a001102780068005200800878000c
:102f40003002be002003be00050037001180e900fa
:102f500080087800100278008002eb006033b8002f
:102f6000049cbe000694be002860900081c6b30099
:102f7000814f50000d00320021c6b300814f500038
:102f800004003a000482fb008002eb006033b800ca
:102f90000800370041c7b300814f500003003200e2
:102fa000e6c04000814f500004003a008002eb0070
:102fb0006033b800049cbe000694be000810900068
:102fc0000038a300140032003802be002803be00ff
:102fd000e00f5200e08f5a00e00f5b00e08f5b00d3
:102fe0000d00320080c7b300804f51000300320053
:102ff00080c5b300804f510007003a007800900070
:1030000001c3b300817178000000e800827178008c
:103010000000e80070049800780090008081410072
:1030200063049800824078003e00370028619000d9
:10303000c3c6b3001180e900834f51002200320063
:103040000a003c00e4c15100834f510025003200ca
:1030500083c1e800834f510013003200e8c15100e2
:10306000834f51001e003a000a00370043c7b300e7
:10307000834f51001b003200e6c14100834f5100d5
:1030800018003200e9c15100834f510014003a008a
:10309000050037008008780010007800485c900038
:1030a0000848780041003700800878001000780058
:1030b000680a9000cfa2de00612bb9000498be0020
:1030c0000690be00390037008008780010007800b4
:1030d00068099000cf91de000288be0033003700ff
:1030e0001180e9008008780010007800680c9000da
:1030f000080878002d0037001180e900800878006a
:1031000010027800cfa2de00612bb900049cbe0043
:103110000694be007800900080814100630498000e
:1031200081c7b300080078003a0007001f0037008d
:103130001180e90080087800100578006a04980082
:10314000d80c90000900e00004003d000a0078005f
:1031500017fe070080047800070037000901780097
:103160008000eb000a007800140007000000e00077
:10317000010032008a045000190c98000b0037003f
:103180007800900082717800060037007800900087
:10319000808141000204e00001003a0052c2b30005
:1031a000824978000000e800700498000000eb00fd
:1031b0004f0578004f04be000000060003003700f2
:1031c000b0cf1000050032000201e9008001780054
:1031d0000200e000faff3a0000000500030078005a
:1031e00000000600020037000304e0000600320081
:1031f0000001780002007800b041780081cf5100d2
:10320000f9ff3a00010037000001eb0002007800ee
:1032100000000600fc874700889fbe008a9fbe0012
:103220008c9fbe008e1f78000006780080c5b3001a
:1032300080cf50000a0032007740400080cf50001d
:103240000a0032006940400080cf50000b0032007d
:1032500050be210080bf9f00ae0020000a00370052
:1032600042bd210082bf9f000600370053be2100ef
:1032700083bf9f008e0020000300370054be210052
:1032800084bf9f000e0120003c02be002c03be0044
:103290000605be000404be0040c6b30080cf500047
:1032a000030032006540400080cf50000b003a0020
:1032b000e00f5200e08f5a00e00f5b00e08f5b00f0
:1032c00006003d006000b8006011b8000404500022
:1032d000858458000605590087855900e80f570076
:1032e0000400320040002000f00f570038003a0080
:1032f0000100370030002000e00f5400e08f5c0038
:10330000e00f5d00e08f5d0004003a00dc089000f3
:103310008d0120000100e000060032008e00e9006f
:10332000888060008fba9700e5c07800f1ef9f00b9
:103330007d012000800078008100e9000500330055
:103340008b05d1000a85d3008984d3000884d3007b
:10335000f9ff3700089ebe000a96be001200370033
:103360008d06e9008e00e900848060000fb99700a7
:10337000e2c1780082fd2f000f01410003f17e00c1
:10338000800078008100e900050033008783d100c8
:103390000683d3008582d3000482d300f9ff37006f
:1033a000049ebe000696be003c02be002c03be007a
:1033b000e00f5200e08f5a00e00f5b00e08f5b00ef
:1033c0008b0034000d00e000e5ff3c008800370072
:1033d0002c60900081c6b300814f50000b0032007a
:1033e00006003c000004e00008003200e6c0500087
:1033f000814f50004e003a0004003700c1c6b300b0
:10340000814f50004a003a00210037000800e000d8
:1034100004003a005c0890008d0120000000e000ec
:1034200006003200110009000e84d8000fb9970081
:10343000e2c07800f1ef9f007d012000110009003b
:103440000e84d8000a003700110009000e04d800cd
:103450008d06e9000e81b900020454008fb8970070
:1034600061417c0081fd2f008f80400082f07e0052
:10347000000478000800e000020032000d00e000c7
:10348000f1ff3c00cfc4de00614db90025003700dc
:10349000e00f5400e08f5c0004003a005c089000ec
:1034a0008d0120000000e000070032006171b900ca
:1034b0000800be00630107008fb99700e341780060
:1034c000f3ef9f007d0120006171b9000800be008c
:1034d0004c0107000b0037006171b9000800be0005
:1034e000390107008d06e90000f1b900020454001b
:1034f0000fba9700e4427c0084fd2f000f024200c7
:1035000005f27e000004be00e00f5000e08f58007e
:10351000020032000d00e000efff3c004fcdde0066
:103520008a057800089ebe000a96be00300037006b
:10353000e00f5400e08f5c00e00f5d00e08f5d0065
:1035400004003a005c0890008d0120000000e000bb
:10355000090032006172b900612bb9000800be0099
:103560000a01be00da0107000fba97006442780032
:10357000f4ef9f007d0120006172b900612bb9005a
:103580000800be000a01be00ca0107000d00370096
:103590006172b900612bb9000800be000a01be00cb
:1035a000cf0107008d06e90000f2b90004045400c1
:1035b0008fba970065427c0085fd2f008f82420004
:1035c00084f27e00009ebe000296be003c04be0057
:1035d0002c05be00e00f5400e08f5c00e00f5d00a2
:1035e000e08f5d00020034000d00e000e8ff3c00c9
:1035f000e80f570010003a000c1090000038a300ac
:103600000d003200f78f560006003e0085fd2f00aa
:103610008f824200e5c07e0000c3b30080cf50001f
:10362000050032008d06e90002c3b30081fd2f00c2
:103630008f80400082f07e0078811600120e980084
:103640006c00900083fd2f008f8141008d80410030
:10365000b3fc07001c089000dc089000810f5000ac
:1036600006003d0000805000000e98000c109000f5
:103670000040a100001698000f0037000100e00094
:103680000d003d008c109000f4806000f08f500021
:1036900009003a007c099000fc0090008100510074
:1036a0000c09900082805000008050004240a90028
:1036b00001003400000e98004f0778004f06be004e
:1036c0004f05be004f04be00cf01b1000000060050
:1036d0000400fa00889fbe008a9fbe008c1f7800fd
:1036e0000004780001067800f80d90007800900042
:1036f00080855500080890008085550018089000c6
:103700008085550028089000808555003808900075
:1037100080855500480890008085550000022200f1
:1037200090bf9f0000032300a0bf9f0008109000df
:103730000028a30015003a000b00e000130034003d
:103740000b0578008a047800e20f5500010036006e
:1037500029002000c801900009017800ee80570080
:103760005800900003000100500498000000e000a1
:103770008c0032006808900009004000600c98003e
:10378000090555004240a900eeff3c007801900079
:103790000200e0000c003400c80190008c007800aa
:1037a0005800900003000100500498008080eb0056
:1037b0000000e0007c003200e808900078009000f3
:1037c00000804000600c9800880c90000900e00028
:1037d0001100340009057800e28f54000100360022
:1037e0002a002000c80190000a017800ec805700f0
:1037f0005800900003000100500498000000e00011
:1038000068003200680890000a004000600c9800d0
:103810008a845400edff3700180990000200e00090
:103820000c003400c8019000e8009000580090009f
:1038300003000100500498008080eb000000e000cd
:1038400059003200e80890001808900000804000fd
:10385000600c9800a80c90000900e00011003400f2
:1038600009057800e28f5400010036002a0020008c
:10387000c80190000a017800ec80570058009000c1
:1038800003000100500498000000e00045003200f1
:10389000680890000a004000600c98008a84540078
:1038a000edff3700380990000200e0000e00340000
:1038b000e80090001808900080804000c801900047
:1038c0005800900003000100500498008080eb0035
:1038d0000000e00034003200e80890003808900052
:1038e00000804000600c9800c80c90000900e000c7
:1038f0001100340009057800e28f54000100360001
:103900002a002000c80190000a017800ec805700ce
:103910005800900003000100500498000000e000ef
:1039200020003200680890000a004000600c9800f7
:103930008a845400edff3700081090008000eb00ef
:103940000028a300180032000b00e000160034002d
:103950008b04780009057800e28f540001003600de
:103960002a002000c80190000a017800ee8057006c
:103970005800900003000100500498000000e0008f
:1039800008003200680890000a004000600c9800af
:103990008a8454004240a900eeff3c008000eb0006
:1039a000010037008080eb00010078004f067800ae
:1039b0004f05be004f04be000080fa000000060064
:1039c0000108780000000600839f68000100e00005
:1039d00002003d0060001000e08018000300e000dd
:1039e00002003d0060011100e081190005000700a0
:1039f0004f00e00002003b0060001000e080180073
:103a0000000006006022b800060220000000d0007e
:103a10008180d2000482d2008582d2000000a00002
:103a20000202520083825a00030031000202420067
:103a300083824a000000a1000603e900f3ff3a0078
:103a400000000600efff07000400be0000000600b3
:103a5000889fbe008a9fbe0030044200b0844a00a6
:103a600030054b0090854b006000b1000898be0007
:103a70000a90be000440e10005c8e10006d0e10064
:103a800007d8e10002003100680040001008e8009b
:103a90004f05be004f04be0000000600889fbe0018
:103aa0008a9fbe003004be002005be0004185400ea
:103ab00005985c0006185d0007985d001100200065
:103ac0000440e10005c8e10006d0e10007d8e100ac
:103ad000010039008000eb00108810004f05be0087
:103ae0004f04be00000006001200fa00889fbe00ce
:103af0008a9fbe008c9fbe00e0b79f00f1b79f0079
:103b000082bf9f0093bf9f000605be000404be0055
:103b10000000eb00d0b79f00c0b79f00b0b79f0078
:103b2000a0b79f0090b79f000006eb005fb1970021
:103b3000cfb09700820141003fb097000200e00043
:103b400004003d00370007007e805700c0ff0700db
:103b500003003700330007007e805700cfff0700c7
:103b6000dfb697000d00e0000c0035006fb2970043
:103b7000ffb297000fbb97009fbb9700100020007b
:103b8000010020006011b800000272008182720002
:103b900002037300838373001b0007000c06e80018
:103ba00001042000810f5600e0ff3a000d00e00004
:103bb00004003d000802be000a03be007e805700dc
:103bc000a3ff07005fa897000000e00005003a008f
:103bd0001fb29700afb297003fb39700cfb39700e3
:103be000090007006fb09700ffb097000fb997006a
:103bf0009fb997004f06be004f05be004f04be00a0
:103c00000080fa0000000600010007000000060026
:103c1000a4b79f00b5b79f00c6b79f00d7b79f0056
:103c2000000006004f09de0082817100b3b79f00db
:103c30004f01de008180400082807000a1b79f00ac
:103c40008fb097004f09de000000400002007000b6
:103c500090b79f007fa897004f01de008180400051
:103c60008280700081b79f000d0007004f3ade0090
:103c70000000400004007000f0af9f000800070043
:103c80000402420085824a0006034b0087834b00f2
:103c9000dfff07000802be000a03be0000000600a6
:103ca0002fb29700bfb297004fb39700dfb39700d2
:103cb00000000600881f780018002000881f780088
:103cc00089ff07008f87e9004f0478000000060095
:103cd000801feb0084ff07008f87e90000000600cb
:103ce000889fbe008a9fbe00e00f5000e08f580002
:103cf000e00f5900e08f59000c003d006044b8000f
:103d00006055b8000000540081805c0002015d0035
:103d100083815d00180020001500070008003d00a9
:103d2000180007000004eb00050037000004eb005a
:103d30000f00070002003d001200070018002000dd
:103d4000dcff07000800e000060032006022b80037
:103d50006033b8000000520081805a0002015b000d
:103d600083815b004f05be004f04be0000000600cb
:103d7000e00f5200e08f5a00e00f5b00e08f5b0025
:103d8000000006006044b8006055b800040254000a
:103d900085825c0006035d0087835d0000000600ed
:103da000889fbe008a9fbe008c1f7800e00f5000e5
:103db000e08f5800e00f5900e08f59000d003d00e2
:103dc0006044b8006055b8000000540081805c0079
:103dd00002015d0083815d001c0020000820e100dd
:103de00009a8e1000ab0e1000bb8e1000d003d00b8
:103df000080037000006eb00e00f5200e08f5a0089
:103e0000e00f5b00e08f5b0006003d006044b800ff
:103e10006055b8000402540085825c0006035d0012
:103e200087835d00aaff07000c00e0000600320057
:103e30006022b8006033b8000000520081805a0050
:103e400002015b0083815b004f0678004f05be00d6
:083e50004f04be000000060053
:020000040000fa
:103e58003c680000746d00006c3e00003c68000087
:103e680065610000643e00003c7400006974000055
:103e78006c6500003e3c00002f740000697400006f
:103e88006c6500003e3c00006c6900006e6b000031
:103e980020720000656c00003d2700006963000087
:103ea8006f6e00002768000072650000663d000024
:103eb8002764000061740000613a00003b62000062
:103ec8006173000065360000342c0000695600005c
:103ed800424f000052770000304b00004767000057
:103ee8006f3d0000273e00003c6c0000696e00003a
:103ef8006b200000726500006c3d00002773000015
:103f0800747900006c650000736800006565000046
:103f18007427000068720000656600003d270000f5
:103f280068740000747000003a2f00002f650000cc
:103f3800636300002d6c0000616200002e630000c6
:103f48006f6d00002f73000068610000726500004b
:103f5800642f0000626f00006f740000737400002b
:103f680072610000702e0000637300007327000068
:103f78003e3c00007363000072690000707400002a
:103f880020730000726300003d2700006874000081
:103f9800747000003a2f00002f6500006363000072
:103fa8002d6c0000616200002e6300006f6d000040
:103fb8002f7300006861000072650000642f000024
:103fc8006a71000075650000727900002e6a0000b1
:103fd800732700003e3c00002f730000637200004e
:103fe80069700000743e00003c73000063720000ba
:103ff800697000007420000073720000633d0000c7
:104008002768000074740000703a00002f2f000029
:1040180065630000632d00006c610000622e0000e3
:10402800636f00006d2f000073680000617200006c
:10403800656400002f6200006f6f00007473000059
:1040480074720000617000002e6a0000732700007f
:104058003e3c00002f73000063720000697000008e
:10406800743e00003c6c0000696e00006b2000008c
:10407800726500006c3d0000277300007479000031
:104088006c65000073680000656500007427000017
:1040980074790000706500003d2700007465000019
:1040a800787400002f630000737300002768000015
:1040b80072650000663d0000276100007070000016
:1040c8002e63000073730000273e00003c7300005d
:1040d80063720000697000007420000073720000b1
:1040e800633d000027610000707000002e6a000028
:1040f800732700003e3c00002f730000637200002d
:1041080069700000743e00003c2f000068650000e4
:10411800616400003e3c0000626f000064790000aa
:104128003e3c0000683100003e4900007420000059
:10413800576f0000726b0000732100003c2f0000d5
:10414800683100003e3c00006469000076200000f1
:10415800636c00006173000073270000726f000039
:10416800772700003e3c00006469000076200000cc
:10417800636c00006173000073270000636f000028
:104188006c200000636f00006c2d00007873000045
:104198002d310000322700003e3c0000627500000f
:1041a800747400006f6e0000206300006c610000f2
:1041b800737300003d270000627400006e20000049
:1041c800627400006e2d000070720000696d0000be
:1041d80061720000792700003e50000072690000fb
:1041e8006d610000727900003c2f000062750000cc
:1041f800747400006f6e00003e3c000062750000a1
:10420800747400006f6e0000206300006c61000091
:10421800737300003d270000627400006e200000e8
:10422800627400006e2d0000737500006363000067
:1042380065730000732700003e530000756300009b
:1042480063650000737300003c2f00006275000076
:10425800747400006f6e00003e3c00006275000040
:10426800747400006f6e0000206300006c61000031
:10427800737300003d270000627400006e20000088
:10428800627400006e2d000077610000726e0000fd
:10429800696e0000672700003e5700006172000049
:1042a8006e6900006e6700003c2f00006275000018
:1042b800747400006f6e00003e3c000062750000e0
:1042c800747400006f6e0000206300006c610000d1
:1042d800737300003d270000627400006e20000028
:1042e800627400006e2d0000646100006e670000bb
:1042f80065720000273e0000446100006e67000000
:10430800657200003c2f00006275000074740000a4
:104318006f6e00003e3c000062750000747400007f
:104328006f6e0000206300006c6100007373000072
:104338003d270000627400006e20000062740000d7
:104348006e2d00006465000066610000756c000059
:10435800742700003e440000656600006175000097
:104368006c7400003c2f000062750000747400003b
:104378006f6e00003e3c00002f640000697600006c
:104388003e3c00002f640000697600003e3c0000bf
:104398006469000076200000636c0000617300000f
:1043a80073270000726f0000772700003e3c000072
:1043b8006469000076200000636c000061730000ef
:1043c80073270000636f00006c200000636f00001b
:1043d8006c2d0000787300002d310000322700009a
:1043e8003e3c000062750000747400006f6e0000af
:1043f800206300006c610000737300003d2700001b
:10440800627400006e200000627400006e2d0000cf
:1044180070720000696d0000617200007927000069
:104428003e500000726900006d6100007279000062
:104438003c2f000062750000747400006f6e00006d
:104448003e3c000062750000747400006f6e00004e
:10445800206300006c610000737300003d270000ba
:10446800627400006e200000627400006e2d00006f
:104478007375000063630000657300007327000014
:104488003e5300007563000063650000737300000d
:104498003c2f000062750000747400006f6e00000d
:1044a8003e3c000062750000747400006f6e0000ee
:1044b800206300006c610000737300003d2700005a
:1044c800627400006e200000627400006e2d00000f
:1044d80077610000726e0000696e000067270000b7
:1044e8003e570000617200006e6900006e670000b0
:1044f8003c2f000062750000747400006f6e0000ad
:104508003e3c000062750000747400006f6e00008d
:10451800206300006c610000737300003d270000f9
:10452800627400006e200000627400006e2d0000ae
:10453800646100006e67000065720000273e00009d
:10454800446100006e670000657200003c2f0000a7
:1045580062750000747400006f6e00003e3c00003d
:1045680062750000747400006f6e00002063000024
:104578006c610000737300003d2700006274000046
:104588006e200000627400006e2d0000646500005b
:1045980066610000756c0000742700003e4400004e
:1045a80065660000617500006c7400003c2f000017
:1045b80062750000747400006f6e00003e3c0000dd
:1045c8002f640000697600003e3c00002f64000064
:1045d800697600003e3c0000646900007620000017
:1045e800636c00006173000073270000726f0000a5
:1045f800772700003e3c0000646900007620000038
:10460800636c00006173000073270000636f000093
:104618006c200000636f00006c2d000078730000b0
:104628002d310000322700003e3c0000627500007a
:10463800747400006f6e0000206300006c6100005d
:10464800737300003d270000627400006e200000b4
:10465800627400006e2d000070720000696d000029
:1046680061720000792700003e5000007269000066
:104678006d610000727900003c2f00006275000037
:10468800747400006f6e00003e3c0000627500000c
:10469800747400006f6e0000206300006c610000fd
:1046a800737300003d270000627400006e20000054
:1046b800627400006e2d00007375000063630000d3
:1046c80065730000732700003e5300007563000007
:1046d80063650000737300003c2f000062750000e2
:1046e800747400006f6e00003e3c000062750000ac
:1046f800747400006f6e0000206300006c6100009d
:10470800737300003d270000627400006e200000f3
:10471800627400006e2d000077610000726e000068
:10472800696e0000672700003e57000061720000b4
:104738006e6900006e6700003c2f00006275000083
:10474800747400006f6e00003e3c0000627500004b
:10475800747400006f6e0000206300006c6100003c
:10476800737300003d270000627400006e20000093
:10477800627400006e2d0000646100006e67000026
:1047880065720000273e0000446100006e6700006b
:10479800657200003c2f0000627500007474000010
:1047a8006f6e00003e3c00006275000074740000eb
:1047b8006f6e0000206300006c61000073730000de
:1047c8003d270000627400006e2000006274000043
:1047d8006e2d00006465000066610000756c0000c5
:1047e800742700003e440000656600006175000003
:1047f8006c7400003c2f00006275000074740000a7
:104808006f6e00003e3c00002f64000069760000d7
:104818003e3c00002f640000697600003e3c00002a
:104828006469000076200000636c0000617300007a
:1048380073270000726f0000772700003e3c0000dd
:104848006469000076200000636c0000617300005a
:1048580073270000636f00006c200000636f000086
:104868006c2d0000787300002d3100003227000005
:104878003e3c000062750000747400006f6e00001a
:10488800206300006c610000737300003d27000086
:10489800627400006e200000627400006e2d00003b
:1048a80070720000696d00006172000079270000d5
:1048b8003e500000726900006d61000072790000ce
:1048c8003c2f000062750000747400006f6e0000d9
:1048d8003e3c000062750000747400006f6e0000ba
:1048e800206300006c610000737300003d27000026
:1048f800627400006e200000627400006e2d0000db
:10490800737500006363000065730000732700007f
:104918003e53000075630000636500007373000078
:104928003c2f000062750000747400006f6e000078
:104938003e3c000062750000747400006f6e000059
:10494800206300006c610000737300003d270000c5
:10495800627400006e200000627400006e2d00007a
:1049680077610000726e0000696e00006727000022
:104978003e570000617200006e6900006e6700001b
:104988003c2f000062750000747400006f6e000018
:104998003e3c000062750000747400006f6e0000f9
:1049a800206300006c610000737300003d27000065
:1049b800627400006e200000627400006e2d00001a
:1049c800646100006e67000065720000273e000009
:1049d800446100006e670000657200003c2f000013
:1049e80062750000747400006f6e00003e3c0000a9
:1049f80062750000747400006f6e00002063000090
:104a08006c610000737300003d27000062740000b1
:104a18006e200000627400006e2d000064650000c6
:104a280066610000756c0000742700003e440000b9
:104a380065660000617500006c7400003c2f000082
:104a480062750000747400006f6e00003e3c000048
:104a58002f640000697600003e3c00002f640000cf
:104a6800697600003e3c0000646900007620000082
:104a7800636c00006173000073270000726f000010
:104a8800772700003e3c00006469000076200000a3
:104a9800636c00006173000073270000636f0000ff
:104aa8006c200000636f00006c2d0000787300001c
:104ab8002d310000322700003e3c000062750000e6
:104ac800747400006f6e0000206300006c610000c9
:104ad800737300003d270000627400006e20000020
:104ae800627400006e2d000070720000696d000095
:104af80061720000792700003e50000072690000d2
:104b08006d610000727900003c2f000062750000a2
:104b1800747400006f6e00003e3c00006275000077
:104b2800747400006f6e0000206300006c61000068
:104b3800737300003d270000627400006e200000bf
:104b4800627400006e2d000073750000636300003e
:104b580065730000732700003e5300007563000072
:104b680063650000737300003c2f0000627500004d
:104b7800747400006f6e00003e3c00006275000017
:104b8800747400006f6e0000206300006c61000008
:104b9800737300003d270000627400006e2000005f
:104ba800627400006e2d000077610000726e0000d4
:104bb800696e0000672700003e5700006172000020
:104bc8006e6900006e6700003c2f000062750000ef
:104bd800747400006f6e00003e3c000062750000b7
:104be800747400006f6e0000206300006c610000a8
:104bf800737300003d270000627400006e200000ff
:104c0800627400006e2d0000646100006e67000091
:104c180065720000273e0000446100006e670000d6
:104c2800657200003c2f000062750000747400007b
:104c38006f6e00003e3c0000627500007474000056
:104c48006f6e0000206300006c6100007373000049
:104c58003d270000627400006e20000062740000ae
:104c68006e2d00006465000066610000756c000030
:104c7800742700003e44000065660000617500006e
:104c88006c7400003c2f0000627500007474000012
:104c98006f6e00003e3c00002f6400006976000043
:104ca8003e3c00002f640000697600003e3c000096
:104cb8006469000076200000636c000061730000e6
:104cc80073270000726f0000772700003e3c000049
:104cd8006469000076200000636c000061730000c6
:104ce80073270000636f00006c200000636f0000f2
:104cf8006c2d0000787300002d3100003227000071
:104d08003e3c000062750000747400006f6e000085
:104d1800206300006c610000737300003d270000f1
:104d2800627400006e200000627400006e2d0000a6
:104d380070720000696d0000617200007927000040
:104d48003e500000726900006d6100007279000039
:104d58003c2f000062750000747400006f6e000044
:104d68003e3c000062750000747400006f6e000025
:104d7800206300006c610000737300003d27000091
:104d8800627400006e200000627400006e2d000046
:104d980073750000636300006573000073270000eb
:104da8003e530000756300006365000073730000e4
:104db8003c2f000062750000747400006f6e0000e4
:104dc8003e3c00002f640000697600003e3c000075
:104dd8002f640000697600003e3c00002f6200004e
:104de8006f640000793e00003c2f000068740000ea
:104df8006d6c00003e000000683100007b6300001d
:104e08006f6c00006f7200003a7200006564000069
:104e18003b6600006f6e0000742d0000736900008f
:104e28007a6500003a35000030700000783b0000d9
:104e38007d00000073650000744900006e74000076
:104e480065720000766100006c280000667500003d
:104e58006e630000746900006f6e0000282900006e
:104e68007b6300006f6e0000736f00006c650000cc
:104e78002e6c00006f6700002827000048650000be
:104e88006c6c00006f270000293b00007d2c00009f
:104e98003130000030300000293b000000450000a0
:104ea800434300002d4c00006162000000690000cf
:104eb8006e640000657800002e680000746d0000c4
:104ec8006c00000061700000702e00006373000029
:104ed8007300000061700000702e00006a7300000b
:104ee8000066000061760000696300006f6e0000d4
:104ef8002e690000636f0000003c00006874000029
:104f08006d6c00003e3c0000626f00006479000098
:104f18003e3c0000683100002073000074790000f6
:104f28006c6500003d270000636f00006c6f000097
:104f3800723a000072650000643b0000273e0000e2
:104f48005061000067650000204e00006f7400008b
:104f5800204600006f7500006e640000213c0000d0
:104f68002f680000313e00003c2f0000626f0000f7
:104f7800647900003e3c00002f680000746d00005a
:104f88006c3e0000003c0000687400006d6c00007e
:104f98003e3c0000626f0000647900003e3c000067
:104fa8006831000020730000747900006c6500000f
:104fb8003d270000636f00006c6f0000723a00002c
:104fc80072650000643b0000273e00005468000042
:104fd8006520000070610000796c00006f610000be
:104fe80064200000697300002067000072650000fb
:104ff80061740000657200002074000068610000a0
:105008006e200000323000003438000020620000ba
:105018007974000065730000213c00002f680000cf
:10502800313e00003c2f0000626f000064790000f0
:105038003e3c00002f680000746d00006c3e0000cc
:1050480000410000542b0000434900005053000069
:10505800454e0000443d0000256400002c2500005a
:10506800640d00000a0000004f4b00000d0a00000c
:1050780000530000454e0000442000004f4b000044
:105088000d0a0000003e00003e4600007265000068
:10509800653a000020300000782500002e3400001a
:1050a800580d00000a000000415400002b43000086
:1050b80049500000434c00004f530000453d00009c
:1050c800256400000d0a0000002500002e320000b3
:1050d800643a0000252e0000326400003a250000e2
:1050e8002e320000643a0000252e000033640000d0
:1050f8003a200000004300006f6d0000706c000053
:105108006574000065640000203e00003e20000039
:1051180000430000485b0000256400005d0d0000ae
:105128000a000000574900004649000020470000d7
:105138004f54000020490000500d00000a000000f4
:105148005374000061720000746900006e6700000b
:1051580020740000686500002048000054540000d6
:105168005020000073650000727600006572000030
:105178002e2e00002e0d00000a00000041540000f1
:105188002b430000495000004d550000583d0000d9
:10519800310d00000a000000415400002b430000bc
:1051a8004950000053450000525600004552000087
:1051b8003d3100002c380000300d00000a000000ce
:1051c800415400002b4300004946000053520000a0
:1051d8000d0a000000570000494600004920000061
:1051e800434f00004e4e0000454300005445000068
:1051f800440d00000a00000057490000464900001d
:105208002044000049530000434f00004e4e000068
:1052180045430000540d00000a0000002b43000025
:1052280049460000535200003a5300005441000020
:10523800495000002c0000002b43000049460000a4
:10524800535200003a530000544100004d41000001
:10525800432c00000054000068650000204800004e
:10526800545400005020000073650000727600005e
:10527800657200002069000073200000727500004c
:105288006e6e0000696e0000672e00002e2e000072
:105298000d0a00000020000020490000503a0000dc
:1052a80020200000257300000d0a000000200000e7
:1052b800204d0000414300003a2000002573000003
:1052c8000d0a00000a0a0000002c0000434c0000f0
:1052d8004f53000045440000002c0000434f0000dd
:1052e8004e4e000045430000540000002b490000ca
:1052f800504400002c0000004745000054200000e6
:105308002f00000048540000545000002f000000f7
:105318000d0a0000577200006f6e00006720000041
:10532800466f0000726d00006174000021200000cb
:1053380069640000783100003a250000642000000c
:1053480069640000783200003a25000064200000fb
:1053580063680000616e00006e6500006c3a000032
:10536800256400000d0a000000520000657100006d
:10537800756500007374000065640000203e00003d
:105388003e20000000430000485b00002564000048
:105398005d2c000020470000455400005b250000fc
:1053a800735d00000d0a0000000000004154000079
:1053b8002b4300004950000053450000525600009e
:1053c800455200003d3000000d0a00000041000079
:1053d800542b000052530000540d00000a00000036
:1053e80041540000453000000d0a00000041000053
:1053f800542b0000435700004d4f00004445000067
:105408003d3300000d0a000000410000542b00004d
:10541800435700004a410000503d0000222500008b
:10542800732200002c22000025730000220d0000ca
:105438000a0000000d0a0000436f00006e6e0000b5
:1054480065630000746900006e6700002074000046
:105458006f2000006e650000747700006f72000016
:105468006b20000022000000222e00002e2e0000db
:105478000d0a000000000000726500006164000071
:10548800790d00000a0000004f4b00000d0a0000d3
:1054980000530000454e0000442000004f4b000020
:1054a8000d0a0000006200007573000079200000fa
:1054b800702e00002e2e00000d0a0000004600008d
:1054c800414900004c0d00000a0000004552000050
:1054d800524f0000520d00000a000000000d0000ad
:1054e8000a540000696d0000656f000075740000c3
:1054f8003a200000617400002e73000074610000ff
:10550800746500003d2500006420000072650000fd
:10551800744300006f640000653d000025640000ce
:105528000d0a000000410000542b000052530000f7
:10553800540d00000a0000000d0a00000d0a0000ca
:105548005468000065200000436f00006d6d000086
:10555800616e00006420000045780000656300006b
:1055680075740000696f00006e200000457200002d
:10557800726f000072210000205200006573000065
:105588007461000072740000696e0000672e0000ec
:105598002e2e00000d0a00000d0a0000000d00006c
:1055a8000a0d00000a54000068650000204300004e
:1055b8006f6d00006d6100006e6400002045000002
:1055c8007865000063750000746900006f6e000064
:1055d80020460000616900006c650000642100003d
:1055e80020520000657300007461000072740000ae
:1055f800696e0000672e00002e2e00000d0a0000c4
:105608000d0a00000000000045430000432d000083
:105618004d6f0000626900006c65000000650000c5
:10562800636300006c6100006231000031320000e9
:1056380032000000494b00004a5300004843000074
:105648004a4b0000530000002b4900005044000062
:085658002c000000000000001e
:020000040000fa
:105660000200fa00000f7800809980000000e0003e
:105670001400320071998000c02a2100008040008f
:10568000904078001e0078000148780070998000f2
:105690000000e8007099880071998000f0072000f0
:1056a000808f5000020036000000eb0070998800e7
:1056b000809980000000e900809988001000200097
:1056c000010037000000eb000080fa000000060037
:1056d0000200fa00000f7800b0b980000000e0007e
:1056e00014003200a1b98000203321000080400066
:1056f000904078001e00780001487800a0b9800032
:105700000000e800a0b98800a1b98000f03f2000a7
:10571000808f5000020036000000eb00a0b9880026
:10572000b0b980000000e900b0b988001000200086
:10573000010037000000eb000080fa0000000600c6
:105740000200fa000000eb00000f780005003700af
:10575000c02a21001e0040008040eb000148780074
:105760001e0fe800f00720009e007800808f500098
:10577000f7ff34000000eb00709988000000eb0098
:10578000609988000000eb00809988000080fa0092
:10579000000006000200fa000000eb00000f780095
:1057a00005003700203321001e0040008040eb0040
:1057b000014878001e0fe800f03f20009e007800ae
:1057c000808f5000f7ff34000000eb00a0b9880084
:1057d0000000eb0090b988000000eb00b0b9880031
:1057e0000080fa00000006000800fa002007980078
:1057f0003107980014c0b3002e019000be01900044
:105800000058220001002000800f5100818f5900b4
:1058100001003e000042eb00044f780068150700cd
:105820002135800000fe2f0000806000c000b30022
:1058300020358800c982a80061368000f00f2e0054
:105840008080600000302000010070006036880019
:10585000c9a2a9006315070021e2a80021a2a9009e
:105860002182a9002162a90001118000f0cf2f0040
:10587000008060000011880020e2a90020c2a90079
:1058800020a2a9002082a9009e40780061c060008b
:105890000080fb00610060004300dd00011180001a
:1058a0000130a1000100700000118800011180008a
:1058b00090ff2f0000806000001188002002a900e6
:1058c0001e4078000004e000110032002e0190001c
:1058d000be0190004218dd00ce10de008100700095
:1058e0004210dd00acf207000001be0000402200c3
:1058f00041b7240049f207000200200003f823000a
:10590000e8f1070089f20700000078001000370076
:105910002e019000be0190004418dd00cc10de0086
:10592000810070004410dd009bf207000001be0002
:105930000040220041b7240038f207000200200096
:1059400003f82300d7f1070078f207000000780081
:10595000401188002342a8002362a90023e2a90085
:1059600023a2a90022e2a90022c2a9009560a800f2
:105970009580a9002342a800100280004500de00a7
:10598000674060000080fb00100798001102800053
:10599000000e2000010070001002880000000000ce
:1059a00002042000218320002087200043130700e9
:1059b000022020001188200020a820003f130700ab
:1059c0001e00900000407800674060000080fb00ef
:1059d000670060004500dd0012028000f1f12f0039
:1059e00081006100010070001002880000000000ca
:1059f0000080fa00000006000800fa002007980066
:105a00003107980014c0b3002e019000be01900031
:105a10000058220001002000800f5100818f5900a2
:105a200001003e000042eb00044f7800e414070040
:105a30003135800000fe2f0000806000e000b300e0
:105a400030358800c9c2a80071368000f00f2e00e2
:105a500080806000005020000100700070368800d7
:105a6000c9e2a900df14070031e2a80031a2a900b1
:105a70003182a9003162a90081118000f0cf2f008e
:105a8000008060008011880030e2a90030c2a900c7
:105a900030a2a9003082a9009e40780061c0600059
:105aa0000080fb00610060004300dd008111800088
:105ab0000130a10001007000801188008111800078
:105ac00090ff2f0000806000801188003002a90044
:105ad0001e4078000004e000110032002e0190000a
:105ae000be0190004218dd00ce10de008100700083
:105af0004210dd0028f207000001be000040220035
:105b000041b72400c5f107000200200003f823007c
:105b100064f1070005f2070000007800100037006c
:105b20002e019000be0190004418dd00cc10de0074
:105b3000810070004410dd0017f207000001be0074
:105b40000040220041b72400b4f107000200200009
:105b500003f8230053f10700f4f107000000780078
:105b6000c01188003342a8003362a90033e2a900c3
:105b700033a2a90032e2a90032c2a90097c0a8004e
:105b800097e0a9003342a800100280004500de0023
:105b9000674060000080fb00100798001102800041
:105ba000000e2000010070001002880000000000bc
:105bb0000240200001a9200000e92000bf120700d8
:105bc00002402000f1e92000002a2100bb1207005a
:105bd0001e00900000407800674060000080fb00dd
:105be000670060004500dd0012028000f1f12f0027
:105bf00081006100010070001002880000000000b8
:105c00000080fa00000006000800fa003007980043
:105c10000000eb00000f7800be0090001107980014
:105c2000040037001e0fe8001e0090000000e8008e
:105c3000100798001e009000104078000004e0005b
:105c4000f8ff3a00405480000120200000805000fe
:105c50009e0f500002003e000000eb002d003700b8
:105c6000be009000110798001e003700100280004f
:105c70004500de00674060000080fb0020079800c0
:105c800011028000000e2000010070001002880048
:105c9000000000001e009000104078009e00900060
:105ca0008100e800110798008040780020a82000bb
:105cb0009a1207002e0090000040780067406000b4
:105cc0000080fb00670060004500dd0012028000dc
:105cd000f1f12f00810061000100700010028800c6
:105ce000000000001e009000104078000004e0005a
:105cf000deff3a00a1048000000021000080600067
:105d00000000e00002003a008580a8009580a8000d
:105d10001e0078000080fa00000006000800fa006b
:105d2000300798000000eb00000f7800be009000e4
:105d300011079800040037001e0fe8001e009000b5
:105d40000000e800100798001e0090001040780046
:105d50000004e000f8ff3a004054800001202000d9
:105d6000008050009e0f500021003e000000eb001c
:105d70002c003700100280004500de006740600004
:105d80000080fb002007980011028000000e200018
:105d90000100700010028800000000003e0090002a
:105da00010407800be0090008100e80031079800a4
:105db00080407800002a2100581207002e00900031
:105dc00000407800674060000080fb0067006000d2
:105dd0004500dd0012028000f1f12f00810061001a
:105de0000100700010028800000000000100370070
:105df000000000003e009000104078000004e00029
:105e0000dcff3a00b1048000000028000080600040
:105e10000000e00002003a0087e0a80097e0a80038
:105e20001e0078000080fa00000006000800fa005a
:105e3000200798003107980040548000012020007e
:105e4000808050003e009000808f500002003e0095
:105e50000000eb002d0037000000eb00000f780081
:105e60001e003700100280004500de006740600021
:105e70000080fb001007980011028000000e200037
:105e80000100700010028800000000001e00780071
:105e9000ae00900000804000104078008040780004
:105ea00020a820001d1207001e009000004078006e
:105eb000674060000080fb00670060004500dd0077
:105ec00012028000f1f12f008100610001007000da
:105ed00010028800000000001e0fe8009e007800fd
:105ee0003e009000808f5000deff3900a10480004a
:105ef00000002100008060000000e00002003a0085
:105f00008580a8009580a8003e0090000080fa00df
:105f1000000006000800fa00300798003e009000dc
:105f200090009000405480000220200000005100aa
:105f3000808f5000020039000000eb003300370072
:105f40003e00900090007800110798000000eb00e0
:105f5000000f78001f003700100280004500de00af
:105f6000674060000080fb0020079800110280005d
:105f7000000e2000010070001002880000000000e8
:105f80001e009000104078009e0090008100e80004
:105f9000110798008040780020a82000df1107003a
:105fa0002e00900000407800674060000080fb00f9
:105fb000670060004500dd0012028000f1f12f0053
:105fc00081006100010070001002880000000000e4
:105fd0001e0fe8009e0078003e0090001000900028
:105fe000808f5000dcff3900a104800000002100f8
:105ff000008060000000e00002003a008580a800f8
:106000009580a8003e009000100090000080fa00eb
:10601000000006000400fa00204798004154800068
:10602000f01f2000808f5000020036000000eb00bf
:1060300021003700100280004500de00674060004c
:106040000080fb00000f780011028000000e20008d
:10605000010070001002880000000000ae409000b7
:1060600020a82000ad1107001e0078000040780035
:10607000674060000080fb00670060004500dd00b5
:1060800012028000f1f12f00810061000100700018
:106090001002880000000000a10480000000210020
:1060a000008060000000e00002003a008580a80047
:1060b0009580a800100020000080fa000000060073
:1060c0000800fa00200798003107980030958000fa
:1060d00001402000808050003e009000808f5000e2
:1060e00002003e000000eb002d0037000000eb0036
:1060f000000f78001e003700100280004500de000f
:10610000674060000080fb001007980011028000cb
:10611000000e200001007000100288000000000046
:106120001e007800ae009000008040001040780013
:1061300080407800002a2100781107001e0090009e
:1061400000407800674060000080fb00670060004e
:106150004500dd0012028000f1f12f008100610096
:106160000100700010028800000000001e0fe8000f
:106170009e0078003e009000808f5000deff3900c6
:10618000b104800000002800008060000000e000f2
:1061900002003a0087e0a80097e0a8003e009000c7
:1061a0000080fa00000006000800fa00300798009e
:1061b0003e0090009000900030958000024020004a
:1061c00000005100808f5000020039000000eb00f9
:1061d000330037003e0090009000780011079800cf
:1061e0000000eb00000f78001f0037001002800055
:1061f0004500de00674060000080fb00200798003b
:1062000011028000000e20000100700010028800c2
:10621000000000001e009000104078009e009000da
:106220008100e8001107980080407800002a2100d2
:106230003a1107002e00900000407800674060008f
:106240000080fb00670060004500dd001202800056
:10625000f1f12f0081006100010070001002880040
:10626000000000001e0fe8009e0078003e00900035
:1062700010009000808f5000dcff3900b1048000d6
:1062800000002800008060000000e00002003a00ea
:1062900087e0a80097e0a8003e0090001000900062
:1062a0000080fa00000006000400fa002047980071
:1062b00031958000f03f2000808f500002003600b2
:1062c0000000eb0021003700100280004500de00d6
:1062d000674060000080fb00000f78001102800022
:1062e000000e200001007000100288000000000075
:1062f000ae409000002a2100081107001e0078001f
:1063000000407800674060000080fb00670060008c
:106310004500dd0012028000f1f12f0081006100d4
:10632000010070001002880000000000b10480002d
:1063300000002800008060000000e00002003a0039
:1063400087e0a80097e0a800100020000080fa0075
:10635000000006000000fa00000000004054800029
:106360000000e000fdff3a00111180000020200035
:10637000008060000000e000f8ff3a000080fa00b2
:10638000000006000000fa000000000030958000c8
:106390000000e000fdff3a00911180000020200085
:1063a000008060000000e000f8ff3a000080fa0082
:1063b000000006000200fa00000f7800e5ff070069
:1063c0000b003700000000001111800000202000a9
:1063d000008060000000e000fbff3a001e00780033
:1063e000104078000000fb00201188001e0fe8001c
:1063f0001e007800104078000004e000f1ff3a0031
:106400000080fa00000006000200fa00000f780089
:10641000dcff07000b003700000000009111800036
:1064200000202000008060000000e000fbff3a0038
:106430001e007800104078000000fb00a0118800ca
:106440001e0fe8001e007800104078000004e000f5
:10645000f1ff3a000080fa00000006000200fa0096
:10646000004f7800bbff07001e80fb002011880052
:106470000080fa00000006000200fa00004f7800d9
:10648000c0ff07001e80fb00a01188000080fa00fa
:10649000000006000600fa00100798002107980087
:1064a000acff07000000eb00000f78000d00370084
:1064b000000000001111800000202000008060001a
:1064c0000000e000fbff3a001e0078009e009000f4
:1064d00000804000104078000080fb002011880000
:1064e0001e0fe8009e0078002e009000808f500064
:1064f000efff39000080fa00000006000600fa00f5
:1065000010079800210798009eff07000000eb008d
:10651000000f78000d00370000000000911180008e
:1065200000202000008060000000e000fbff3a0037
:106530001e0078009e00900000804000104078000f
:106540000080fb00a01188001e0fe8009e0078006c
:106550002e009000808f5000efff39000080fa007d
:10656000000006000000fa001011800062006000c8
:106570000000e000020032002222a90001003700e2
:106580000000000010118000610060000000e000c9
:10659000fcff320030118000004078000080fa00db
:1065a000000006000000fa00901180006200600008
:1065b0000000e000020032003222a9000100370092
:1065c0000000000090118000610060000000e00009
:1065d000fcff3200b0118000004078000080fa001b
:1065e000000006000400fa00000f78001107980070
:1065f0009e007800114088009e00900081c48800b1
:106600000080fa00000006000200fa00000f780087
:106610009e00780041c488000080fa000000060057
:106620000200fa00000f78009e00780091c48800f4
:106630000080fa00000006000200fa00000f780057
:106640009e00780051c488000080fa000000060017
:106650000200fa00000f78009e00780061c48800f4
:106660000080fa00000006000200fa00000f780027
:106670009e007800a1c488000080fa000000060097
:106680000200fa00000f78009e00780071c48800b4
:106690000080fa00000006000200fa00000f7800f7
:1066a0009e007800b1c488000080fa000000060057
:1066b0000000fa00d0c480000000e800d0c48800c8
:1066c000d1c48000703e2000808f50001c00360036
:1066d0000000eb00d0c48800e0c480000000e800a7
:1066e000e0c48800e1c48000b0032000808f500027
:1066f000130036000000eb00e0c48800f0c4800006
:106700000000e800f0c48800f1c48000b00320005d
:10671000808f50000a0036000000eb00f0c48800b3
:1067200000c580000000e80000c5880000c58000aa
:10673000f70f5000020036000000eb0000c5880093
:106740000080fa00000006000000fa000001780056
:106750008089210082007800b0187800a0107800ad
:10676000e480400064004000b0187800a010780079
:10677000e480400064004000900878008180e800d8
:106780000080e800020078000080fa0000000600a7
:106790000400fa00004f7800114798002247980043
:1067a0001e80fb0000c588001e4090000080fb009a
:1067b000f0c488002e4090000080fb00e0c48800f8
:1067c0000000eb00d0c488000000eb00c0c48800cb
:1067d0000080fa00000006000000fa00889fbe005a
:1067e0008a9fbe0010c4800021c48000eaee07002a
:1067f0000004be00000880008000eb00e6ee070009
:106800000005be00100880008000eb00e2ee0700eb
:106810000001be000a00be0080ee07000001be00bd
:106820000800be0020ee07004f05be004f04be006a
:106830000080fa00000006000000fa0010c480008a
:1068400021c48000823e20000289b9000201780044
:106850006002b9008401780003014100833e2000fa
:106860000300b800010141008200780002088000a6
:106870000201d1008001eb0000004100818049004d
:106880000080fa00000006000000fa0010c480003a
:1068900021c480000080fa00000006000200fa0017
:1068a00000c48000000f78000000eb0000c48800e6
:1068b0001e007800004078000080fa00000006000a
:1068c0000000fa0004c1a9000421a90021088000e9
:1068d000f0fc2f00008060000040a000200888002d
:1068e000007d2000100888000021ef009460a800bf
:1068f00005e1a8000080fa00000006000200fa008e
:10690000000f78009e007800014088000080fa00a7
:10691000000006000000fa000000eb0050c48800f0
:106920000000eb0040c488000000eb0070c4880049
:106930000000eb0060c48800e1ff07000080fa005f
:10694000000006000a00fa0060479800410798001e
:1069500080b22a002007980005c8bf000004e000ac
:1069600005003d000568ef000668ef000768ef00ce
:106970000868ef000968ef0009c8bf000080fb004d
:10698000e10f500027003200e10f500003003c00ef
:106990000000e00006003200a9003700e20f5000be
:1069a00030003200e30f50006d003200a4003700c9
:1069b00006c8bf000080fb00ae00900000804000d1
:1069c000904078006e40900080cf500012003a0056
:1069d00005c8bf008080fb00ee419000229221009c
:1069e00003f178000040e80005e8b70006c8bf00e2
:1069f0000040e80006e8b70006c8bf00e44f5000ba
:106a0000880036000668ef0009c8bf000040e800b3
:106a100009e8b7008a0037000568ef000668ef0054
:106a20008700370005c8bf008080fb00ee41900062
:106a30002292210003f178000040e80005e8b70049
:106a4000ee409000c0c2b30080cf500077003a0003
:106a50000768ef0009c8bf000040e80009e8b70078
:106a60007700370005c8bf008080fb00ee41900032
:106a70002292210003f178000040e80005e8b70009
:106a800007c8bf008080fb00ee419000229a2100e1
:106a900003f178000040e80007e8b700ee409000fe
:106aa000a0c3b30080cf500062003a0007c8bf0007
:106ab0000040e90007e8b70007c8bf000080fb00fe
:106ac000219a21000041eb00827078000868ef00f5
:106ad00010002000000f78001400370007c8bf0026
:106ae0000080fb00219a2100614078000080fb00bb
:106af0000003b100004078009e00780081407800db
:106b00008180fb000088b900000078008040780098
:106b100008c8bf0000c0400008e8b7001e007800a9
:106b20006a00b90000007800000f780007c8bf00b5
:106b30008080fb008100ea00cf08de008140780001
:106b40000040e90007e8b7000104e000e3ff3a0075
:106b500009c8bf000040e80009e8b7003800370066
:106b600005c8bf008080fb00ee419000229221000a
:106b700003f178000040e80005e8b70008c8bf004e
:106b80000040e90008e8b70008c8bf000004e000c2
:106b90002a003a000000eb00100798000c003700b4
:106ba0004e009000900078001e0090000080400091
:106bb000229221009e0090008100410091407800c7
:106bc000014878001e0090000000e80010079800bf
:106bd00005c8bf008080fb001e009000808f500021
:106be000efff3d004e009000900078001e009000e6
:106bf000008040008040eb00014878001e009000bb
:106c00000000e900800078004e009000110098001c
:106c10000968ef000568ef000668ef00100020002b
:106c200008003700000000000500370000000000e9
:106c300003003700000000000100370000000000e2
:106c40000000eb000080fa00000006000600fa00d9
:106c5000204798002107980004c8bf000004e00006
:106c600001003d000468ef0004c8bf008080fb0005
:106c7000ae419000228a210003f178000040e80034
:106c800004e8b7002e409000ea4f50001d003a0083
:106c90000000eb00000f7800090037002e00900084
:106ca000900078001e00780000804000218a2100ba
:106cb0009e80400091407800014878001e0fe80057
:106cc00004c8bf000080fb009e0f5000f3ff3c0093
:106cd0002e009000900078001e0078000080400098
:106ce0008040eb000148780004c8bf008080fb00b2
:106cf0002e009000110098000468ef0010002000a2
:106d0000010037000000eb000080fa0000000600e0
:106d1000b600fa0040c480000000e0002700320006
:106d2000100280004500de00674060000080fb002c
:106d3000000f780011028000000e2000010070009a
:106d400010028800000000006a00470044fa0700b3
:106d5000100798001e00780000407800674060002f
:106d60000080fb00670060004500dd00120280002b
:106d7000f1f12f0081006100010070001002880015
:106d8000000000001e0090000000e0000b00320038
:106d900010c0b300504f98000040eb00404f9800e7
:106da0006a0047007007980010002000000f98004c
:106db00041c480006c0047000100010060c48000f5
:106dc0000000e00027003200100280004500de00d5
:106dd000674060000080fb002007980011028000df
:106de000000e20000100700010028800000000006a
:106df0006a00470036fa0700100798002e0090003e
:106e000000407800674060000080fb006700600081
:106e10004500dd0012028000f1f12f0081006100c9
:106e20000100700010028800000000001e009000a9
:106e30000000e0000b00320020c0b3003057980083
:106e400010c0b300205798006a004700200f980038
:106e500010002000300f980061c4800072004700cd
:106e60000100010050c480000000e0001200320068
:106e700000882000104078000004e0000e0032007e
:106e800010c0b300105f980020c0b300005f9800ee
:106e90000000eb00500f98000000eb00600f98001e
:106ea00051c48000780047000100010000882000e4
:106eb0008040eb000148780070c480000000e000d2
