:020000040000fa
:08000000020c040000000000e6
:020000040000fa
:100008000e1000000e1000000e1000000e10000070
:100018000e1000000e1000000e1000000e10000060
:100028000e1000000e1000000e100000520f00000d
:100038000e1000000e1000000e1000000e10000040
:10004800fa0f00000e1000000e100000de0c000079
:100058009e0d0000ae0f00000e1000000e100000f4
:100068000e1000000e1000000e1000000e10000010
:100078000e1000000e1000000e1000000e10000000
:100088000e1000000e1000000e1000000e100000f0
:100098000e1000000e1000001c0e0000dc0e000008
:1000a8000e1000000e1000000e1000000e100000d0
:1000b8000e1000000e1000000e1000000e100000c0
:1000c8000e1000000e1000000e1000000e100000b0
:1000d8000e1000000e1000000e1000000e100000a0
:1000e8000e1000000e1000000e1000000e10000090
:1000f8000e1000000e1000000e1000000e10000080
:100108000e1000000e1000000e1000000e1000006f
:100118000e1000000e1000000e1000000e1000005f
:100128000e1000000e1000000e1000000e1000004f
:100138000e1000000e1000000e1000000e1000003f
:100148000e1000000e1000000e1000000e1000002f
:100158000e1000000e1000000e1000000e1000001f
:100168000e1000000e1000000e1000000e1000000f
:100178000e1000000e1000000e1000000e100000ff
:100188000e1000000e1000000e1000000e100000ef
:100198000e1000000e1000000e1000000e100000df
:1001a8000e1000000e1000000e1000000e100000cf
:1001b8000e1000000e1000000e1000000e100000bf
:1001c8000e1000000e1000000e1000000e100000af
:1001d8000e1000000e1000000e1000000e1000009f
:1001e8000e1000000e1000000e1000000e1000008f
:0801f8000e1000000e100000c3
:020000040000fa
:100208000e1000000e1000000e1000000e1000006e
:100218000e1000000e1000000e1000000e1000005e
:100228000e1000000e1000000e100000520f00000b
:100238000e1000000e1000000e1000000e1000003e
:10024800fa0f00000e1000000e100000de0c000077
:100258009e0d0000ae0f00000e1000000e100000f2
:100268000e1000000e1000000e1000000e1000000e
:100278000e1000000e1000000e1000000e100000fe
:100288000e1000000e1000000e1000000e100000ee
:100298000e1000000e1000001c0e0000dc0e000006
:1002a8000e1000000e1000000e1000000e100000ce
:1002b8000e1000000e1000000e1000000e100000be
:1002c8000e1000000e1000000e1000000e100000ae
:1002d8000e1000000e1000000e1000000e1000009e
:1002e8000e1000000e1000000e1000000e1000008e
:1002f8000e1000000e1000000e1000000e1000007e
:100308000e1000000e1000000e1000000e1000006d
:100318000e1000000e1000000e1000000e1000005d
:100328000e1000000e1000000e1000000e1000004d
:100338000e1000000e1000000e1000000e1000003d
:100348000e1000000e1000000e1000000e1000002d
:100358000e1000000e1000000e1000000e1000001d
:100368000e1000000e1000000e1000000e1000000d
:100378000e1000000e1000000e1000000e100000fd
:100388000e1000000e1000000e1000000e100000ed
:100398000e1000000e1000000e1000000e100000dd
:1003a8000e1000000e1000000e1000000e100000cd
:1003b8000e1000000e1000000e1000000e100000bd
:1003c8000e1000000e1000000e1000000e100000ad
:1003d8000e1000000e1000000e1000000e1000009d
:1003e8000e1000000e1000000e1000000e1000008d
:0803f8000e1000000e100000c1
:020000040000fa
:1018000001000000efac21000e7f22000e018800d5
:1018100000000000000020000000e0000200320094
:10182000000120002002880014000700fd010700cd
:101830000000e00003003a00000b2400010020003b
:10184000020037000000200001002000810f70001e
:101850000100320014000700000020000000e0003a
:10186000020032000000020000000000063f0200fb
:10187000000000000040da000000fe004440a90023
:10188000a00220000000e000030032000000200061
:10189000a00188004440a800000006008a1f7800cc
:1018a0008b1f7800000006009101880080047800fa
:1018b0000000eb001a003700e284440032a0b400bc
:1018c0009905ba00e284440032a0b4009906ba0037
:1018d000e284440032a0b4000006eb00476fde0053
:1018e000fd07b200636ce10003003a00ebff070064
:1018f0000000eb000a003700606ce10004003a00d1
:10190000005deb008b05e900fdff3e0004003700a1
:101910006168e100010032000086eb000b00070067
:1019200019c7ba001905ba000e04e00003003a0016
:101930000a00e000e0ff3a0000000600fe07b200e7
:101940009e0188008a047800f5ff3700395dba00ef
:101950008b05e9000c003200295dba008b05e90017
:10196000080032000c00e00003003a00e28444006a
:1019700032a0b400f5ff370019ddba008b05e9008d
:10198000faff3a008904e800e184440032a0b40080
:101990000000060000000000000000000000000041
:1019a0000000000000000000000000000000000037
:1019b0000000000000000000000000003600f800f9
:1019c000809fbe00829fbe00849fbe00869fbe0097
:1019d0003400f80000002000a00188000400fa0094
:1019e0008560a9005082200011c0b3000148780032
:1019f000301180008040780040822000014878004b
:101a0000100280004500de00674060000080fb009f
:101a1000000f780011028000000e2000010070000d
:101a20001002880000000000408220001040780072
:101a30008040780060862000521807001e00780061
:101a400000407800674060000080fb006700600095
:101a50004500dd0012028000f1f12f0081006100dd
:101a600001007000100288000000000010028000d9
:101a70004500de00674060000080fb001007980012
:101a800011028000000e200001007000100288008a
:101a90000000000002998000408220009040780001
:101aa000002a2100000041000148780000998000d0
:101ab0000000e8000099880001998000f0072000ec
:101ac000808f5000020036000000eb000099880073
:101ad00021998000f0072000808f500003003e0015
:101ae000209980000000e800209988001e009000e6
:101af00000407800674060000080fb0067006000e5
:101b00004500dd0012028000f1f12f00810061002c
:101b10000100700010028800000000000080fa0040
:101b20003400f9004f03be004f02be004f01be005b
:101b30004f00be003600f900004006003600f800f5
:101b4000809fbe00829fbe00849fbe00869fbe0015
:101b50003400f80000002000a00188000400fa0012
:101b60008580a9003087200011c0b30001487800ab
:101b7000100280004500de00674060000080fb002e
:101b8000000f780011028000000e2000010070009c
:101b90001002880000000000630047008000780009
:101ba00060a7200025180700204798001e00780035
:101bb00000407800674060000080fb006700600024
:101bc0004500dd0012028000f1f12f00810061006c
:101bd0000100700010028800000000002e409000fc
:101be0000004e00008003200be4090002087200082
:101bf0000148780020872000104078000080fb001a
:101c000020118800040037009580a900408720003b
:101c100011c0b300014878000080fa003400f900d8
:101c20004f03be004f02be004f01be004f00be007a
:101c30003600f900004006003600f800809fbe0024
:101c4000829fbe00849fbe00869fbe003400f800c5
:101c500000002000a00188000400fa0087c0a9004d
:101c600030a8200011c0b30001487800b0118000f6
:101c70008040780020a820000148780010028000f1
:101c80004500de00674060000080fb00000f780028
:101c900011028000000e2000010070001002880078
:101ca0000000000020a8200010407800804078004c
:101cb00040e82000b31707001e00780000407800bd
:101cc000674060000080fb00670060004500dd00a9
:101cd00012028000f1f12f0081006100010070000c
:101ce0001002880000000000100280004500de00a5
:101cf000674060000080fb00100798001102800020
:101d0000000e20000100700010028800000000009a
:101d100032b9800020a82000904078006032210075
:101d2000000041000148780030b980000000e80060
:101d300030b9880031b98000f03f2000808f50001a
:101d4000020036000000eb0030b9880051b9800075
:101d5000f03f2000808f500003003e0050b980000b
:101d60000000e80050b988001e0090000040780094
:101d7000674060000080fb00670060004500dd00f8
:101d800012028000f1f12f0081006100010070005b
:101d900010028800000000000080fa003400f90002
:101da0004f03be004f02be004f01be004f00be00f9
:101db0003600f900004006003600f800809fbe00a3
:101dc000829fbe00849fbe00869fbe003400f80044
:101dd00000002000a00188000400fa0087e0a900ac
:101de00010e9200011c0b300014878001002800003
:101df0004500de00674060000080fb00000f7800b7
:101e000011028000000e2000010070001002880006
:101e10000000000063004700800078004029210096
:101e200086170700204798001e00780000407800c1
:101e3000674060000080fb00670060004500dd0037
:101e400012028000f1f12f0081006100010070009a
:101e500010028800000000002e4090000004e00006
:101e6000040032003e4090000080fb00a01188007a
:101e70000400370097e0a90020e9200011c0b3005a
:101e8000014878000080fa003400f9004f03be00da
:101e90004f02be004f01be004f00be003600f900e9
:101ea000004006003600f800809fbe00829fbe0002
:101eb000849fbe00869fbe003400f8000000200012
:101ec000a00188000000fa008460a9001000200032
:101ed000a0c3880090c380000000e80090c3880081
:101ee000b0c38000c1c3800061004000e0804800b2
:101ef000b0c38800c1c38800d0c380000000e800e0
:101f0000d0c3880020c480000000e0000b00320035
:101f100091c380001040800000017800110009008a
:101f20008280d8008000fd000000e00003003a003d
:101f300021c4800020872100010001000080fa00f8
:101f40003400f9004f03be004f02be004f01be0037
:101f50004f00be003600f90000400600809fbe0022
:101f60003400f80000002000a00188000000fa0002
:101f700085a0a900a08020009000780000188000b3
:101f8000008040008000d100a0802000010878007f
:101f9000a080200090009000101880000080400079
:101fa0008000d100a080200011009800a0802000b7
:101fb000a000900020188000008040008000d10028
:101fc000a080200021009800a0802000b000900098
:101fd00030188000008040008000d100a0802000e8
:101fe000310098000080fa003400f9004f00be0074
:101ff000004006003400f800881f78000800200028
:10200000a80188004f0478000000fa008500a900ac
:102010000080fa003400f900004006000040da00b9
:102020000000fe000000050003f0a200889fbe0033
:102030008a9fbe008c1f7800f5000700fc0033006b
:102040006450e1004f0032006420e1005200320091
:1020500003826c0007003b000905d0000306d00096
:10206000820f54000c065d000200390002003200ad
:1020700089017800030678008582550004003d0040
:102080000003fd008103fd008502ea008b8542000c
:10209000840f720002003b0060001000e080180016
:1020a0006011b8000005eb007a28e1000a00390051
:1020b00006007800c75ddd00f707b2008780750075
:1020c0002d003700828171000a01780061056000ef
:1020d0008180d1000080d3008502e900f9ff3b0038
:1020e000060440008784480002003b00600414009e
:1020f000e0841c000988a300070032008a81710077
:1021000082817100610164008904d1000884d300d8
:102110008b05e800170037000978a30013003a0088
:102120000b00e000130034008b05e90008044400b4
:1021300089844c000a4474000978a3000d003a0019
:102140000b00e000070034008b05e90008044400a0
:1021500089844c0001003a000b0020000978a3009c
:10216000f7ff32000001eb000200370082817100ae
:102170000a0178006b0007000cf0a70001f0a00036
:10218000b40037006420e10002003a00838f6c0045
:10219000b40033000801be000200be00ad003700ed
:1021a000889fbe008a9fbe008c1f780098000700a1
:1021b0009f00330003866c006450e1002e00320063
:1021c0006420e100330032006150e1002f00320052
:1021d0006120e1003100320085855500eb07b00039
:1021e000090020000804200005003700080444000e
:1021f00089844c000a0031000603430087834b00aa
:102200000001530081815b00f8ff33000203be0030
:102210000800a0000804440089844c00f6ff39003f
:10222000c639dd0083017300010032001300200075
:102230008904d1000884d3000998a3000500320066
:102240000800a7000300a0008904d1000884d3007f
:102250008b05e8008904d1000884d3000001eb005d
:102260000281d2002f00070001f0a1000cf0a700ae
:1022700001f0a000770037006420e100790032000f
:102280000801be000200be00f7ff37006120e10038
:10229000740032006000b800f3ff37000000200037
:1022a00001f82700f0ff370014002000a4003700d9
:1022b0000001be00410007000470a70003f0a10068
:1022c00003f8a30013003a006509b10010003200c2
:1022d000090035006928e1000200350001002800ee
:1022e0000000050000004000818048008502e900f0
:1022f000fcff3a0000000600f88f420005003500a0
:102300008100d1000080d3008502e800fcff3a0084
:10231000000006008000eb00000005006011b8001e
:10232000a200370081002000618055000b003d00b5
:102330000b00200061fe2f000100e1001d003400b1
:1023400082817100610164008904d1000884d30096
:102350000000e800faff3a0071002000610064000c
:1023600003007000020060000900320061044400b4
:10237000e0844c000988a500050032008b05e800c8
:102380006808e10002003a008904d1000884d30003
:10239000f20f20000258e10005003d00c75ddd009e
:1023a000f907b20089807500080078000000060077
:1023b0000bf827008b00780000000500c70ade003c
:1023c000f107b200f50fb20008003200e1cf420081
:1023d000020032000170a00024000500810f70008f
:1023e000010032000408050044000500810f700060
:1023f00002003a00140005008502e90000004000d8
:1024000081c04800fcff3b000170a00024000500d3
:102410000004be00e9ff07000003be000405be0083
:102420000200be00e5ff0700844f750000000600b3
:102430000200be006450e100050036006420e100a7
:10244000020036000968a30001003a000800be003f
:102450000160a0004f0678004f05be004f04be008b
:1024600000000600f0ff2f00f1ff2700f9ff370002
:10247000889fbe008a9fbe008c1f7800e4ff070083
:10248000ebff330003866c006450e100240032004f
:102490006420e100270032006150e1002200320098
:1024a0006120e100210032008b854200eb07b10082
:1024b0000134b800003ab8000804420089844a0098
:1024c000013ab8000030b8008880400009014a0095
:1024d00004003300000040008180480002014900f0
:1024e0008b05e900c909dd0083017000010032009d
:1024f00013002000c814de004814dd004709de0088
:102500001200b200c808de000884700085ff0700d2
:1025100001f0a1000cf0a70001f0a000cdff3700f2
:102520006120e100cfff32000801be000200be00c2
:10253000f7ff37006150e100fcff3a00c9ff3700a8
:10254000889fbe008a9fbe00841f7800b0ff0700ee
:102550004f00780011003300f0ff2f00838f6c00d4
:1025600006003b00040565000a00a70008003700cc
:1025700009f0a6001000200008003700820f540068
:10258000838f5c00030039001000200001003e0032
:102590000000200009f0a7000000ea004f05be007f
:1025a0004f04be000000e00000000600889fbe004f
:1025b0008a9fbe00008270000402710004827100d4
:1025c000260032000004be000200be006011b80008
:1025d0006b092000950220000182cf000a0039001b
:1025e0000541b1000082cf00070039000541b1006c
:1025f0000982cf00040039000541b1000882cf00f4
:10260000010039000541b1000542520012003200bc
:102610000a003b0082817100610164008100d100e9
:102620000080d3008984d3000884d3008b05e800a0
:102630000442e800f7ff3a000700370008044400ae
:1026400089844c0000004800818048008b05e90027
:102650000442e900f9ff3a0032ff07004f05be00cf
:102660004f04be0000000600881f780002047800b6
:1026700008017800c4000700080040004f047800fb
:10268000000006000000fa00881f780000047800af
:10269000ea8157003fb99700880078004033210055
:1026a000070007000000e000020035008040eb005a
:1026b000017478004f0478000080fa0000000600e2
:1026c0006200fa00889fbe008a1f7800000578002b
:1026d00081047800020478008300780080f92f00dc
:1026e0000f004000770107009a979f00a9979f006d
:1026f0000000eb00b09f9f001885fb008a04fb00e0
:102700000a05ea004f55de0050022000808f540079
:102710000d003200e10f55000b003a000a0178006d
:10272000880078002f9097009f9197000300010088
:10273000a0979f000000e0008e0032003f989700b5
:102740000000e800b09f9f000a04440050022000ef
:10275000808f5400040032000900e000e6ff3a00d8
:102760003f989700840037000000eb00909f9f0087
:10277000809f9f00f0979f00e0979f00d0979f0059
:10278000c0979f000700370081ac21000100500076
:1027900000004000c1ab210061007800df98970085
:1027a00001007000d09f9f00880478000904780021
:1027b000384578008a00fb0080ac210079000700d2
:1027c0000000e000f0ff3a00a1c2b300814f5500c5
:1027d0000e003a00cf8897000180e900c08f9f006b
:1027e00010007800c09f9f000000e00005003d0041
:1027f0000000ea00c09f9f005f9897000020a000a3
:10280000d09f9f000904e8000f003700c09f9f0081
:102810000000eb0005003700f2ff2700820f500098
:10282000020032006a01b900028040000904780009
:1028300088047800b900fb000103b100e98f500063
:10284000f5ff3600c09f9f00e0c2b300984f100014
:10285000020032000080eb0019003700a0c2b30074
:10286000d84f100007003a00cf8897000180e90098
:10287000c08f9f0010007800a09f9f000804e80010
:10288000100037000000eb00a09f9f008800780038
:1028900005003700f3ff2700830f500002003200cd
:1028a0006a02b90004004100010478008800780041
:1028b0003101fb000203b100e90f5100f5ff3600c2
:1028c000a09f9f00984478008900fb0040ab210046
:1028d000340007000000e000020032000804e800b5
:1028e000010037008044eb00c97f9f0080c6b30021
:1028f00080cf540004003a0098cf14000a003a0038
:102900006640500006003700c0c6b30080cf5400b8
:1029100005003a0098cf140003003a0065404000db
:10292000c07f9f000804e8001801fb00e3fb2f00b4
:102930008f81410081f92f008f804000a0f92f0086
:102940000f004000e10007000000e00009003a002d
:10295000e1fb2f008f804000a0f92f000f00400006
:102960001c0007000000e000020035000804e80039
:1029700061ff37000080eb004f0578004f04be0078
:102980000080fa0000000600800178000200370095
:10299000b15978000201e9000200e000fcff3a00b2
:1029a00000000600020037000304e00006003200c9
:1029b0000001780002007800b041780081cf51001a
:1029c000f9ff3a00010037000001eb000200780037
:1029d000000006000400fa00889fbe008a9fbe0027
:1029e0008c1f78000004780001067800f80d900034
:1029f000780090008085550008089000808555007b
:102a000018089000808555002808900080855500a2
:102a10003808900080855500480890008085550052
:102a20000002220090bf9f0000032300a0bf9f0070
:102a3000081090000028a30015003a000b00e000e9
:102a4000130034000b0578008a047800e20f55006b
:102a50000100360029002000c8019000090178001b
:102a6000ee805700580090000300010050049800c9
:102a70000000e0008c00320068089000090040006f
:102a8000600c9800090555004240a900eeff3c008b
:102a9000780190000200e0000c003400c8019000b2
:102aa0008c0078005800900003000100500498004a
:102ab0008080eb000000e0007c003200e80890001d
:102ac0007800900000804000600c9800880c900016
:102ad0000900e0001100340009057800e28f54007d
:102ae000010036002a002000c80190000a01780089
:102af000ec8057005800900003000100500498003b
:102b00000000e00068003200680890000a00400001
:102b1000600c98008a845400edff3700180990007b
:102b20000200e0000c003400c8019000e8009000b2
:102b30005800900003000100500498008080eb00d2
:102b40000000e00059003200e808900018089000ea
:102b500000804000600c9800a80c90000900e00084
:102b60001100340009057800e28f5400010036009e
:102b70002a002000c80190000a017800ec8057006c
:102b80005800900003000100500498000000e0008d
:102b900045003200680890000a004000600c980070
:102ba0008a845400edff3700380990000200e000ed
:102bb0000e003400e800900018089000808040006b
:102bc000c8019000580090000300010050049800d4
:102bd0008080eb000000e00034003200e808900044
:102be0003808900000804000600c9800c80c9000ed
:102bf0000900e0001100340009057800e28f54005c
:102c0000010036002a002000c80190000a01780067
:102c1000ec80570058009000030001005004980019
:102c20000000e00020003200680890000a00400028
:102c3000600c98008a845400edff37000810900063
:102c40008000eb000028a300180032000b00e00019
:102c5000160034008b04780009057800e28f5400d8
:102c6000010036002a002000c80190000a01780007
:102c7000ee805700580090000300010050049800b7
:102c80000000e00008003200680890000a004000e0
:102c9000600c98008a8454004240a900eeff3c007a
:102ca0008000eb00010037008080eb00010078001d
:102cb0004f0678004f05be004f04be000080fa00aa
:102cc000000006000108780000000600889fbe0092
:102cd0008a9fbe00e4c6b300844f5100be0032009c
:102ce00010003c006b425200844f5100180032002b
:102cf00005003c0054c2b300844f5100f60032007e
:102d000084c5b3000f00370044c6b300844f5100a0
:102d10001400320065424200844f5100f1003a0035
:102d20001000370004c7b300844f5100dd003200ab
:102d30005600350065424200844f51005300320076
:102d400063424200844f5100e6003a004f003700d2
:102d50001181e90082087800f000900012417800ab
:102d6000de00370020629000c5c6b300854f5200d8
:102d700007003a00910278006482520084087800cb
:102d80001402be004fabde0086037800140037004b
:102d900015c7b300854f520003003a0011047800b4
:102da0006802540005003700a5c6b300854f5200e5
:102db00006003a0091047800688254008408780084
:102dc0005403be004402be00050037001182e90032
:102dd0008408780014027800cfa2de00612bb900cd
:102de0000498be000690be00a060900088c6b300a4
:102df00088cf50000d00320028c6b30088cf5000a5
:102e000004003a000402fb00cfa2de00612bb900ef
:102e10000800370048c7b30088cf500003003200d5
:102e20006644440088cf500004003a00cfa2de0080
:102e3000612bb9000498be000690be003002be00af
:102e40002003be00f0009000e00f5200e08f5a0017
:102e5000e00f5b00e08f5b0002003d00d4c2b300d6
:102e600008003700001290000418a300020032008e
:102e7000b4c2b300030037000408a30051003200bd
:102e800004c2b30084f178004c0037002062900047
:102e9000c5c6b300854f520008003a0011057800fe
:102ea00064025500840878001404be006055b80020
:102eb0000802be000a03be001400370015c7b300a5
:102ec000854f520003003a00910478006882540054
:102ed00005003700a5c6b300854f520006003a0032
:102ee0001105780068025500840878005403be007c
:102ef0004402be00050037001182e9008408780012
:102f0000140278008002eb006033b8000498be0021
:102f10000690be00a060900088c6b30088cf500025
:102f20000d00320028c6b30088cf500004003a00dc
:102f30000482fb008002eb006033b8000800370019
:102f400048c7b30088cf50000300320066444400f5
:102f500088cf500004003a008002eb006033b800d4
:102f60000498be000690be00801090000138a300b7
:102f7000140032003002be002003be00e00f5200f9
:102f8000e08f5a00e00f5b00e08f5b000d00320025
:102f900081c7b300814f51000300320081c5b300e7
:102fa000814f510007003a00f000900004c3b300c5
:102fb00084f178008100e80082f178008100e80067
:102fc00071009800f000900081814100630098003a
:102fd000824078003e003700a0619000c4c6b30074
:102fe0001181e90084cf5100220032000a003c0028
:102ff0006442520084cf51002500320004c2e80030
:1030000084cf5100130032006842520084cf510037
:103010001e003a000a00370044c7b30084cf5100b5
:103020001b0032006642420084cf5100180032007b
:103030006942520084cf510014003a000500370065
:10304000820878009200780040589000804878000c
:103050002c0037008208780092007800600a900007
:10306000cfa2de00612bb9008498be008690be001e
:1030700024003700820878009200780060099000f0
:10308000cf91de008288be001e0037001181e9006a
:10309000820878009200780060089000800878002c
:1030a000180037001181e9008208780012027800c8
:1030b000cfa2de00612bb9000498be000690be00ce
:1030c000f0009000818141006300980081c7b30047
:1030d000100007000b003700f000900082f178002c
:1030e00006003700f0009000818141000204e000fa
:1030f00001003a0052c2b300824978008100e80022
:10310000710098000000eb004f05be004f04be00a8
:1031100000000600fc874700889fbe008a9fbe0013
:103120008c9fbe008e1f78000006780080c5b3001b
:1031300080cf50000a0032007740400080cf50001e
:103140000a0032006940400080cf50000b0032007e
:1031500030aa210080bf9f00ae0020000a00370087
:1031600022a9210082bf9f000600370033aa210058
:1031700083bf9f008e0020000300370034aa210087
:1031800084bf9f000e0120003c02be002c03be0045
:103190000605be000404be0040c6b30080cf500048
:1031a000030032006540400080cf50000b003a0021
:1031b000e00f5200e08f5a00e00f5b00e08f5b00f1
:1031c00006003d006000b8006011b8000404500023
:1031d000858458000605590087855900e80f570077
:1031e0000400320040002000f00f570038003a0081
:1031f0000100370030002000e00f5400e08f5c0039
:10320000e00f5d00e08f5d0004003a00dc089000f4
:103210008d0120000100e000060032008e00e90070
:10322000888060008fba9700e5c07800f1ef9f00ba
:103230007d012000800078008100e9000500330056
:103240008b05d1000a85d3008984d3000884d3007c
:10325000f9ff3700089ebe000a96be001200370034
:103260008d06e9008e00e900848060000fb99700a8
:10327000e2c1780082fd2f000f01410003f17e00c2
:10328000800078008100e900050033008783d100c9
:103290000683d3008582d3000482d300f9ff370070
:1032a000049ebe000696be003c02be002c03be007b
:1032b000e00f5200e08f5a00e00f5b00e08f5b00f0
:1032c0008b0034000d00e000e5ff3c008800370073
:1032d0002c60900081c6b300814f50000b0032007b
:1032e00006003c000004e00008003200e6c0500088
:1032f000814f50004e003a0004003700c1c6b300b1
:10330000814f50004a003a00210037000800e000d9
:1033100004003a005c0890008d0120000000e000ed
:1033200006003200110009000e84d8000fb9970082
:10333000e2c07800f1ef9f007d012000110009003c
:103340000e84d8000a003700110009000e04d800ce
:103350008d06e9000e81b900020454008fb8970071
:1033600061417c0081fd2f008f80400082f07e0053
:10337000000478000800e000020032000d00e000c8
:10338000f1ff3c00cfc4de00614db90025003700dd
:10339000e00f5400e08f5c0004003a005c089000ed
:1033a0008d0120000000e000070032006171b900cb
:1033b0000800be00a50007008fb99700e341780020
:1033c000f3ef9f007d0120006171b9000800be008d
:1033d0008e0007000b0037006171b9000800be00c5
:1033e0007b0007008d06e90000f1b90002045400db
:1033f0000fba9700e4427c0084fd2f000f024200c8
:1034000005f27e000004be00e00f5000e08f58007f
:10341000020032000d00e000efff3c004fcdde0067
:103420008a057800089ebe000a96be00300037006c
:10343000e00f5400e08f5c00e00f5d00e08f5d0066
:1034400004003a005c0890008d0120000000e000bc
:10345000090032006172b900612bb9000800be009a
:103460000a01be001c0107000fba970064427800f1
:10347000f4ef9f007d0120006172b900612bb9005b
:103480000800be000a01be000c0107000d00370055
:103490006172b900612bb9000800be000a01be00cc
:1034a000110107008d06e90000f2b9000404540080
:1034b0008fba970065427c0085fd2f008f82420005
:1034c00084f27e00009ebe000296be003c04be0058
:1034d0002c05be00e00f5400e08f5c00e00f5d00a3
:1034e000e08f5d00020034000d00e000e8ff3c00ca
:1034f000e80f570010003a000c1090000038a300ad
:103500000d003200f78f560006003e0085fd2f00ab
:103510008f824200e5c07e0000c3b30080cf500020
:10352000050032008d06e90002c3b30081fd2f00c3
:103530008f80400082f07e0078811600120e980085
:103540006c00900083fd2f008f8141008d80410031
:103550000dfd07001c089000dc089000810f500052
:1035600006003d0000805000000e98000c109000f6
:103570000040a100001698000f0037000100e00095
:103580000d003d008c109000f4806000f08f500022
:1035900009003a007c099000fc0090008100510075
:1035a0000c09900082805000008050004240a90029
:1035b00001003400000e98004f0778004f06be004f
:1035c0004f05be004f04be00cf01b1000000060051
:1035d000839f68000100e00002003d0060001000d1
:1035e000e08018000300e00002003d0060011100cf
:1035f000e0811900050007004f00e00002003b00d9
:1036000060001000e0801800000006006022b80092
:10361000060220000000d0008180d2000482d20087
:103620008582d2000000a0000202520083825a006c
:10363000030031000202420083824a000000a10020
:103640000603e900f3ff3a0000000600efff070061
:103650000400be0000000600889fbe008a9fbe00d6
:1036600030044200b0844a0030054b0090854b0086
:103670006000b1000898be000a90be000440e1005e
:1036800005c8e10006d0e10007d8e10002003100e2
:10369000680040001008e8004f05be004f04be005f
:1036a00000000600889fbe008a9fbe003004be0056
:1036b0002005be000418540005985c0006185d0043
:1036c00007985d00110020000440e10005c8e100fa
:1036d00006d0e10007d8e100010039008000eb00ce
:1036e000108810004f05be004f04be000000060009
:1036f0001200fa00889fbe008a9fbe008c9fbe0009
:10370000e0b79f00f1b79f0082bf9f0093bf9f006b
:103710000605be000404be000000eb00d0b79f0009
:10372000c0b79f00b0b79f00a0b79f0090b79f00a1
:103730000006eb005fb19700cfb097008201410017
:103740003fb097000200e00004003d003700070092
:103750007e805700c0ff07000300370033000700da
:103760007e805700cfff0700dfb697000d00e00016
:103770000c0035006fb29700ffb297000fbb9700a7
:103780009fbb970010002000010020006011b800ce
:10379000000272008182720002037300838373004f
:1037a0001b0007000c06e80001042000810f5600f2
:1037b000e0ff3a000d00e00004003d000802be00fa
:1037c0000a03be007e805700a3ff07005fa8970092
:1037d0000000e00005003a001fb29700afb297006a
:1037e0003fb39700cfb39700090007006fb0970071
:1037f000ffb097000fb997009fb997004f06be0022
:103800004f05be004f04be000080fa000000060015
:103810000100070000000600a4b79f00b5b79f0095
:10382000c6b79f00d7b79f00000006004f09de0013
:1038300082817100b3b79f004f01de00818040009c
:1038400082807000a1b79f008fb097004f09de0003
:10385000000040000200700090b79f007fa8970012
:103860004f01de00818040008280700081b79f00a0
:103870000d0007004f3ade00000040000400700019
:10388000f0af9f00080007000402420085824a0052
:1038900006034b0087834b00dfff07000802be00d2
:1038a0000a03be00000006002fb29700bfb29700c7
:1038b0004fb39700dfb3970000000600881f780021
:1038c00018002000881f780089ff07008f87e90013
:1038d0004f04780000000600801feb0084ff070003
:1038e0008f87e90000000600889fbe008a9fbe0007
:1038f000e00f5000e08f5800e00f5900e08f5900b2
:103900000c003d006044b8006055b8000000540051
:1039100081805c0002015d0083815d001800200051
:103920001500070008003d00180007000004eb0028
:10393000050037000004eb000f00070002003d0007
:103940001200070018002000dcff07000800e0005c
:10395000060032006022b8006033b8000000520058
:1039600081805a0002015b0083815b004f05be002d
:103970004f04be0000000600e00f5200e08f5a0026
:10398000e00f5b00e08f5b00000006006044b800c1
:103990006055b8000402540085825c0006035d0097
:1039a00087835d0000000600889fbe008a9fbe00de
:1039b0008c1f7800e00f5000e08f5800e00f590096
:1039c000e08f59000d003d006044b8006055b8001c
:1039d0000000540081805c0002015d0083815d0075
:1039e0001c0020000820e10009a8e1000ab0e10065
:1039f0000bb8e1000d003d00080037000006eb00a9
:103a0000e00f5200e08f5a00e00f5b00e08f5b0098
:103a100006003d006044b8006055b8000402540040
:103a200085825c0006035d0087835d00aaff0700b6
:103a30000c00e000060032006022b8006033b800dd
:103a40000000520081805a0002015b0083815b000c
:103a50004f0678004f05be004f04be000000060070
:020000040000fa
:103a60004c69000067680000742000003d200000e1
:103a7000256400000d0a0000004c0000696700008a
:103a800068740000004c0000454400003000000055
:103a90004c45000044330000004200006565000012
:103aa000700000002b490000504400002c00000072
:043ab0000000000012
:020000040000fa
:103ab4000200fa00000f7800209980000000e00066
:103ac4001400320011998000002a21000080400077
:103ad400904078001e00780001487800109980001a
:103ae4000000e8001099880011998000f007200078
:103af400808f5000020036000000eb00109988000f
:103b0400209980000000e90020998800100020001e
:103b1400010037000000eb000080fa0000000600fe
:103b24000200fa00000f780050b980000000e000a5
:103b34001400320041b9800060322100008040004e
:103b4400904078001e0078000148780040b9800059
:103b54000000e80040b9880041b98000f03f20002f
:103b6400808f5000020036000000eb0040b988004e
:103b740050b980000000e90050b98800100020000e
:103b8400010037000000eb000080fa00000006008e
:103b94000200fa000000eb00000f78000500370077
:103ba400002a21001e0040008040eb0001487800fc
:103bb4001e0fe800f00720009e007800808f500060
:103bc400f7ff34000000eb00109988000000eb00c0
:103bd400009988000000eb00209988000080fa001a
:103be400000006000200fa000000eb00000f78005d
:103bf40005003700603221001e0040008040eb00c9
:103c0400014878001e0fe800f03f20009e00780075
:103c1400808f5000f7ff34000000eb0040b98800ab
:103c24000000eb0030b988000000eb0050b98800b8
:103c34000080fa00000006000800fa00200798003f
:103c44003107980014c0b3002e019000be0190000b
:103c54000058220001002000800f5100818f59007c
:103c640001003e000042eb00044f7800871107007a
:103c74002135800000fe2f0000806000c000b300ea
:103c840020358800c982a80061368000f00f2e001c
:103c940080806000003020000100700060368800e1
:103ca400c9a2a9008211070021e2a80021a2a9004b
:103cb4002182a9002162a90001118000f0cf2f0008
:103cc400008060000011880020e2a90020c2a90041
:103cd40020a2a9002082a9009e40780061c0600053
:103ce4000080fb00610060004300dd0001118000e2
:103cf4000130a10001007000001188000111800052
:103d040090ff2f0000806000001188002002a900ad
:103d14001e4078000004e000110032002e019000e3
:103d2400be0190004218dd00ce10de00810070005c
:103d34004210dd0078f907000001be0000402200b7
:103d440041b7240015f907000200200003f82300fe
:103d5400b4f8070055f90700000078001000370098
:103d64002e019000be0190004418dd00cc10de004e
:103d7400810070004410dd0067f907000001be00f7
:103d84000040220041b7240004f90700020020008b
:103d940003f82300a3f8070044f9070000007800a3
:103da400401188002342a8002362a90023e2a9004d
:103db40023a2a90022e2a90022c2a9009560a800ba
:103dc4009580a9002342a800100280004500de006f
:103dd400674060000080fb0010079800110280001b
:103de400000e200001007000100288000000000096
:103df400020420006182200060862000480f070032
:103e0400022020005187200060a72000440f0700f3
:103e14001e00900000407800674060000080fb00b6
:103e2400670060004500dd0012028000f1f12f0000
:103e34008100610001007000100288000000000091
:103e44000080fa00000006000800fa00200798002d
:103e54003107980014c0b3002e019000be019000f9
:103e64000058220001002000800f5100818f59006a
:103e740001003e000042eb00044f780003110700ec
:103e84003135800000fe2f0000806000e000b300a8
:103e940030358800c9c2a80071368000f00f2e00aa
:103ea400808060000050200001007000703688009f
:103eb400c9e2a900fe10070031e2a80031a2a9005e
:103ec4003182a9003162a90081118000f0cf2f0056
:103ed400008060008011880030e2a90030c2a9008f
:103ee40030a2a9003082a9009e40780061c0600021
:103ef4000080fb00610060004300dd008111800050
:103f04000130a1000100700080118800811180003f
:103f140090ff2f0000806000801188003002a9000b
:103f24001e4078000004e000110032002e019000d1
:103f3400be0190004218dd00ce10de00810070004a
:103f44004210dd00f4f807000001be00004022002a
:103f540041b7240091f807000200200003f8230071
:103f640030f80700d1f8070000007800100037008f
:103f74002e019000be0190004418dd00cc10de003c
:103f8400810070004410dd00e3f807000001be006a
:103f94000040220041b7240080f8070002002000fe
:103fa40003f823001ff80700c0f80700000078009a
:103fb400c01188003342a8003362a90033e2a9008b
:103fc40033a2a90032e2a90032c2a90097c0a80016
:103fd40097e0a9003342a800100280004500de00eb
:103fe400674060000080fb00100798001102800009
:103ff400000e200001007000100288000000000084
:104004000240200041a8200040e82000c40e070020
:104014000240200031e9200040292100c00e0700a1
:104024001e00900000407800674060000080fb00a4
:10403400670060004500dd0012028000f1f12f00ee
:10404400810061000100700010028800000000007f
:104054000080fa00000006000800fa00300798000b
:104064000000eb00000f7800be00900011079800dc
:10407400040037001e0fe8001e0090000000e80056
:10408400100798001e009000104078000004e00023
:10409400f8ff3a00e0538000012020000080500027
:1040a4009e0f500002003e000000eb002d00370080
:1040b400be009000110798001e0037001002800017
:1040c4004500de00674060000080fb002007980088
:1040d40011028000000e2000010070001002880010
:1040e400000000001e009000104078009e00900028
:1040f4008100e800110798008040780060a7200044
:104104009f0e07002e00900000407800674060007a
:104114000080fb00670060004500dd0012028000a3
:10412400f1f12f008100610001007000100288008d
:10413400000000001e009000104078000004e00021
:10414400deff3a00a104800000002100008060002e
:104154000000e00002003a008580a8009580a800d5
:104164001e0078000080fa00000006000800fa0033
:10417400300798000000eb00000f7800be009000ac
:1041840011079800040037001e0fe8001e0090007d
:104194000000e800100798001e009000104078000e
:1041a4000004e000f8ff3a00e05380000120200002
:1041b400008050009e0f500021003e000000eb00e4
:1041c4002c003700100280004500de0067406000cc
:1041d4000080fb002007980011028000000e2000e0
:1041e4000100700010028800000000003e009000f2
:1041f40010407800be0090008100e800310798006c
:1042040080407800402921005d0e07002e009000b8
:1042140000407800674060000080fb006700600099
:104224004500dd0012028000f1f12f0081006100e1
:104234000100700010028800000000000100370037
:10424400000000003e009000104078000004e000f0
:10425400dcff3a00b1048000000028000080600008
:104264000000e00002003a0087e0a80097e0a80000
:104274001e0078000080fa00000006000800fa0022
:104284002007980031079800e053800001202000a7
:10429400808050003e009000808f500002003e005d
:1042a4000000eb002d0037000000eb00000f780049
:1042b4001e003700100280004500de0067406000e9
:1042c4000080fb001007980011028000000e2000ff
:1042d4000100700010028800000000001e00780039
:1042e400ae009000008040001040780080407800cc
:1042f40060a72000220e07001e00900000407800f6
:10430400674060000080fb00670060004500dd003e
:1043140012028000f1f12f008100610001007000a1
:1043240010028800000000001e0fe8009e007800c4
:104334003e009000808f5000deff3900a104800011
:1043440000002100008060000000e00002003a004c
:104354008580a8009580a8003e0090000080fa00a7
:10436400000006000800fa00300798003e009000a4
:1043740090009000e05380000220200000005100d3
:10438400808f5000020039000000eb00330037003a
:104394003e00900090007800110798000000eb00a8
:1043a400000f78001f003700100280004500de0077
:1043b400674060000080fb00200798001102800025
:1043c400000e2000010070001002880000000000b0
:1043d4001e009000104078009e0090008100e800cc
:1043e400110798008040780060a72000e40d0700c2
:1043f4002e00900000407800674060000080fb00c1
:10440400670060004500dd0012028000f1f12f001a
:1044140081006100010070001002880000000000ab
:104424001e0fe8009e0078003e00900010009000ef
:10443400808f5000dcff3900a104800000002100bf
:10444400008060000000e00002003a008580a800bf
:104454009580a8003e009000100090000080fa00b3
:10446400000006000400fa0020479800e153800091
:10447400f01f2000808f5000020036000000eb0087
:1044840021003700100280004500de006740600014
:104494000080fb00000f780011028000000e200055
:1044a400010070001002880000000000ae4090007f
:1044b40060a72000b20d07001e00780000407800bd
:1044c400674060000080fb00670060004500dd007d
:1044d40012028000f1f12f008100610001007000e0
:1044e4001002880000000000a104800000002100e8
:1044f400008060000000e00002003a008580a8000f
:104504009580a800100020000080fa00000006003a
:104514000800fa002007980031079800d094800022
:1045240001402000808050003e009000808f5000a9
:1045340002003e000000eb002d0037000000eb00fd
:10454400000f78001e003700100280004500de00d6
:10455400674060000080fb00100798001102800093
:10456400000e20000100700010028800000000000e
:104574001e007800ae0090000080400010407800db
:1045840080407800402921007d0d07001e00900026
:1045940000407800674060000080fb006700600016
:1045a4004500dd0012028000f1f12f00810061005e
:1045b4000100700010028800000000001e0fe800d7
:1045c4009e0078003e009000808f5000deff39008e
:1045d400b104800000002800008060000000e000ba
:1045e40002003a0087e0a80097e0a8003e0090008f
:1045f4000080fa00000006000800fa003007980066
:104604003e00900090009000d09480000240200072
:1046140000005100808f5000020039000000eb00c0
:10462400330037003e009000900078001107980096
:104634000000eb00000f78001f003700100280001c
:104644004500de00674060000080fb002007980002
:1046540011028000000e200001007000100288008a
:10466400000000001e009000104078009e009000a2
:104674008100e8001107980080407800402921005b
:104684003f0d07002e009000004078006740600056
:104694000080fb00670060004500dd00120280001e
:1046a400f1f12f0081006100010070001002880008
:1046b400000000001e0fe8009e0078003e009000fd
:1046c40010009000808f5000dcff3900b10480009e
:1046d40000002800008060000000e00002003a00b2
:1046e40087e0a80097e0a8003e009000100090002a
:1046f4000080fa00000006000400fa002047980039
:10470400d1948000f03f2000808f500002003600da
:104714000000eb0021003700100280004500de009d
:10472400674060000080fb00000f780011028000e9
:10473400000e20000100700010028800000000003c
:10474400ae409000402921000d0d07001e007800a6
:1047540000407800674060000080fb006700600054
:104764004500dd0012028000f1f12f00810061009c
:10477400010070001002880000000000b1048000f5
:1047840000002800008060000000e00002003a0001
:1047940087e0a80097e0a800100020000080fa003d
:1047a400000006000000fa0000000000e053800052
:1047b4000000e000fdff3a001111800000202000fd
:1047c400008060000000e000f8ff3a000080fa007a
:1047d400000006000000fa0000000000d0948000f1
:1047e4000000e000fdff3a0091118000002020004d
:1047f400008060000000e000f8ff3a000080fa004a
:10480400000006000200fa00000f7800e5ff070030
:104814000b00370000000000111180000020200070
:10482400008060000000e000fbff3a001e007800fa
:10483400104078000000fb00201188001e0fe800e3
:104844001e007800104078000004e000f1ff3a00f8
:104854000080fa00000006000200fa00000f780051
:10486400dcff07000b0037000000000091118000fe
:1048740000202000008060000000e000fbff3a0000
:104884001e007800104078000000fb00a011880092
:104894001e0fe8001e007800104078000004e000bd
:1048a400f1ff3a000080fa00000006000200fa005e
:1048b400004f7800bbff07001e80fb00201188001a
:1048c4000080fa00000006000200fa00004f7800a1
:1048d400c0ff07001e80fb00a01188000080fa00c2
:1048e400000006000600fa0010079800210798004f
:1048f400acff07000000eb00000f78000d0037004c
:1049040000000000111180000020200000806000e1
:104914000000e000fbff3a001e0078009e009000bb
:1049240000804000104078000080fb0020118800c7
:104934001e0fe8009e0078002e009000808f50002b
:10494400efff39000080fa00000006000600fa00bc
:1049540010079800210798009eff07000000eb0055
:10496400000f78000d003700000000009111800056
:1049740000202000008060000000e000fbff3a00ff
:104984001e0078009e0090000080400010407800d7
:104994000080fb00a01188001e0fe8009e00780034
:1049a4002e009000808f5000efff39000080fa0045
:1049b400000006000000fa00101180006200600090
:1049c4000000e000020032002222a90001003700aa
:1049d4000000000010118000610060000000e00091
:1049e400fcff320030118000004078000080fa00a3
:1049f400000006000000fa009011800062006000d0
:104a04000000e000020032003222a9000100370059
:104a14000000000090118000610060000000e000d0
:104a2400fcff3200b0118000004078000080fa00e2
:104a3400000006000400fa00000f78001107980037
:104a44009e007800114088009e00900021c48800d8
:104a54000080fa00000006000200fa00000f78004f
:104a64009e007800e1c388000080fa000000060080
:104a74000200fa00000f78009e00780031c488001c
:104a84000080fa00000006000200fa00000f78001f
:104a94009e007800f1c388000080fa000000060040
:104aa4000200fa00000f78009e00780001c488001c
:104ab4000080fa00000006000200fa00000f7800ef
:104ac4009e00780041c488000080fa0000000600bf
:104ad4000200fa00000f78009e00780011c48800dc
:104ae4000080fa00000006000200fa00000f7800bf
:104af4009e00780051c488000080fa00000006007f
:104b04000000fa0070c480000000e80070c488004f
:104b140071c48000703e2000808f50001c0036005d
:104b24000000eb0070c4880080c480000000e8002e
:104b340080c4880081c48000b0032000808f5000ae
:104b4400130036000000eb0080c4880090c480008d
:104b54000000e80090c4880091c48000b0032000e5
:104b6400808f50000a0036000000eb0090c48800db
:104b7400a0c480000000e800a0c48800a0c4800095
:104b8400f70f5000020036000000eb00a0c48800bc
:104b94000080fa00000006000000fa00000178001e
:104ba400c088210082007800b0187800a010780036
:104bb400e480400064004000b0187800a010780041
:104bc400e480400064004000900878008180e800a0
:104bd4000080e800020078000080fa00000006006f
:104be4000400fa00004f780011479800224798000b
:104bf4001e80fb00a0c488001e4090000080fb00c3
:104c040090c488002e4090000080fb0080c488007f
:104c14000000eb0070c488000000eb0060c4880052
:104c24000080fa00000006000000fa00889fbe0021
:104c34008a9fbe00b0c38000c1c38000b6f50700e0
:104c44000004be00000880008000eb00b2f50700fd
:104c54000005be00100880008000eb00aef50700e0
:104c64000001be000a00be004cf507000001be00b2
:104c74000800be00ecf407004f05be004f04be0060
:104c84000080fa00000006000000fa00b0c38000b3
:104c9400c1c38000823e20000289b900020178006d
:104ca4006002b9008401780003014100833e2000c2
:104cb4000300b8000101410082007800020880006e
:104cc4000201d1008001eb00000041008180490015
:104cd4000080fa00000006000000fa00b0c3800063
:104ce400c1c380000080fa00000006000200fa0040
:104cf400a0c38000000f78000000eb00a0c3880070
:104d04001e007800004078000080fa0000000600d1
:104d14000000fa0004c1a9000421a90021088000b0
:104d2400f0fc2f00008060000040a00020088800f4
:104d3400007d2000100888000021ef009460a80086
:104d440005e1a8000080fa00000006000200fa0055
:104d5400000f78009e007800014088000080fa006f
:104d6400000006000000fa000000eb00f0c3880019
:104d74000000eb00e0c388000000eb0010c48800d2
:104d84000000eb0000c48800e1ff07000080fa0087
:104d9400000006000a00fa006047980041079800e6
:104da40020d529002007980005c8bf000004e000b2
:104db40005003d000568ef000668ef000768ef0096
:104dc4000868ef000968ef0009c8bf000080fb0015
:104dd400e10f500027003200e10f500003003c00b7
:104de4000000e00006003200a9003700e20f500086
:104df40030003200e30f50006d003200a400370091
:104e040006c8bf000080fb00ae0090000080400098
:104e1400904078006e40900080cf500012003a001d
:104e240005c8bf008080fb00ee4190006291210024
:104e340003f178000040e80005e8b70006c8bf00a9
:104e44000040e80006e8b70006c8bf00e44f500081
:104e5400880036000668ef0009c8bf000040e8007b
:104e640009e8b7008a0037000568ef000668ef001c
:104e74008700370005c8bf008080fb00ee4190002a
:104e84006291210003f178000040e80005e8b700d2
:104e9400ee409000c0c2b30080cf500077003a00cb
:104ea4000768ef0009c8bf000040e80009e8b70040
:104eb4007700370005c8bf008080fb00ee419000fa
:104ec4006291210003f178000040e80005e8b70092
:104ed40007c8bf008080fb00ee419000629921006a
:104ee40003f178000040e80007e8b700ee409000c6
:104ef400a0c3b30080cf500062003a0007c8bf00cf
:104f04000040e90007e8b70007c8bf000080fb00c5
:104f1400619921000041eb00827078000868ef007d
:104f240010002000000f78001400370007c8bf00ed
:104f34000080fb0061992100614078000080fb0043
:104f44000003b100004078009e00780081407800a2
:104f54008180fb000088b900000078008040780060
:104f640008c8bf0000c0400008e8b7001e00780071
:104f74006a00b90000007800000f780007c8bf007d
:104f84008080fb008100ea00cf08de0081407800c9
:104f94000040e90007e8b7000104e000e3ff3a003d
:104fa40009c8bf000040e80009e8b700380037002e
:104fb40005c8bf008080fb00ee4190006291210093
:104fc40003f178000040e80005e8b70008c8bf0016
:104fd4000040e90008e8b70008c8bf000004e0008a
:104fe4002a003a000000eb00100798000c0037007c
:104ff4004e009000900078001e0090000080400059
:10500400629121009e00900081004100914078004f
:10501400014878001e0090000000e8001007980086
:1050240005c8bf008080fb001e009000808f5000e8
:10503400efff3d004e009000900078001e009000ad
:10504400008040008040eb00014878001e00900082
:105054000000e900800078004e00900011009800e4
:105064000968ef000568ef000668ef0010002000f3
:1050740008003700000000000500370000000000b1
:1050840003003700000000000100370000000000aa
:105094000000eb000080fa00000006000600fa00a1
:1050a400204798002107980004c8bf000004e000ce
:1050b40001003d000468ef0004c8bf008080fb00cd
:1050c400ae4190006289210003f178000040e800bd
:1050d40004e8b7002e409000ea4f50001d003a004b
:1050e4000000eb00000f7800090037002e0090004c
:1050f400900078001e007800008040006189210043
:105104009e80400091407800014878001e0fe8001e
:1051140004c8bf000080fb009e0f5000f3ff3c005a
:105124002e009000900078001e007800008040005f
:105134008040eb000148780004c8bf008080fb0079
:105144002e009000110098000468ef001000200069
:10515400010037000000eb000080fa0000000600a8
:10516400b600fa00e0c380000000e000270032002f
:10517400100280004500de00674060000080fb00f4
:10518400000f780011028000000e20000100700062
:1051940010028800000000006a00470044fa07007b
:1051a400100798001e0078000040780067406000f7
:1051b4000080fb00670060004500dd0012028000f3
:1051c400f1f12f00810061000100700010028800dd
:1051d400000000001e0090000000e0000b00320000
:1051e40010c0b300504f98000040eb00404f9800af
:1051f4006a0047007007980010002000000f980014
:10520400e1c380006c0047000100010000c480007d
:105214000000e00027003200100280004500de009c
:10522400674060000080fb002007980011028000a6
:10523400000e200001007000100288000000000031
:105244006a00470036fa0700100798002e00900005
:1052540000407800674060000080fb006700600049
:105264004500dd0012028000f1f12f008100610091
:105274000100700010028800000000001e00900071
:105284000000e0000b00320020c0b300305798004b
:1052940010c0b300205798006a004700200f980000
:1052a40010002000300f980001c4800072004700f5
:1052b40001000100f0c380000000e0001200320091
:1052c40040872000104078000004e0000e00320007
:1052d40010c0b300105f980020c0b300005f9800b6
:1052e4000000eb00500f98000000eb00600f9800e6
:1052f400f1c38000780047000100010040872000ce
:105304008040eb000148780010c480000000e000f9
:105314001200320020e92000104078000004e00070
:105324000e00320020c0b300705f980030c0b3009c
:10533400605f98000000eb00001798000000eb008d
:105344001017980011c480007e004700010001007e
:1053540020e920008040eb00014878001002800022
:105364004500de00674060000080fb0030079800c5
:1053740011028000000e200001007000100288005d
:10538400000000006a00470080007800608620006a
:10539400290a0700100798003e009000004078009a
:1053a400674060000080fb00670060004500dd008e
:1053b40012028000f1f12f008100610001007000f1
:1053c400100288000000000030c480000000e000eb
:1053d400170032001e0090000000e00014003200ac
:1053e40010c0b3005067980040c0b30040679800f5
:1053f400600320000e004000301798000000eb000e
:10540400401798002e489000410220008e804000f2
:105414008180e80021ff07000000e0000400320062
:1054240031c48000400220000e0040000100010051
:10543400100280004500de00674060000080fb0031
:105444004007980011028000000e20000100700047
:1054540010028800000000006a0047008000780005
:1054640040e82000f4090700100798004e0090005f
:1054740000407800674060000080fb006700600027
:105484004500dd0012028000f1f12f00810061006f
:1054940001007000100288000000000040c4800079
:1054a4000000e000170032001e0090000000e00041
:1054b4001400320020c0b300306f980050c0b30015
:1054c400206f9800600320000e00400060179800d1
:1054d4000000eb00701798002e489000a1022000f5
:1054e4008e8040008180e800ecfe07000000e000b0
:1054f4000400320041c48000a00220000e004000dd
:105504000100010050c480000000e00017003200d8
:105514001e0090000000e0001400320020c0b30020
:105524001077980060c0b3000077980060032000f3
:105534000e004000101f98000000eb00201f980090
:105544002e489000010320008e8040008180e800f6
:1055540010fe07000000e0000400320051c4800087
:10556400000320000e00400001000100d0c38000b1
:105574000000e0001000320061fd0700f1050700a3
:1055840070080700e3020700180707009d0a0700d8
:105594004c090700d0c380000000e900d0c3880094
:1055a400004080000000e000030032000040800062
:1055b4000000e900004088000080fa0000000600b6
:1055c4000400fa00100798000000eb00000f7800b8
:1055d400000000001e0078009e0090000080400043
:1055e400104078000080fb000000ea004f00de005d
:1055f400004078001e0fe8000004e000f5ff3a00c8
:105604001e00e9000080fa00000006000600fa000f
:1056140010079800210798000000eb00000f7800a5
:10562400090037001e007800ae00900000804000a2
:105634009e0078001e019000810041009140780096
:10564400014878001e0fe8001e0078009e009000bc
:1056540000804000104078000004e000f1ff3a00b0
:105664001e007800ae009000008040008040eb00f7
:10567400014878002e0090000080fa000000060027
:105684000800fa00100798002107980032079800d4
:105694000000eb00000f78000000eb00000f780022
:1056a4000a0037001e007800be0090000080400011
:1056b4009e0078001e019000810041009140780016
:1056c400014878001e0fe8001e0fe8002e0090002d
:1056d4009e007800808f5000f2ff35001e00780095
:1056e400be009000008040008040eb00014878003c
:1056f4003e0090000080fa00000006000c00fa0052
:1057040040079800510798005e009000acff070026
:10571400200798004e009000a9ff0700300798006a
:10572400be0090002e009000808f500002003d00cb
:105734000080eb00240037000000eb00000f78002d
:105744000000eb00100798000000eb00000f780049
:10575400180037001e007800ce0090000080400042
:10576400904078001e0090005e019000000041000f
:105774001040780080cf50000b003a001e009000cb
:105784000000e800100798009e0090002e00900092
:10579400808f5000060035009e00e8002e00900027
:1057a40000805000080037000000eb00100798004c
:1057b4001e0fe8003e0090009e007800808f50008d
:1057c400e4ff35000080eb000080fa0000000600d2
:1057d4000e00fa00400798005107980062079800ed
:1057e4006e00900076ff070020079800de0090000e
:1057f40031079800be0090002e009000808f50006a
:1058040002003d000080eb00240037000000eb00a4
:10581400000f78000000eb00100798000000eb0078
:10582400000f7800180037001e007800ce009000aa
:1058340000804000904078001e0090006e019000af
:10584400000041001040780080cf50000b003a0067
:105854001e0090000000e800100798009e009000d1
:105864002e009000808f5000060035009e00e80056
:105874002e00900000805000080037000000eb006c
:10588400100798001e0fe8003e0090009e0078006c
:10589400808f5000e4ff35000080eb000080fa00a8
:1058a400000006000e00fa005007980061079800f7
:1058b4006e00900042ff0700300798005e009000e1
:1058c4003fff070040079800ce0090003e00900084
:1058d400808f500002003d000080eb00270037005d
:1058e4000000eb00000f78003e0090000000e9008b
:1058f400100798000000eb00200798004e0090006d
:10590400000fe900190037001e007800de00900047
:1059140000804000904078001e0090006e019000ce
:10592400000041001040780080cf50000c003a0085
:105934001e0090000000e900100798002e0090005f
:105944000000e80020079800ae0090003e009000a0
:10595400808f5000040035001e00780007003700d7
:105964000000eb00200798001e0fe9001e007800dd
:105974000000e000e4ff3d000080eb000080fa003e
:10598400000006000600fa0010079800210798009e
:105994000000eb00000f78000000eb00000f78001f
:1059a400100037001e0078009e0090000080400028
:1059b4009040780000c2b30080cf5000080032004d
:1059c4001e0078009e009000008040009040780007
:1059d4002e009000014878001e007800080037006f
:1059e4001e0fe8001e0078009e009000008040001a
:1059f400104078000004e000eaff3a000000eb00e9
:105a04000080fa00000006000600fa001007980063
:105a1400414798000000eb00000f78000000eb0005
:105a2400000f78000a0037001e0078009e009000e6
:105a340000804000904078004e40900080cf50009d
:105a440002003a001e007800080037001e0fe8002c
:105a54001e0078009e0090000080400010407800f6
:105a64000004e000f0ff3a000080eb000080fa0040
:105a7400000006000800fa0020079800614798001b
:105a84002e009000cefe0700100798001e00900024
:105a9400000fe9000a0037001e007800ae009000f5
:105aa40000804000904078006e40900080cf50000d
:105ab40002003a001e007800080037001e0fe900bb
:105ac4001e007800ae009000008040001040780076
:105ad4000004e000f0ff3a000080eb000080fa00d0
:105ae400000006000800fa0020079800310798001b
:105af4002e009000b2fe0700100798001e009000d0
:105b0400000fe900100037001e007800ae0090007e
:105b1400008040009040780000c2b30080cf500065
:105b2400080032001e007800ae00900000804000a3
:105b3400904078003e009000014878001e007800f4
:105b4400090037001e0fe9001e007800ae00900027
:105b540000804000104078000004e000eaff3a00b2
:105b64001e0090000000e9000080fa00000006001a
:105b74000c00fa00200798003107980042079800ab
:105b8400530798000000eb00000f78002e009000ef
:105b94008bfe0700100798004e0090000000e00004
:105ba40015003d000c0037001e007800de00900058
:105bb40000804000be0090002e0190008100410052
:105bc40091407800014878001e0fe8003e009000e4
:105bd4000000e800300798003e009000ae009000fe
:105be40000804000104078000004e000eeff3a001e
:105bf4005e00900023003700be0090004e0090002d
:105c0400808040001e009000808f5000040034000b
:105c14005e0090008040eb000148780018003700d7
:105c24000000eb00000f78000c0037001e00780025
:105c3400de00900000804000be0090002e01900025
:105c44008100410091407800014878003e009000b6
:105c54000000e800300798001e0fe8004e00900096
:105c64009e007800808f5000f0ff35001e00780001
:105c7400de009000008040008040eb000148780086
:105c84005e0090000080fa00000006000e00fa009a
:105c9400300798004107980052079800630798005e
:105ca4003e00900046fe070020079800ce009000ba
:105cb4002e009000808f500019003d00de009000ff
:105cc4004e009000808f500015003500ce009000eb
:105cd400010f78000000eb00100798000c0037005b
:105ce4001e009000ee009000008040009e007800ae
:105cf4003e01900081004100914078000148780005
:105d04001e0fe8001e0090000000e8001007980035
:105d14005e0090009e007800808f5000f0ff3400f9
:105d24001e009000ee009000008040008040eb00d8
:105d3400014878006e0090000080fa000000060020
:105d44000e00fa00600798000000eb00000f7800d6
:105d54000000eb00100798001e009000ee00900079
:105d64000080400090407800d0c2b30080cf500043
:105d740006003a0010002000000f78001e0090007a
:105d84000000e800100798000a0037001e00900089
:105d9400ee0090000080400090407800b0c2b30054
:105da40080cf500003003a001e0090000000e8007d
:105db400100798001e009000ee0090000080400044
:105dc400500798005e009000fdfd07002007980032
:105dd4001e0078000000e000020032000080eb00aa
:105de4000100370010002000300798000000eb008d
:105df40040079800140037002e0090000000e900ce
:105e0400200798002e009000de00900000804000e3
:105e1400104078000000fb0001fd2f00808040004e
:105e24003e0090000088b90000007800ce00900089
:105e340000804000400798003e0090006a00b900ce
:105e440000007800300798002e0090000000e00069
:105e5400e9ff3a004e0090000080fa0000000600be
:105e64000800fa0020079800310798000000eb00b2
:105e7400000f78000000eb001007980001003700c5
:105e84001e0fe8001e007800ae0090000080400065
:105e94009040780000c2b30080cf5000f8ff320079
:105ea4000c0037001e009000be00900000804000ef
:105eb4009e0078002e0190008100410091407800fe
:105ec400014878001e0090000000e80010079800c8
:105ed4001e0fe8001e007800ae0090000080400015
:105ee400104078000004e000eeff3a001e0090002d
:105ef400be009000008040008040eb000148780024
:105f04003e0090000080fa00000006000800fa003d
:105f140020079800310798002e009000a8fd070084
:105f2400000fe900010037001e0fe9001e00780091
:105f3400ae009000008040009040780000c2b300a2
:105f440080cf5000f8ff32000000eb0010079800eb
:105f54000b0037001e009000be009000008040003f
:105f64009e0090002e019000810041009140780035
:105f7400014878001e0090000000e8001007980017
:105f84009e00e8001e009000808f5000f1ff3c004e
:105f94001e009000be009000008040008040eb0096
:105fa400014878003e0090000080fa0000000600de
:105fb4000c00fa003007980041079800224f98001f
:105fc4000000eb00000f78000000eb0010079800c1
:105fd400120037001e007800be00900000804000d0
:105fe40090407800414798001e0fe800ce40900092
:105ff4002e48900080cf5000080032001e00900010
:10600400ce00900000804000ce409000014878000f
:106014001e0090000000e800100798001e007800a1
:10602400be00900000804000104078000004e000b2
:10603400e8ff3a001e009000ce009000008040006f
:106044008040eb00014878004e0090000080fa0088
:10605400000006000c00fa00300798004107980081
:10606400224f9800334f98000000eb00000f780097
:106074000000eb0010079800180037001e0078009d
:10608400be00900000804000904078004147980096
:106094001e0fe800ce4090002e48900080cf5000a4
:1060a40006003a001e009000ce00900000804000e0
:1060b400be48900001487800050037001e0090009b
:1060c400ce00900000804000ce409000014878004f
:1060d4001e0090000000e800100798001e007800e1
:1060e400be00900000804000104078000004e000f2
:1060f400e2ff3a001e009000ce00900000804000b5
:106104008040eb00014878004e0090000080fa00c7
:10611400000006000400fa00a0a321001007980064
:106124000000eb00000f78005f0037001e009000b5
:1061340010407800e14f500047003a001e009000e4
:10614400104090000080fb00e10f50001600320068
:10615400e30f5000290032000000e0003e003a0046
:106164001e009000400090008000e8001e00900097
:10617400410098001e009000c00090001e00900096
:1061840010009000808f50002e0039001e009000f7
:1061940011c0b300114098001e0078000040780040
:1061a400380107002c0037001e00900040009000ca
:1061b4008000e8001e009000410098001e0090003e
:1061c400c00090001e009000200190001e0090006e
:1061d4001000900000004100808f50001b00390027
:1061e4001e00900031c0b300114098001e007800da
:1061f400004078003c010700170037001e009000a3
:10620400400090008000e8001e00900041009800cb
:106214001e009000c00090001e009000300090000e
:10622400808f50000b0039001e0090008040eb006e
:10623400114098001e0090008000eb00410098007f
:1062440005003700000000000300370000000000d4
:1062540001003700000000001e0090005000900074
:106264000000e0000c0032001e009000500090007e
:106274008000e9001e009000510098001e0090006c
:10628400500090000000e00003003a001e00780077
:1062940000407800140107001e0090006c004000cc
:1062a400100798001e0fe8001e007800e30f50004e
:1062b4009eff34000080fa00000006000400fa008b
:1062c400004f7800110798001e80fb006c00b90095
:1062d4008000780040a42100008040009e009000cf
:1062e400010878001e407800e60007000080fa00ec
:1062f400000006000200fa00004f780011479800e1
:106304001e80fb006c00b90080007800a0a321006f
:10631400008040009e409000014878000080fa0010
:10632400000006000a00fa002047980021079800a0
:1063340032079800430798002e4090000080fb002d
:106344006c00b90080007800a0a32100008f4000f9
:106354001e007800ae009000310098001e00780006
:10636400be009000110098001e007800ce0090003e
:10637400210098001e00780011c0b3000148780085
:106384000080fa00000006000600fa00204798008a
:10639400210798002e4090000080fb006c00b9009b
:1063a40080007800a0a32100008f40001e00780028
:1063b400ae009000310098001e007800200090008c
:1063c400ae009000808050001e00780011009800fc
:1063d4000080fa00000006000600fa00204798003a
:1063e400210798002e4090000080fb006c00b9004b
:1063f40080007800a0a32100008f40001e007800d8
:10640400ae009000210098001e007800b0009000bb
:106414002e009000808050001e007800110098002b
:106424000080fa00000006000600fa0020479800e9
:10643400210798002e4090000080fb006c00b900fa
:1064440080007800a0a32100008f40001e00780087
:10645400ae009000110098001e007800b00090007b
:106464002e009000808050001e00780021009800cb
:106474000080fa00000006000200fa00004f7800d5
:106484001e80fb006100600000f0a7000000ea002d
:106494000000e9004f00de00004078000080fb00af
:1064a400610060004200dd00211680000120a1008f
:1064b40001007000201688001e80fb00620060004e
:1064c40000f0a7000000ea000000e9004f00de0031
:1064d400004078000080fb00610060004400dd00a3
:1064e400211680000140a1000100700020168800e0
:1064f4001e80fb006400600000f0a7000000ea00ba
:106504000000e9004f00de00004078000080fb003e
:10651400610060004200dd00611680000120a100de
:1065240001007000601688001e80fb006800600097
:1065340000f0a7000000ea000000e9004f00de00c0
:10654400004078000080fb00610060004300dd0033
:10655400611680000130a1000100700060168800ff
:106564000080fa00000006000000fa0060168000b7
:106574004300de00614060000080fb004300dd005a
:1065840080407800601680004200de0061406000b8
:106594000080fb004200dd000040780080c07000f5
:1065a400201680004400de00614060000080fb0093
:1065b400000040000040780080c070002016800079
:1065c4004200de006140600000c070000080fa00fc
:1065d400000006000400fa00a0a3210010079800a0
:1065e4000000eb00000f7800190037001e00900037
:1065f4008040eb00014878001e00900011c0b300f9
:10660400114098001e0090008000eb0041009800ab
:106614009e0078001e009000110098001e0090005b
:1066240021002000210098001e009000a1002000fd
:10663400310098001e0090008000eb00510098008b
:106644001e0090006c004000100798001e0fe80028
:106654001e007800e30f5000e4ff3400c042a9009c
:10666400c082a900c842a900c862a900c442a80007
:10667400c482a800cc42a800cc62a8000080fa0022
:10668400000006000200fa00004f78001e80fb00a4
:10669400e10f50000c003200e10f500003003c00f9
:1066a4000000e000060032000d003700e20f500049
:1066b40007003200e30f50000700320008003700e3
:1066c400c442a90006003700c482a90004003700b0
:1066d400cc42a90002003700cc62a90000000000ef
:1066e4000080fa00000006000200fa00004f780063
:1066f4001e80fb00e10f50000c003200e10f50003f
:1067040003003c000000e000060032000d003700ea
:10671400e20f500007003200e30f50000700320080
:1067240008003700c442a80006003700c482a8004d
:1067340004003700cc42a80002003700cc62a80055
:10674400000000000080fa00000006000200fa00c9
:10675400004f78001e80fb00e10f5000190032004a
:10676400e10f500003003c000000e000060032008e
:1067740041003700e20f500021003200e30f5000c7
:106784002e0032003c0037002016800064006000b8
:1067940000f0a7000000ea000000e9004f00de005e
:1067a400004078000080fb00610060004200dd00d2
:1067b400211680000120a10001007000201688002d
:1067c4002d003700201680007000600000f0a70044
:1067d4000000ea000000e9004f00de0000407800fd
:1067e4000080fb00610060004400dd002116800091
:1067f4000140a10001007000201688001e0037002f
:10680400601680006400600000f0a7000000ea0049
:106814000000e9004f00de00004078000080fb002b
:10682400610060004200dd00611680000120a100cb
:1068340001007000601688000f00370060168000a9
:106844006800600000f0a7000000ea000000e90012
:106854004f00de00004078000080fb006100600013
:106864004300dd00611680000130a10001007000ca
:1068740060168800000000000080fa000000060096
:106884000200fa00004f78001e80fb00e10f500068
:1068940012003200e10f500003003c000000e00051
:1068a4000600320025003700e20f500013003200ca
:1068b400e30f50001900320020003700101680004a
:1068c4006400600000f0a7000000ea000000e90096
:1068d4004f00de00004078001900370010168000d9
:1068e4007000600000f0a7000000ea000000e9006a
:1068f4004f00de0000407800110037005016800081
:106904006400600000f0a7000000ea000000e90055
:106914004f00de0000407800090037005016800068
:106924006800600000f0a7000000ea000000e90031
:106934004f00de0000407800010037000040eb000b
:106944000080fa00000006000400fa00a09921006b
:10695400100798000000eb00000f78001c003700bf
:106964001e0090008000eb00510098001e00900073
:1069740080c0eb00014878001e0090008000eb000e
:10698400110098001e0090008040eb0041409800e8
:106994001e0090008000eb00310098001e00900063
:1069a4008000eb00610098001e0090008000eb0066
:1069b400710098001e0090008000eb000108980010
:1069c4001e00900072004000100798001e0fe8009f
:1069d4001e007800e40f5000e1ff34002228ef008d
:1069e400500020000080fa00000006000800fa00b1
:1069f400200798003107980010418000e40f5000f0
:106a0400020034000000eb002f003700a0992100a1
:106a1400100798000000eb00000f780026003700f4
:106a24001e009000404090000004e0001e003a0068
:106a34001e00900031c0b300414098001e00900039
:106a44008000eb00310098001e0078008040780040
:106a54001e009000014878001e009000ae009000d7
:106a6400110098001e009000be0090005100980094
:106a74001e00900011002000610098001e0090008c
:106a84008000eb00710098001e0090008000eb0075
:106a940001089800104180000000e80010418800bf
:106aa4001e009000080037001e0090007200400095
:106ab400100798001e0fe8001e007800e40f500035
:106ac400d7ff34000000eb000080fa00000006004d
:106ad4000600fa0020079800104180000000e00042
:106ae40002003c000000eb002d003700a0992100bb
:106af400100798000000eb00000f78002400370016
:106b04009e0090002e009000808f50001c003a00e0
:106b14001e0090008000eb00510098001e009000c1
:106b240080c0eb00014878001e00900081d5290048
:106b3400110098001e0090008040eb004140980036
:106b44001e0090008000eb00310098001e009000b1
:106b54008000eb00610098001e0090008000eb00b4
:106b6400710098001e0090008000eb00010898005e
:106b7400104180000000e900104188000700370040
:106b84001e00900072004000100798001e0fe800dd
:106b94001e007800e40f5000d9ff340010002000dc
:106ba4000080fa00000006000400fa00000f7800dc
:106bb400110798001e007800404090000004e00097
:106bc40002003a000000eb00040037001e007800c9
:106bd4009e00900051009800100020000080fa00f0
:106be400000006000400fa00000f78001107980066
:106bf4001e007800404090000004e00002003a00cb
:106c04000000eb000a0037001e0078008000eb0053
:106c1400610098001e00780021c0b3004140980034
:106c24001e0078009e009000410098001000200093
:106c34000080fa00000006000200fa00000f78004d
:106c44001e007800404090000004e00002003a007a
:106c54000000eb000d0037001e007800404090005b
:106c6400e24f500008003a001e0078008000eb005c
:106c7400610098001e00780031c0b30041409800c4
:106c840010002000010037000000eb000080fa0033
:106c9400000006000400fa00000f780011079800b5
:106ca4001e007800404090000004e00002003a001a
:106cb4000000eb000a0037001e0078008000eb00a3
:106cc400610098001e00780011c0b3004140980094
:106cd4001e0078009e0090004100980010002000e3
:106ce4000080fa00000006000400fa00000f78009b
:106cf400110798001e007800404090000004e00056
:106d040002003a000000eb000c0037001e0078007f
:106d14009e0090001101be007200980003089800c4
:106d24001e00780041002000610098001e007800d9
:106d340031c0b30041409800100020000080fa00e8
:106d4400000006001400fa000000eb001007980091
:106d54000000eb0020079800a0992100300798005c
:106d64000000eb00000f78005c0037003e0090004c
:106d7400404090000004e000540032003e009000c7
:106d840040409000e24f5000040032003e0090006a
:106d940040409000e14f500018003a003e0090003f
:106da400400090000000e0000f003a003e00900018
:106db40040409000e24f500004003a003e00900032
:106dc4002100200061009800030037003e0090007d
:106dd40051002000610098003e00900031c0b300d3
:106de40041409800050037003e00900040009000ac
:106df4008000e9003e009000410098003e009000b1
:106e040040409000e34f500029003a002e009000cb
:106e14000000e8002007980010c0b300204f98003d
:106e24003e00900050009000100f9800be009000ab
:106e3400610798003e0090001000900070079800d1
:106e44003e00900010009000ddf90700000f98004c
:106e5400100280004500de00674060000080fb00f7
:106e64004007980011028000000e2000010070000d
:106e740010028800000000006a00470009040700af
:106e84004e00900000407800674060000080fb00e6
:106e9400670060004500dd0012028000f1f12f0060
:106ea40081006100010070001002880000000000f1
:106eb4001e0090000000e8001007980010418000b8
